{
  "_format": "hh-sol-artifact-1",
  "contractName": "BoardFundManagerFactory",
  "sourceName": "contracts/MultiSigWalletFactory.sol",
  "abi": [
    {
      "anonymous": false,
      "inputs": [
        {
          "indexed": true,
          "internalType": "address",
          "name": "newFund",
          "type": "address"
        },
        {
          "indexed": true,
          "internalType": "address",
          "name": "token",
          "type": "address"
        },
        {
          "indexed": false,
          "internalType": "address[]",
          "name": "boardMembers",
          "type": "address[]"
        }
      ],
      "name": "FundManagerDeployed",
      "type": "event"
    },
    {
      "inputs": [
        {
          "internalType": "address[]",
          "name": "_members",
          "type": "address[]"
        },
        {
          "internalType": "address",
          "name": "_token",
          "type": "address"
        }
      ],
      "name": "createFundManager",
      "outputs": [],
      "stateMutability": "nonpayable",
      "type": "function"
    },
    {
      "inputs": [
        {
          "internalType": "uint256",
          "name": "",
          "type": "uint256"
        }
      ],
      "name": "deployedFunds",
      "outputs": [
        {
          "internalType": "address",
          "name": "",
          "type": "address"
        }
      ],
      "stateMutability": "view",
      "type": "function"
    },
    {
      "inputs": [],
      "name": "getDeployedFunds",
      "outputs": [
        {
          "internalType": "address[]",
          "name": "",
          "type": "address[]"
        }
      ],
      "stateMutability": "view",
      "type": "function"
    }
  ],
  "bytecode": "0x6080604052348015600f57600080fd5b50612b458061001f6000396000f3fe608060405234801561001057600080fd5b50600436106100415760003560e01c806354d8a5bd146100465780639a068bd614610064578063f618614314610094575b600080fd5b61004e6100b0565b60405161005b9190610381565b60405180910390f35b61007e600480360381019061007991906103ed565b61013e565b60405161008b9190610429565b60405180910390f35b6100ae60048036038101906100a991906105c9565b61017d565b005b6060600080548060200260200160405190810160405280929190818152602001828054801561013457602002820191906000526020600020905b8160009054906101000a900473ffffffffffffffffffffffffffffffffffffffff1673ffffffffffffffffffffffffffffffffffffffff16815260200190600101908083116100ea575b5050505050905090565b6000818154811061014e57600080fd5b906000526020600020016000915054906101000a900473ffffffffffffffffffffffffffffffffffffffff1681565b6000828260405161018d90610284565b610198929190610625565b604051809103906000f0801580156101b4573d6000803e3d6000fd5b5090506000819080600181540180825580915050600190039060005260206000200160009091909190916101000a81548173ffffffffffffffffffffffffffffffffffffffff021916908373ffffffffffffffffffffffffffffffffffffffff1602179055508173ffffffffffffffffffffffffffffffffffffffff168173ffffffffffffffffffffffffffffffffffffffff167fb6fdb6e4756bdeebba4add73aa9ab75a80c6fcb854d1dde82bb765779fdaee0f856040516102779190610381565b60405180910390a3505050565b6124ba8061065683390190565b600081519050919050565b600082825260208201905092915050565b6000819050602082019050919050565b600073ffffffffffffffffffffffffffffffffffffffff82169050919050565b60006102e8826102bd565b9050919050565b6102f8816102dd565b82525050565b600061030a83836102ef565b60208301905092915050565b6000602082019050919050565b600061032e82610291565b610338818561029c565b9350610343836102ad565b8060005b8381101561037457815161035b88826102fe565b975061036683610316565b925050600181019050610347565b5085935050505092915050565b6000602082019050818103600083015261039b8184610323565b905092915050565b6000604051905090565b600080fd5b600080fd5b6000819050919050565b6103ca816103b7565b81146103d557600080fd5b50565b6000813590506103e7816103c1565b92915050565b600060208284031215610403576104026103ad565b5b6000610411848285016103d8565b91505092915050565b610423816102dd565b82525050565b600060208201905061043e600083018461041a565b92915050565b600080fd5b6000601f19601f8301169050919050565b7f4e487b7100000000000000000000000000000000000000000000000000000000600052604160045260246000fd5b61049282610449565b810181811067ffffffffffffffff821117156104b1576104b061045a565b5b80604052505050565b60006104c46103a3565b90506104d08282610489565b919050565b600067ffffffffffffffff8211156104f0576104ef61045a565b5b602082029050602081019050919050565b600080fd5b61050f816102dd565b811461051a57600080fd5b50565b60008135905061052c81610506565b92915050565b6000610545610540846104d5565b6104ba565b9050808382526020820190506020840283018581111561056857610567610501565b5b835b81811015610591578061057d888261051d565b84526020840193505060208101905061056a565b5050509392505050565b600082601f8301126105b0576105af610444565b5b81356105c0848260208601610532565b91505092915050565b600080604083850312156105e0576105df6103ad565b5b600083013567ffffffffffffffff8111156105fe576105fd6103b2565b5b61060a8582860161059b565b925050602061061b8582860161051d565b9150509250929050565b6000604082019050818103600083015261063f8185610323565b905061064e602083018461041a565b939250505056fe608060405234801561001057600080fd5b506040516124ba3803806124ba83398181016040528101906100329190610587565b601382511461006d576040517f57e0205800000000000000000000000000000000000000000000000000000000815260040160405180910390fd5b600073ffffffffffffffffffffffffffffffffffffffff168173ffffffffffffffffffffffffffffffffffffffff16036100d3576040517f1eb00b0600000000000000000000000000000000000000000000000000000000815260040160405180910390fd5b806000806101000a81548173ffffffffffffffffffffffffffffffffffffffff021916908373ffffffffffffffffffffffffffffffffffffffff16021790555060146003819055506001600260003373ffffffffffffffffffffffffffffffffffffffff1673ffffffffffffffffffffffffffffffffffffffff16815260200190815260200160002060006101000a81548160ff0219169083151502179055506001339080600181540180825580915050600190039060005260206000200160009091909190916101000a81548173ffffffffffffffffffffffffffffffffffffffff021916908373ffffffffffffffffffffffffffffffffffffffff16021790555060005b82518110156103b45760008382815181106101f7576101f66105e3565b5b60200260200101519050600073ffffffffffffffffffffffffffffffffffffffff168173ffffffffffffffffffffffffffffffffffffffff1603610267576040517f1eb00b0600000000000000000000000000000000000000000000000000000000815260040160405180910390fd5b600260008273ffffffffffffffffffffffffffffffffffffffff1673ffffffffffffffffffffffffffffffffffffffff16815260200190815260200160002060009054906101000a900460ff16156102eb576040517ff9f285ea00000000000000000000000000000000000000000000000000000000815260040160405180910390fd5b6001600260008373ffffffffffffffffffffffffffffffffffffffff1673ffffffffffffffffffffffffffffffffffffffff16815260200190815260200160002060006101000a81548160ff0219169083151502179055506001819080600181540180825580915050600190039060005260206000200160009091909190916101000a81548173ffffffffffffffffffffffffffffffffffffffff021916908373ffffffffffffffffffffffffffffffffffffffff1602179055505080806001019150506101d9565b505050610612565b6000604051905090565b600080fd5b600080fd5b600080fd5b6000601f19601f8301169050919050565b7f4e487b7100000000000000000000000000000000000000000000000000000000600052604160045260246000fd5b61041e826103d5565b810181811067ffffffffffffffff8211171561043d5761043c6103e6565b5b80604052505050565b60006104506103bc565b905061045c8282610415565b919050565b600067ffffffffffffffff82111561047c5761047b6103e6565b5b602082029050602081019050919050565b600080fd5b600073ffffffffffffffffffffffffffffffffffffffff82169050919050565b60006104bd82610492565b9050919050565b6104cd816104b2565b81146104d857600080fd5b50565b6000815190506104ea816104c4565b92915050565b60006105036104fe84610461565b610446565b905080838252602082019050602084028301858111156105265761052561048d565b5b835b8181101561054f578061053b88826104db565b845260208401935050602081019050610528565b5050509392505050565b600082601f83011261056e5761056d6103d0565b5b815161057e8482602086016104f0565b91505092915050565b6000806040838503121561059e5761059d6103c6565b5b600083015167ffffffffffffffff8111156105bc576105bb6103cb565b5b6105c885828601610559565b92505060206105d9858286016104db565b9150509250929050565b7f4e487b7100000000000000000000000000000000000000000000000000000000600052603260045260246000fd5b611e99806106216000396000f3fe608060405234801561001057600080fd5b50600436106100ea5760003560e01c8063685067d51161008c578063ec096f8d11610066578063ec096f8d14610275578063edd4ea9a14610291578063f81fc230146102af578063fc0c546a146102cd576100ea565b8063685067d5146101f357806371942a011461022757806399c1aadc14610257576100ea565b80633b38e8b0116100c85780633b38e8b01461016b5780633b76594d146101875780635fc89b90146101a357806363a8374d146101bf576100ea565b806308aff933146100ef578063242232d11461011f5780632a892ea91461013b575b600080fd5b61010960048036038101906101049190611469565b6102eb565b60405161011691906114c4565b60405180910390f35b610139600480360381019061013491906114df565b61031a565b005b610155600480360381019061015091906114df565b6105e2565b604051610162919061151b565b60405180910390f35b610185600480360381019061018091906114df565b610621565b005b6101a1600480360381019061019c91906114df565b6108d7565b005b6101bd60048036038101906101b891906114df565b610b23565b005b6101d960048036038101906101d491906114df565b610e96565b6040516101ea9594939291906115d5565b60405180910390f35b61020d600480360381019061020891906114df565b610f91565b60405161021e9594939291906115d5565b60405180910390f35b610241600480360381019061023c919061162f565b6110e2565b60405161024e91906114c4565b60405180910390f35b61025f611102565b60405161026c919061165c565b60405180910390f35b61028f600480360381019061028a91906117ac565b611108565b005b610299611302565b6040516102a691906118d9565b60405180910390f35b6102b7611390565b6040516102c4919061165c565b60405180910390f35b6102d561139d565b6040516102e2919061195a565b60405180910390f35b60046020528160005260406000206020528060005260406000206000915091509054906101000a900460ff1681565b600260003373ffffffffffffffffffffffffffffffffffffffff1673ffffffffffffffffffffffffffffffffffffffff16815260200190815260200160002060009054906101000a900460ff1661039d576040517f82b4290000000000000000000000000000000000000000000000000000000000815260040160405180910390fd5b8060058054905081106103dc576040517f31fb878f00000000000000000000000000000000000000000000000000000000815260040160405180910390fd5b81600581815481106103f1576103f0611975565b5b906000526020600020906005020160030160009054906101000a900460ff1615610447576040517fdb5e659b00000000000000000000000000000000000000000000000000000000815260040160405180910390fd5b826004600082815260200190815260200160002060003373ffffffffffffffffffffffffffffffffffffffff1673ffffffffffffffffffffffffffffffffffffffff16815260200190815260200160002060009054906101000a900460ff16156104dd576040517fc12b844800000000000000000000000000000000000000000000000000000000815260040160405180910390fd5b6000600585815481106104f3576104f2611975565b5b90600052602060002090600502019050600181600401600082825461051891906119d3565b9250508190555060016004600087815260200190815260200160002060003373ffffffffffffffffffffffffffffffffffffffff1673ffffffffffffffffffffffffffffffffffffffff16815260200190815260200160002060006101000a81548160ff021916908315150217905550843373ffffffffffffffffffffffffffffffffffffffff167fbfd0b6428c5abf4ca264a55761fa7c51ea3f4c44cdebd0bdc8e0ae77f5f06d8a83600401546040516105d3919061165c565b60405180910390a35050505050565b600181815481106105f257600080fd5b906000526020600020016000915054906101000a900473ffffffffffffffffffffffffffffffffffffffff1681565b600260003373ffffffffffffffffffffffffffffffffffffffff1673ffffffffffffffffffffffffffffffffffffffff16815260200190815260200160002060009054906101000a900460ff166106a4576040517f82b4290000000000000000000000000000000000000000000000000000000000815260040160405180910390fd5b8060058054905081106106e3576040517f31fb878f00000000000000000000000000000000000000000000000000000000815260040160405180910390fd5b81600581815481106106f8576106f7611975565b5b906000526020600020906005020160030160009054906101000a900460ff161561074e576040517fdb5e659b00000000000000000000000000000000000000000000000000000000815260040160405180910390fd5b60006005848154811061076457610763611975565b5b906000526020600020906005020190506004600085815260200190815260200160002060003373ffffffffffffffffffffffffffffffffffffffff1673ffffffffffffffffffffffffffffffffffffffff16815260200190815260200160002060009054906101000a900460ff16610808576040517f2d92b08100000000000000000000000000000000000000000000000000000000815260040160405180910390fd5b600181600401600082825461081d9190611a07565b9250508190555060006004600086815260200190815260200160002060003373ffffffffffffffffffffffffffffffffffffffff1673ffffffffffffffffffffffffffffffffffffffff16815260200190815260200160002060006101000a81548160ff021916908315150217905550833373ffffffffffffffffffffffffffffffffffffffff167f795394da21278ca39d59bb3ca00efeebdc0679acc420916c7385c2c5d942656f60405160405180910390a350505050565b600260003373ffffffffffffffffffffffffffffffffffffffff1673ffffffffffffffffffffffffffffffffffffffff16815260200190815260200160002060009054906101000a900460ff1661095a576040517f82b4290000000000000000000000000000000000000000000000000000000000815260040160405180910390fd5b60008060009054906101000a900473ffffffffffffffffffffffffffffffffffffffff1673ffffffffffffffffffffffffffffffffffffffff166323b872dd3330856040518463ffffffff1660e01b81526004016109ba93929190611a3b565b6020604051808303816000875af11580156109d9573d6000803e3d6000fd5b505050506040513d601f19601f820116820180604052508101906109fd9190611a9e565b905080610a36576040517f90b8ec1800000000000000000000000000000000000000000000000000000000815260040160405180910390fd5b3373ffffffffffffffffffffffffffffffffffffffff167fbee4fe3675934fca827426c793623996a3079255089bda3a717019ffc5db27658360008054906101000a900473ffffffffffffffffffffffffffffffffffffffff1673ffffffffffffffffffffffffffffffffffffffff166370a08231306040518263ffffffff1660e01b8152600401610ac8919061151b565b602060405180830381865afa158015610ae5573d6000803e3d6000fd5b505050506040513d601f19601f82011682018060405250810190610b099190611ae0565b604051610b17929190611b0d565b60405180910390a25050565b600260003373ffffffffffffffffffffffffffffffffffffffff1673ffffffffffffffffffffffffffffffffffffffff16815260200190815260200160002060009054906101000a900460ff16610ba6576040517f82b4290000000000000000000000000000000000000000000000000000000000815260040160405180910390fd5b806005805490508110610be5576040517f31fb878f00000000000000000000000000000000000000000000000000000000815260040160405180910390fd5b8160058181548110610bfa57610bf9611975565b5b906000526020600020906005020160030160009054906101000a900460ff1615610c50576040517fdb5e659b00000000000000000000000000000000000000000000000000000000815260040160405180910390fd5b600060058481548110610c6657610c65611975565b5b9060005260206000209060050201905060035481600401541015610cb6576040517f5fcb45ee00000000000000000000000000000000000000000000000000000000815260040160405180910390fd5b60018160030160006101000a81548160ff021916908315150217905550833373ffffffffffffffffffffffffffffffffffffffff167f4e86ad0da28cbaaaa7e93e36c43b32696e970535225b316f1b84fbf30bdc04e860405160405180910390a360008060009054906101000a900473ffffffffffffffffffffffffffffffffffffffff1673ffffffffffffffffffffffffffffffffffffffff1663a9059cbb8360000160009054906101000a900473ffffffffffffffffffffffffffffffffffffffff1684600101546040518363ffffffff1660e01b8152600401610d9d929190611b36565b6020604051808303816000875af1158015610dbc573d6000803e3d6000fd5b505050506040513d601f19601f82011682018060405250810190610de09190611a9e565b905080610e19576040517f90b8ec1800000000000000000000000000000000000000000000000000000000815260040160405180910390fd5b8160000160009054906101000a900473ffffffffffffffffffffffffffffffffffffffff1673ffffffffffffffffffffffffffffffffffffffff167f8c9a4f13b67cb64d7c6aa1ae0c9bf07694af521a28b93e7060020810ab4bc59f8360010154604051610e87919061165c565b60405180910390a25050505050565b60058181548110610ea657600080fd5b90600052602060002090600502016000915090508060000160009054906101000a900473ffffffffffffffffffffffffffffffffffffffff1690806001015490806002018054610ef590611b8e565b80601f0160208091040260200160405190810160405280929190818152602001828054610f2190611b8e565b8015610f6e5780601f10610f4357610100808354040283529160200191610f6e565b820191906000526020600020905b815481529060010190602001808311610f5157829003601f168201915b5050505050908060030160009054906101000a900460ff16908060040154905085565b60008060606000806005805490508610610fd7576040517f31fb878f00000000000000000000000000000000000000000000000000000000815260040160405180910390fd5b600060058781548110610fed57610fec611975565b5b906000526020600020906005020190508060000160009054906101000a900473ffffffffffffffffffffffffffffffffffffffff168160010154826002018360030160009054906101000a900460ff16846004015482805461104e90611b8e565b80601f016020809104026020016040519081016040528092919081815260200182805461107a90611b8e565b80156110c75780601f1061109c576101008083540402835291602001916110c7565b820191906000526020600020905b8154815290600101906020018083116110aa57829003601f168201915b50505050509250955095509550955095505091939590929450565b60026020528060005260406000206000915054906101000a900460ff1681565b60035481565b600260003373ffffffffffffffffffffffffffffffffffffffff1673ffffffffffffffffffffffffffffffffffffffff16815260200190815260200160002060009054906101000a900460ff1661118b576040517f82b4290000000000000000000000000000000000000000000000000000000000815260040160405180910390fd5b6000600580549050905060056040518060a001604052808673ffffffffffffffffffffffffffffffffffffffff1681526020018581526020018481526020016000151581526020016000815250908060018154018082558091505060019003906000526020600020906005020160009091909190915060008201518160000160006101000a81548173ffffffffffffffffffffffffffffffffffffffff021916908373ffffffffffffffffffffffffffffffffffffffff1602179055506020820151816001015560408201518160020190816112679190611d61565b5060608201518160030160006101000a81548160ff0219169083151502179055506080820151816004015550508373ffffffffffffffffffffffffffffffffffffffff16813373ffffffffffffffffffffffffffffffffffffffff167f96d64a23b7f23d0f4f8e74c4a7123dab63f617f0ae03ff1006fc101d6b10478b86866040516112f4929190611e33565b60405180910390a450505050565b6060600180548060200260200160405190810160405280929190818152602001828054801561138657602002820191906000526020600020905b8160009054906101000a900473ffffffffffffffffffffffffffffffffffffffff1673ffffffffffffffffffffffffffffffffffffffff168152602001906001019080831161133c575b5050505050905090565b6000600580549050905090565b60008054906101000a900473ffffffffffffffffffffffffffffffffffffffff1681565b6000604051905090565b600080fd5b600080fd5b6000819050919050565b6113e8816113d5565b81146113f357600080fd5b50565b600081359050611405816113df565b92915050565b600073ffffffffffffffffffffffffffffffffffffffff82169050919050565b60006114368261140b565b9050919050565b6114468161142b565b811461145157600080fd5b50565b6000813590506114638161143d565b92915050565b600080604083850312156114805761147f6113cb565b5b600061148e858286016113f6565b925050602061149f85828601611454565b9150509250929050565b60008115159050919050565b6114be816114a9565b82525050565b60006020820190506114d960008301846114b5565b92915050565b6000602082840312156114f5576114f46113cb565b5b6000611503848285016113f6565b91505092915050565b6115158161142b565b82525050565b6000602082019050611530600083018461150c565b92915050565b61153f816113d5565b82525050565b600081519050919050565b600082825260208201905092915050565b60005b8381101561157f578082015181840152602081019050611564565b60008484015250505050565b6000601f19601f8301169050919050565b60006115a782611545565b6115b18185611550565b93506115c1818560208601611561565b6115ca8161158b565b840191505092915050565b600060a0820190506115ea600083018861150c565b6115f76020830187611536565b8181036040830152611609818661159c565b905061161860608301856114b5565b6116256080830184611536565b9695505050505050565b600060208284031215611645576116446113cb565b5b600061165384828501611454565b91505092915050565b60006020820190506116716000830184611536565b92915050565b600080fd5b600080fd5b7f4e487b7100000000000000000000000000000000000000000000000000000000600052604160045260246000fd5b6116b98261158b565b810181811067ffffffffffffffff821117156116d8576116d7611681565b5b80604052505050565b60006116eb6113c1565b90506116f782826116b0565b919050565b600067ffffffffffffffff82111561171757611716611681565b5b6117208261158b565b9050602081019050919050565b82818337600083830152505050565b600061174f61174a846116fc565b6116e1565b90508281526020810184848401111561176b5761176a61167c565b5b61177684828561172d565b509392505050565b600082601f83011261179357611792611677565b5b81356117a384826020860161173c565b91505092915050565b6000806000606084860312156117c5576117c46113cb565b5b60006117d386828701611454565b93505060206117e4868287016113f6565b925050604084013567ffffffffffffffff811115611805576118046113d0565b5b6118118682870161177e565b9150509250925092565b600081519050919050565b600082825260208201905092915050565b6000819050602082019050919050565b6118508161142b565b82525050565b60006118628383611847565b60208301905092915050565b6000602082019050919050565b60006118868261181b565b6118908185611826565b935061189b83611837565b8060005b838110156118cc5781516118b38882611856565b97506118be8361186e565b92505060018101905061189f565b5085935050505092915050565b600060208201905081810360008301526118f3818461187b565b905092915050565b6000819050919050565b600061192061191b6119168461140b565b6118fb565b61140b565b9050919050565b600061193282611905565b9050919050565b600061194482611927565b9050919050565b61195481611939565b82525050565b600060208201905061196f600083018461194b565b92915050565b7f4e487b7100000000000000000000000000000000000000000000000000000000600052603260045260246000fd5b7f4e487b7100000000000000000000000000000000000000000000000000000000600052601160045260246000fd5b60006119de826113d5565b91506119e9836113d5565b9250828201905080821115611a0157611a006119a4565b5b92915050565b6000611a12826113d5565b9150611a1d836113d5565b9250828203905081811115611a3557611a346119a4565b5b92915050565b6000606082019050611a50600083018661150c565b611a5d602083018561150c565b611a6a6040830184611536565b949350505050565b611a7b816114a9565b8114611a8657600080fd5b50565b600081519050611a9881611a72565b92915050565b600060208284031215611ab457611ab36113cb565b5b6000611ac284828501611a89565b91505092915050565b600081519050611ada816113df565b92915050565b600060208284031215611af657611af56113cb565b5b6000611b0484828501611acb565b91505092915050565b6000604082019050611b226000830185611536565b611b2f6020830184611536565b9392505050565b6000604082019050611b4b600083018561150c565b611b586020830184611536565b9392505050565b7f4e487b7100000000000000000000000000000000000000000000000000000000600052602260045260246000fd5b60006002820490506001821680611ba657607f821691505b602082108103611bb957611bb8611b5f565b5b50919050565b60008190508160005260206000209050919050565b60006020601f8301049050919050565b600082821b905092915050565b600060088302611c217fffffffffffffffffffffffffffffffffffffffffffffffffffffffffffffffff82611be4565b611c2b8683611be4565b95508019841693508086168417925050509392505050565b6000611c5e611c59611c54846113d5565b6118fb565b6113d5565b9050919050565b6000819050919050565b611c7883611c43565b611c8c611c8482611c65565b848454611bf1565b825550505050565b600090565b611ca1611c94565b611cac818484611c6f565b505050565b5b81811015611cd057611cc5600082611c99565b600181019050611cb2565b5050565b601f821115611d1557611ce681611bbf565b611cef84611bd4565b81016020851015611cfe578190505b611d12611d0a85611bd4565b830182611cb1565b50505b505050565b600082821c905092915050565b6000611d3860001984600802611d1a565b1980831691505092915050565b6000611d518383611d27565b9150826002028217905092915050565b611d6a82611545565b67ffffffffffffffff811115611d8357611d82611681565b5b611d8d8254611b8e565b611d98828285611cd4565b600060209050601f831160018114611dcb5760008415611db9578287015190505b611dc38582611d45565b865550611e2b565b601f198416611dd986611bbf565b60005b82811015611e0157848901518255600182019150602085019450602081019050611ddc565b86831015611e1e5784890151611e1a601f891682611d27565b8355505b6001600288020188555050505b505050505050565b6000604082019050611e486000830185611536565b8181036020830152611e5a818461159c565b9050939250505056fea26469706673582212201d5b34f13eb207583c69a36e943bb0afd0bea6396769088222db0f5987f60ea864736f6c634300081c0033a264697066735822122079bc7ffd1ca6cd605beaf3c56ad76cacb211ad847011f518ee59b5b4c2f0ed4564736f6c634300081c0033",
  "linkReferences": {},
  "deployedLinkReferences": {}
}