{
  "_format": "hh-sol-artifact-1",
  "contractName": "ClassRegister",
  "sourceName": "contracts/ClassRegister.sol",
  "abi": [
    {
      "inputs": [],
      "stateMutability": "nonpayable",
      "type": "constructor"
    },
    {
      "inputs": [],
      "name": "admin",
      "outputs": [
        {
          "internalType": "address",
          "name": "",
          "type": "address"
        }
      ],
      "stateMutability": "view",
      "type": "function"
    },
    {
      "inputs": [],
      "name": "allStudents",
      "outputs": [
        {
          "components": [
            {
              "internalType": "uint256",
              "name": "id",
              "type": "uint256"
            },
            {
              "internalType": "string",
              "name": "name",
              "type": "string"
            },
            {
              "internalType": "bool",
              "name": "deleted",
              "type": "bool"
            }
          ],
          "internalType": "struct ClassRegister.Student[]",
          "name": "",
          "type": "tuple[]"
        }
      ],
      "stateMutability": "view",
      "type": "function"
    },
    {
      "inputs": [
        {
          "internalType": "uint256",
          "name": "_id",
          "type": "uint256"
        }
      ],
      "name": "deleteStudent",
      "outputs": [],
      "stateMutability": "nonpayable",
      "type": "function"
    },
    {
      "inputs": [
        {
          "internalType": "string",
          "name": "name",
          "type": "string"
        }
      ],
      "name": "registerStudent",
      "outputs": [],
      "stateMutability": "nonpayable",
      "type": "function"
    },
    {
      "inputs": [
        {
          "internalType": "uint256",
          "name": "",
          "type": "uint256"
        }
      ],
      "name": "students",
      "outputs": [
        {
          "internalType": "uint256",
          "name": "id",
          "type": "uint256"
        },
        {
          "internalType": "string",
          "name": "name",
          "type": "string"
        },
        {
          "internalType": "bool",
          "name": "deleted",
          "type": "bool"
        }
      ],
      "stateMutability": "view",
      "type": "function"
    }
  ],
  "bytecode": "0x6080604052348015600f57600080fd5b50336000806101000a81548173ffffffffffffffffffffffffffffffffffffffff021916908373ffffffffffffffffffffffffffffffffffffffff160217905550610ff18061005f6000396000f3fe608060405234801561001057600080fd5b50600436106100575760003560e01c806306ead22e1461005c57806371e174451461008e578063b645307d146100aa578063bde6fc57146100c6578063f851a440146100e4575b600080fd5b61007660048036038101906100719190610761565b610102565b60405161008593929190610848565b60405180910390f35b6100a860048036038101906100a391906108eb565b6101c1565b005b6100c460048036038101906100bf9190610761565b610352565b005b6100ce610476565b6040516100db9190610ab2565b60405180910390f35b6100ec6106da565b6040516100f99190610b15565b60405180910390f35b600260205280600052604060002060009150905080600001549080600101805461012b90610b5f565b80601f016020809104026020016040519081016040528092919081815260200182805461015790610b5f565b80156101a45780601f10610179576101008083540402835291602001916101a4565b820191906000526020600020905b81548152906001019060200180831161018757829003601f168201915b5050505050908060020160009054906101000a900460ff16905083565b60008054906101000a900473ffffffffffffffffffffffffffffffffffffffff1673ffffffffffffffffffffffffffffffffffffffff163373ffffffffffffffffffffffffffffffffffffffff161461024f576040517f08c379a000000000000000000000000000000000000000000000000000000000815260040161024690610bdc565b60405180910390fd5b6040518060600160405280600154815260200183838080601f016020809104026020016040519081016040528093929190818152602001838380828437600081840152601f19601f820116905080830192505050505050508152602001600015158152506002600060015481526020019081526020016000206000820151816000015560208201518160010190816102e79190610dd7565b5060408201518160020160006101000a81548160ff021916908315150217905550905050600360015490806001815401808255809150506001900390600052602060002001600090919091909150556001600081548092919061034990610ed8565b91905055505050565b60008054906101000a900473ffffffffffffffffffffffffffffffffffffffff1673ffffffffffffffffffffffffffffffffffffffff163373ffffffffffffffffffffffffffffffffffffffff16146103e0576040517f08c379a00000000000000000000000000000000000000000000000000000000081526004016103d790610bdc565b60405180910390fd5b6002600082815260200190815260200160002060020160009054906101000a900460ff1615610444576040517f08c379a000000000000000000000000000000000000000000000000000000000815260040161043b90610f6c565b60405180910390fd5b60016002600083815260200190815260200160002060020160006101000a81548160ff02191690831515021790555050565b6060600080600090505b6003805490508110156104ef5760026000600383815481106104a5576104a4610f8c565b5b9060005260206000200154815260200190815260200160002060020160009054906101000a900460ff166104e25781806104de90610ed8565b9250505b8080600101915050610480565b5060008167ffffffffffffffff81111561050c5761050b610bfc565b5b60405190808252806020026020018201604052801561054557816020015b6105326106fe565b81526020019060019003908161052a5790505b509050600080600090505b6003805490508110156106d057600260006003838154811061057557610574610f8c565b5b9060005260206000200154815260200190815260200160002060020160009054906101000a900460ff166106c35760026000600383815481106105bb576105ba610f8c565b5b90600052602060002001548152602001908152602001600020604051806060016040529081600082015481526020016001820180546105f990610b5f565b80601f016020809104026020016040519081016040528092919081815260200182805461062590610b5f565b80156106725780601f1061064757610100808354040283529160200191610672565b820191906000526020600020905b81548152906001019060200180831161065557829003601f168201915b505050505081526020016002820160009054906101000a900460ff1615151515815250508383815181106106a9576106a8610f8c565b5b602002602001018190525081806106bf90610ed8565b9250505b8080600101915050610550565b5081935050505090565b60008054906101000a900473ffffffffffffffffffffffffffffffffffffffff1681565b604051806060016040528060008152602001606081526020016000151581525090565b600080fd5b600080fd5b6000819050919050565b61073e8161072b565b811461074957600080fd5b50565b60008135905061075b81610735565b92915050565b60006020828403121561077757610776610721565b5b60006107858482850161074c565b91505092915050565b6107978161072b565b82525050565b600081519050919050565b600082825260208201905092915050565b60005b838110156107d75780820151818401526020810190506107bc565b60008484015250505050565b6000601f19601f8301169050919050565b60006107ff8261079d565b61080981856107a8565b93506108198185602086016107b9565b610822816107e3565b840191505092915050565b60008115159050919050565b6108428161082d565b82525050565b600060608201905061085d600083018661078e565b818103602083015261086f81856107f4565b905061087e6040830184610839565b949350505050565b600080fd5b600080fd5b600080fd5b60008083601f8401126108ab576108aa610886565b5b8235905067ffffffffffffffff8111156108c8576108c761088b565b5b6020830191508360018202830111156108e4576108e3610890565b5b9250929050565b6000806020838503121561090257610901610721565b5b600083013567ffffffffffffffff8111156109205761091f610726565b5b61092c85828601610895565b92509250509250929050565b600081519050919050565b600082825260208201905092915050565b6000819050602082019050919050565b61096d8161072b565b82525050565b600082825260208201905092915050565b600061098f8261079d565b6109998185610973565b93506109a98185602086016107b9565b6109b2816107e3565b840191505092915050565b6109c68161082d565b82525050565b60006060830160008301516109e46000860182610964565b50602083015184820360208601526109fc8282610984565b9150506040830151610a1160408601826109bd565b508091505092915050565b6000610a2883836109cc565b905092915050565b6000602082019050919050565b6000610a4882610938565b610a528185610943565b935083602082028501610a6485610954565b8060005b85811015610aa05784840389528151610a818582610a1c565b9450610a8c83610a30565b925060208a01995050600181019050610a68565b50829750879550505050505092915050565b60006020820190508181036000830152610acc8184610a3d565b905092915050565b600073ffffffffffffffffffffffffffffffffffffffff82169050919050565b6000610aff82610ad4565b9050919050565b610b0f81610af4565b82525050565b6000602082019050610b2a6000830184610b06565b92915050565b7f4e487b7100000000000000000000000000000000000000000000000000000000600052602260045260246000fd5b60006002820490506001821680610b7757607f821691505b602082108103610b8a57610b89610b30565b5b50919050565b7f4e6f7420616e2061646d696e0000000000000000000000000000000000000000600082015250565b6000610bc6600c836107a8565b9150610bd182610b90565b602082019050919050565b60006020820190508181036000830152610bf581610bb9565b9050919050565b7f4e487b7100000000000000000000000000000000000000000000000000000000600052604160045260246000fd5b60008190508160005260206000209050919050565b60006020601f8301049050919050565b600082821b905092915050565b600060088302610c8d7fffffffffffffffffffffffffffffffffffffffffffffffffffffffffffffffff82610c50565b610c978683610c50565b95508019841693508086168417925050509392505050565b6000819050919050565b6000610cd4610ccf610cca8461072b565b610caf565b61072b565b9050919050565b6000819050919050565b610cee83610cb9565b610d02610cfa82610cdb565b848454610c5d565b825550505050565b600090565b610d17610d0a565b610d22818484610ce5565b505050565b5b81811015610d4657610d3b600082610d0f565b600181019050610d28565b5050565b601f821115610d8b57610d5c81610c2b565b610d6584610c40565b81016020851015610d74578190505b610d88610d8085610c40565b830182610d27565b50505b505050565b600082821c905092915050565b6000610dae60001984600802610d90565b1980831691505092915050565b6000610dc78383610d9d565b9150826002028217905092915050565b610de08261079d565b67ffffffffffffffff811115610df957610df8610bfc565b5b610e038254610b5f565b610e0e828285610d4a565b600060209050601f831160018114610e415760008415610e2f578287015190505b610e398582610dbb565b865550610ea1565b601f198416610e4f86610c2b565b60005b82811015610e7757848901518255600182019150602085019450602081019050610e52565b86831015610e945784890151610e90601f891682610d9d565b8355505b6001600288020188555050505b505050505050565b7f4e487b7100000000000000000000000000000000000000000000000000000000600052601160045260246000fd5b6000610ee38261072b565b91507fffffffffffffffffffffffffffffffffffffffffffffffffffffffffffffffff8203610f1557610f14610ea9565b5b600182019050919050565b7f53747564656e7420616c72656164792064656c65746564000000000000000000600082015250565b6000610f566017836107a8565b9150610f6182610f20565b602082019050919050565b60006020820190508181036000830152610f8581610f49565b9050919050565b7f4e487b7100000000000000000000000000000000000000000000000000000000600052603260045260246000fdfea26469706673582212206ac3050f4a4e180616110192799bdd99566d78dfb549e7d6fc26485deab327c764736f6c634300081c0033",
  "linkReferences": {},
  "deployedLinkReferences": {}
}