{
  "_format": "hh-sol-artifact-1",
  "contractName": "CompanyMultiSigners",
  "sourceName": "contracts/Company.sol",
  "abi": [
    {
      "inputs": [
        {
          "internalType": "address[]",
          "name": "_boardMembers",
          "type": "address[]"
        },
        {
          "internalType": "uint256",
          "name": "_requiredSignatures",
          "type": "uint256"
        },
        {
          "internalType": "address",
          "name": "_tokenAddress",
          "type": "address"
        }
      ],
      "stateMutability": "nonpayable",
      "type": "constructor"
    },
    {
      "inputs": [],
      "name": "AlreadyABoardMember",
      "type": "error"
    },
    {
      "inputs": [],
      "name": "BoardMembersRequired",
      "type": "error"
    },
    {
      "inputs": [],
      "name": "BudgetAlreadyReleased",
      "type": "error"
    },
    {
      "inputs": [],
      "name": "BudgetAlreadySigned",
      "type": "error"
    },
    {
      "inputs": [],
      "name": "BudgetNotFound",
      "type": "error"
    },
    {
      "inputs": [],
      "name": "BudgetNotFullySigned",
      "type": "error"
    },
    {
      "inputs": [],
      "name": "InsufficientBalance",
      "type": "error"
    },
    {
      "inputs": [],
      "name": "InvalidAddress",
      "type": "error"
    },
    {
      "inputs": [],
      "name": "NotABoardMember",
      "type": "error"
    },
    {
      "inputs": [],
      "name": "RequiredSignaturesTooHigh",
      "type": "error"
    },
    {
      "inputs": [],
      "name": "TransferFailed",
      "type": "error"
    },
    {
      "inputs": [
        {
          "internalType": "uint256",
          "name": "",
          "type": "uint256"
        }
      ],
      "name": "boardMembers",
      "outputs": [
        {
          "internalType": "address",
          "name": "",
          "type": "address"
        }
      ],
      "stateMutability": "view",
      "type": "function"
    },
    {
      "inputs": [],
      "name": "budgetCount",
      "outputs": [
        {
          "internalType": "uint256",
          "name": "",
          "type": "uint256"
        }
      ],
      "stateMutability": "view",
      "type": "function"
    },
    {
      "inputs": [
        {
          "internalType": "uint256",
          "name": "",
          "type": "uint256"
        }
      ],
      "name": "budgets",
      "outputs": [
        {
          "internalType": "string",
          "name": "name",
          "type": "string"
        },
        {
          "internalType": "string",
          "name": "description",
          "type": "string"
        },
        {
          "internalType": "uint256",
          "name": "amount",
          "type": "uint256"
        },
        {
          "internalType": "uint256",
          "name": "signedCount",
          "type": "uint256"
        },
        {
          "internalType": "bool",
          "name": "isReleased",
          "type": "bool"
        },
        {
          "internalType": "address",
          "name": "recipient",
          "type": "address"
        }
      ],
      "stateMutability": "view",
      "type": "function"
    },
    {
      "inputs": [
        {
          "internalType": "string",
          "name": "_name",
          "type": "string"
        },
        {
          "internalType": "string",
          "name": "_description",
          "type": "string"
        },
        {
          "internalType": "uint256",
          "name": "_amount",
          "type": "uint256"
        },
        {
          "internalType": "address",
          "name": "_recipient",
          "type": "address"
        }
      ],
      "name": "createBudget",
      "outputs": [],
      "stateMutability": "nonpayable",
      "type": "function"
    },
    {
      "inputs": [
        {
          "internalType": "uint256",
          "name": "amount",
          "type": "uint256"
        }
      ],
      "name": "depositFunds",
      "outputs": [],
      "stateMutability": "nonpayable",
      "type": "function"
    },
    {
      "inputs": [],
      "name": "getContractBalance",
      "outputs": [
        {
          "internalType": "uint256",
          "name": "",
          "type": "uint256"
        }
      ],
      "stateMutability": "view",
      "type": "function"
    },
    {
      "inputs": [
        {
          "internalType": "uint256",
          "name": "budgetId",
          "type": "uint256"
        }
      ],
      "name": "getSignedCount",
      "outputs": [
        {
          "internalType": "uint256",
          "name": "",
          "type": "uint256"
        }
      ],
      "stateMutability": "view",
      "type": "function"
    },
    {
      "inputs": [
        {
          "internalType": "address",
          "name": "",
          "type": "address"
        }
      ],
      "name": "isBoardMember",
      "outputs": [
        {
          "internalType": "bool",
          "name": "",
          "type": "bool"
        }
      ],
      "stateMutability": "view",
      "type": "function"
    },
    {
      "inputs": [
        {
          "internalType": "uint256",
          "name": "budgetId",
          "type": "uint256"
        }
      ],
      "name": "releaseFunds",
      "outputs": [],
      "stateMutability": "nonpayable",
      "type": "function"
    },
    {
      "inputs": [],
      "name": "requiredSignatures",
      "outputs": [
        {
          "internalType": "uint256",
          "name": "",
          "type": "uint256"
        }
      ],
      "stateMutability": "view",
      "type": "function"
    },
    {
      "inputs": [
        {
          "internalType": "uint256",
          "name": "budgetId",
          "type": "uint256"
        }
      ],
      "name": "signBudget",
      "outputs": [],
      "stateMutability": "nonpayable",
      "type": "function"
    },
    {
      "inputs": [
        {
          "internalType": "uint256",
          "name": "",
          "type": "uint256"
        },
        {
          "internalType": "address",
          "name": "",
          "type": "address"
        }
      ],
      "name": "signed",
      "outputs": [
        {
          "internalType": "bool",
          "name": "",
          "type": "bool"
        }
      ],
      "stateMutability": "view",
      "type": "function"
    },
    {
      "inputs": [],
      "name": "token",
      "outputs": [
        {
          "internalType": "contract IERC20",
          "name": "",
          "type": "address"
        }
      ],
      "stateMutability": "view",
      "type": "function"
    }
  ],
  "bytecode": "0x608060405234801561001057600080fd5b50604051611ebe380380611ebe833981810160405281019061003291906104d7565b600083510361006d576040517fefed62ad00000000000000000000000000000000000000000000000000000000815260040160405180910390fd5b82518211156100a8576040517f5c411f7000000000000000000000000000000000000000000000000000000000815260040160405180910390fd5b60005b83518110156102865760008482815181106100c9576100c8610546565b5b60200260200101519050600073ffffffffffffffffffffffffffffffffffffffff168173ffffffffffffffffffffffffffffffffffffffff1603610139576040517fe6c4247b00000000000000000000000000000000000000000000000000000000815260040160405180910390fd5b600360008273ffffffffffffffffffffffffffffffffffffffff1673ffffffffffffffffffffffffffffffffffffffff16815260200190815260200160002060009054906101000a900460ff16156101bd576040517f23430cde00000000000000000000000000000000000000000000000000000000815260040160405180910390fd5b6001600360008373ffffffffffffffffffffffffffffffffffffffff1673ffffffffffffffffffffffffffffffffffffffff16815260200190815260200160002060006101000a81548160ff0219169083151502179055506001819080600181540180825580915050600190039060005260206000200160009091909190916101000a81548173ffffffffffffffffffffffffffffffffffffffff021916908373ffffffffffffffffffffffffffffffffffffffff1602179055505080806001019150506100ab565b5081600281905550806000806101000a81548173ffffffffffffffffffffffffffffffffffffffff021916908373ffffffffffffffffffffffffffffffffffffffff160217905550505050610575565b6000604051905090565b600080fd5b600080fd5b600080fd5b6000601f19601f8301169050919050565b7f4e487b7100000000000000000000000000000000000000000000000000000000600052604160045260246000fd5b610338826102ef565b810181811067ffffffffffffffff8211171561035757610356610300565b5b80604052505050565b600061036a6102d6565b9050610376828261032f565b919050565b600067ffffffffffffffff82111561039657610395610300565b5b602082029050602081019050919050565b600080fd5b600073ffffffffffffffffffffffffffffffffffffffff82169050919050565b60006103d7826103ac565b9050919050565b6103e7816103cc565b81146103f257600080fd5b50565b600081519050610404816103de565b92915050565b600061041d6104188461037b565b610360565b905080838252602082019050602084028301858111156104405761043f6103a7565b5b835b81811015610469578061045588826103f5565b845260208401935050602081019050610442565b5050509392505050565b600082601f830112610488576104876102ea565b5b815161049884826020860161040a565b91505092915050565b6000819050919050565b6104b4816104a1565b81146104bf57600080fd5b50565b6000815190506104d1816104ab565b92915050565b6000806000606084860312156104f0576104ef6102e0565b5b600084015167ffffffffffffffff81111561050e5761050d6102e5565b5b61051a86828701610473565b935050602061052b868287016104c2565b925050604061053c868287016103f5565b9150509250925092565b7f4e487b7100000000000000000000000000000000000000000000000000000000600052603260045260246000fd5b61193a806105846000396000f3fe608060405234801561001057600080fd5b50600436106100cf5760003560e01c806371942a011161008c5780638d068043116100665780638d06804314610229578063bdaa455314610247578063f51220b814610277578063fc0c546a14610293576100cf565b806371942a01146101ad57806379bad18c146101dd5780637b5d6537146101f9576100cf565b80630a3e6fc2146100d45780632a892ea9146100f25780633b76594d146101225780634d68282f1461013e57806369f0e05f1461015a5780636f9fb98a1461018f575b600080fd5b6100dc6102b1565b6040516100e99190610f23565b60405180910390f35b61010c60048036038101906101079190610f7e565b6102b7565b6040516101199190610fec565b60405180910390f35b61013c60048036038101906101379190610f7e565b6102f6565b005b61015860048036038101906101539190610f7e565b6103d8565b005b610174600480360381019061016f9190610f7e565b610768565b604051610186969594939291906110b2565b60405180910390f35b6101976108f1565b6040516101a49190610f23565b60405180910390f35b6101c760048036038101906101c2919061114d565b610993565b6040516101d4919061117a565b60405180910390f35b6101f760048036038101906101f29190610f7e565b6109b3565b005b610213600480360381019061020e9190610f7e565b610c20565b6040516102209190610f23565b60405180910390f35b610231610c8f565b60405161023e9190610f23565b60405180910390f35b610261600480360381019061025c9190611195565b610c95565b60405161026e919061117a565b60405180910390f35b610291600480360381019061028c919061130a565b610cc4565b005b61029b610ee6565b6040516102a89190611408565b60405180910390f35b60065481565b600181815481106102c757600080fd5b906000526020600020016000915054906101000a900473ffffffffffffffffffffffffffffffffffffffff1681565b60008054906101000a900473ffffffffffffffffffffffffffffffffffffffff1673ffffffffffffffffffffffffffffffffffffffff166323b872dd3330846040518463ffffffff1660e01b815260040161035393929190611423565b6020604051808303816000875af1158015610372573d6000803e3d6000fd5b505050506040513d601f19601f820116820180604052508101906103969190611486565b6103d5576040517f08c379a00000000000000000000000000000000000000000000000000000000081526004016103cc906114ff565b60405180910390fd5b50565b600360003373ffffffffffffffffffffffffffffffffffffffff1673ffffffffffffffffffffffffffffffffffffffff16815260200190815260200160002060009054906101000a900460ff1661045b576040517f2608e3ae00000000000000000000000000000000000000000000000000000000815260040160405180910390fd5b80600480549050811061049a576040517fcdc7968400000000000000000000000000000000000000000000000000000000815260040160405180910390fd5b81600481815481106104af576104ae61151f565b5b906000526020600020906005020160040160009054906101000a900460ff1615610505576040517f3d0f873800000000000000000000000000000000000000000000000000000000815260040160405180910390fd5b60006004848154811061051b5761051a61151f565b5b906000526020600020906005020190506002548160030154101561056b576040517f2d51359200000000000000000000000000000000000000000000000000000000815260040160405180910390fd5b806002015460008054906101000a900473ffffffffffffffffffffffffffffffffffffffff1673ffffffffffffffffffffffffffffffffffffffff166370a08231306040518263ffffffff1660e01b81526004016105c99190610fec565b602060405180830381865afa1580156105e6573d6000803e3d6000fd5b505050506040513d601f19601f8201168201806040525081019061060a9190611563565b1015610642576040517ff4d678b800000000000000000000000000000000000000000000000000000000815260040160405180910390fd5b60018160040160006101000a81548160ff02191690831515021790555060008060009054906101000a900473ffffffffffffffffffffffffffffffffffffffff1673ffffffffffffffffffffffffffffffffffffffff1663a9059cbb8360040160019054906101000a900473ffffffffffffffffffffffffffffffffffffffff1684600201546040518363ffffffff1660e01b81526004016106e5929190611590565b6020604051808303816000875af1158015610704573d6000803e3d6000fd5b505050506040513d601f19601f820116820180604052508101906107289190611486565b905080610761576040517f90b8ec1800000000000000000000000000000000000000000000000000000000815260040160405180910390fd5b5050505050565b6004818154811061077857600080fd5b906000526020600020906005020160009150905080600001805461079b906115e8565b80601f01602080910402602001604051908101604052809291908181526020018280546107c7906115e8565b80156108145780601f106107e957610100808354040283529160200191610814565b820191906000526020600020905b8154815290600101906020018083116107f757829003601f168201915b505050505090806001018054610829906115e8565b80601f0160208091040260200160405190810160405280929190818152602001828054610855906115e8565b80156108a25780601f10610877576101008083540402835291602001916108a2565b820191906000526020600020905b81548152906001019060200180831161088557829003601f168201915b5050505050908060020154908060030154908060040160009054906101000a900460ff16908060040160019054906101000a900473ffffffffffffffffffffffffffffffffffffffff16905086565b60008060009054906101000a900473ffffffffffffffffffffffffffffffffffffffff1673ffffffffffffffffffffffffffffffffffffffff166370a08231306040518263ffffffff1660e01b815260040161094d9190610fec565b602060405180830381865afa15801561096a573d6000803e3d6000fd5b505050506040513d601f19601f8201168201806040525081019061098e9190611563565b905090565b60036020528060005260406000206000915054906101000a900460ff1681565b600360003373ffffffffffffffffffffffffffffffffffffffff1673ffffffffffffffffffffffffffffffffffffffff16815260200190815260200160002060009054906101000a900460ff16610a36576040517f2608e3ae00000000000000000000000000000000000000000000000000000000815260040160405180910390fd5b806004805490508110610a75576040517fcdc7968400000000000000000000000000000000000000000000000000000000815260040160405180910390fd5b816005600082815260200190815260200160002060003373ffffffffffffffffffffffffffffffffffffffff1673ffffffffffffffffffffffffffffffffffffffff16815260200190815260200160002060009054906101000a900460ff1615610b0b576040517ffb324bb600000000000000000000000000000000000000000000000000000000815260040160405180910390fd5b8260048181548110610b2057610b1f61151f565b5b906000526020600020906005020160040160009054906101000a900460ff1615610b76576040517f3d0f873800000000000000000000000000000000000000000000000000000000815260040160405180910390fd5b60016005600086815260200190815260200160002060003373ffffffffffffffffffffffffffffffffffffffff1673ffffffffffffffffffffffffffffffffffffffff16815260200190815260200160002060006101000a81548160ff02191690831515021790555060048481548110610bf357610bf261151f565b5b90600052602060002090600502016003016000815480929190610c1590611648565b919050555050505050565b6000816004805490508110610c61576040517fcdc7968400000000000000000000000000000000000000000000000000000000815260040160405180910390fd5b60048381548110610c7557610c7461151f565b5b906000526020600020906005020160030154915050919050565b60025481565b60056020528160005260406000206020528060005260406000206000915091509054906101000a900460ff1681565b600360003373ffffffffffffffffffffffffffffffffffffffff1673ffffffffffffffffffffffffffffffffffffffff16815260200190815260200160002060009054906101000a900460ff16610d47576040517f2608e3ae00000000000000000000000000000000000000000000000000000000815260040160405180910390fd5b600073ffffffffffffffffffffffffffffffffffffffff168173ffffffffffffffffffffffffffffffffffffffff1603610dad576040517fe6c4247b00000000000000000000000000000000000000000000000000000000815260040160405180910390fd5b60046040518060c00160405280868152602001858152602001848152602001600081526020016000151581526020018373ffffffffffffffffffffffffffffffffffffffff1681525090806001815401808255809150506001900390600052602060002090600502016000909190919091506000820151816000019081610e349190611832565b506020820151816001019081610e4a9190611832565b50604082015181600201556060820151816003015560808201518160040160006101000a81548160ff02191690831515021790555060a08201518160040160016101000a81548173ffffffffffffffffffffffffffffffffffffffff021916908373ffffffffffffffffffffffffffffffffffffffff160217905550505060066000815480929190610edb90611648565b919050555050505050565b60008054906101000a900473ffffffffffffffffffffffffffffffffffffffff1681565b6000819050919050565b610f1d81610f0a565b82525050565b6000602082019050610f386000830184610f14565b92915050565b6000604051905090565b600080fd5b600080fd5b610f5b81610f0a565b8114610f6657600080fd5b50565b600081359050610f7881610f52565b92915050565b600060208284031215610f9457610f93610f48565b5b6000610fa284828501610f69565b91505092915050565b600073ffffffffffffffffffffffffffffffffffffffff82169050919050565b6000610fd682610fab565b9050919050565b610fe681610fcb565b82525050565b60006020820190506110016000830184610fdd565b92915050565b600081519050919050565b600082825260208201905092915050565b60005b83811015611041578082015181840152602081019050611026565b60008484015250505050565b6000601f19601f8301169050919050565b600061106982611007565b6110738185611012565b9350611083818560208601611023565b61108c8161104d565b840191505092915050565b60008115159050919050565b6110ac81611097565b82525050565b600060c08201905081810360008301526110cc818961105e565b905081810360208301526110e0818861105e565b90506110ef6040830187610f14565b6110fc6060830186610f14565b61110960808301856110a3565b61111660a0830184610fdd565b979650505050505050565b61112a81610fcb565b811461113557600080fd5b50565b60008135905061114781611121565b92915050565b60006020828403121561116357611162610f48565b5b600061117184828501611138565b91505092915050565b600060208201905061118f60008301846110a3565b92915050565b600080604083850312156111ac576111ab610f48565b5b60006111ba85828601610f69565b92505060206111cb85828601611138565b9150509250929050565b600080fd5b600080fd5b7f4e487b7100000000000000000000000000000000000000000000000000000000600052604160045260246000fd5b6112178261104d565b810181811067ffffffffffffffff82111715611236576112356111df565b5b80604052505050565b6000611249610f3e565b9050611255828261120e565b919050565b600067ffffffffffffffff821115611275576112746111df565b5b61127e8261104d565b9050602081019050919050565b82818337600083830152505050565b60006112ad6112a88461125a565b61123f565b9050828152602081018484840111156112c9576112c86111da565b5b6112d484828561128b565b509392505050565b600082601f8301126112f1576112f06111d5565b5b813561130184826020860161129a565b91505092915050565b6000806000806080858703121561132457611323610f48565b5b600085013567ffffffffffffffff81111561134257611341610f4d565b5b61134e878288016112dc565b945050602085013567ffffffffffffffff81111561136f5761136e610f4d565b5b61137b878288016112dc565b935050604061138c87828801610f69565b925050606061139d87828801611138565b91505092959194509250565b6000819050919050565b60006113ce6113c96113c484610fab565b6113a9565b610fab565b9050919050565b60006113e0826113b3565b9050919050565b60006113f2826113d5565b9050919050565b611402816113e7565b82525050565b600060208201905061141d60008301846113f9565b92915050565b60006060820190506114386000830186610fdd565b6114456020830185610fdd565b6114526040830184610f14565b949350505050565b61146381611097565b811461146e57600080fd5b50565b6000815190506114808161145a565b92915050565b60006020828403121561149c5761149b610f48565b5b60006114aa84828501611471565b91505092915050565b7f4465706f736974206661696c6564000000000000000000000000000000000000600082015250565b60006114e9600e83611012565b91506114f4826114b3565b602082019050919050565b60006020820190508181036000830152611518816114dc565b9050919050565b7f4e487b7100000000000000000000000000000000000000000000000000000000600052603260045260246000fd5b60008151905061155d81610f52565b92915050565b60006020828403121561157957611578610f48565b5b60006115878482850161154e565b91505092915050565b60006040820190506115a56000830185610fdd565b6115b26020830184610f14565b9392505050565b7f4e487b7100000000000000000000000000000000000000000000000000000000600052602260045260246000fd5b6000600282049050600182168061160057607f821691505b602082108103611613576116126115b9565b5b50919050565b7f4e487b7100000000000000000000000000000000000000000000000000000000600052601160045260246000fd5b600061165382610f0a565b91507fffffffffffffffffffffffffffffffffffffffffffffffffffffffffffffffff820361168557611684611619565b5b600182019050919050565b60008190508160005260206000209050919050565b60006020601f8301049050919050565b600082821b905092915050565b6000600883026116f27fffffffffffffffffffffffffffffffffffffffffffffffffffffffffffffffff826116b5565b6116fc86836116b5565b95508019841693508086168417925050509392505050565b600061172f61172a61172584610f0a565b6113a9565b610f0a565b9050919050565b6000819050919050565b61174983611714565b61175d61175582611736565b8484546116c2565b825550505050565b600090565b611772611765565b61177d818484611740565b505050565b5b818110156117a15761179660008261176a565b600181019050611783565b5050565b601f8211156117e6576117b781611690565b6117c0846116a5565b810160208510156117cf578190505b6117e36117db856116a5565b830182611782565b50505b505050565b600082821c905092915050565b6000611809600019846008026117eb565b1980831691505092915050565b600061182283836117f8565b9150826002028217905092915050565b61183b82611007565b67ffffffffffffffff811115611854576118536111df565b5b61185e82546115e8565b6118698282856117a5565b600060209050601f83116001811461189c576000841561188a578287015190505b6118948582611816565b8655506118fc565b601f1984166118aa86611690565b60005b828110156118d2578489015182556001820191506020850194506020810190506118ad565b868310156118ef57848901516118eb601f8916826117f8565b8355505b6001600288020188555050505b50505050505056fea26469706673582212205f55e3aefefe942cbc51a38381d984e5895c82bc227e5cd62ed279bae53c93ac64736f6c634300081c0033",
  "linkReferences": {},
  "deployedLinkReferences": {}
}