{
  "_format": "hh-sol-artifact-1",
  "contractName": "EventContract",
  "sourceName": "contracts/EventContract.sol",
  "abi": [
    {
      "anonymous": false,
      "inputs": [
        {
          "indexed": true,
          "internalType": "uint256",
          "name": "eventId",
          "type": "uint256"
        },
        {
          "indexed": true,
          "internalType": "address",
          "name": "organizer",
          "type": "address"
        }
      ],
      "name": "EventCreated",
      "type": "event"
    },
    {
      "anonymous": false,
      "inputs": [
        {
          "indexed": true,
          "internalType": "uint256",
          "name": "eventId",
          "type": "uint256"
        },
        {
          "indexed": true,
          "internalType": "address",
          "name": "attendee",
          "type": "address"
        },
        {
          "indexed": false,
          "internalType": "uint256",
          "name": "tokenId",
          "type": "uint256"
        }
      ],
      "name": "TicketMinted",
      "type": "event"
    },
    {
      "anonymous": false,
      "inputs": [
        {
          "indexed": true,
          "internalType": "uint256",
          "name": "eventId",
          "type": "uint256"
        },
        {
          "indexed": true,
          "internalType": "address",
          "name": "attendee",
          "type": "address"
        },
        {
          "indexed": false,
          "internalType": "uint256",
          "name": "amount",
          "type": "uint256"
        }
      ],
      "name": "TicketPurchased",
      "type": "event"
    },
    {
      "inputs": [
        {
          "internalType": "string",
          "name": "_title",
          "type": "string"
        },
        {
          "internalType": "string",
          "name": "_desc",
          "type": "string"
        },
        {
          "internalType": "uint256",
          "name": "_startDate",
          "type": "uint256"
        },
        {
          "internalType": "uint256",
          "name": "_endDate",
          "type": "uint256"
        },
        {
          "internalType": "enum EventContract.EventType",
          "name": "_eventType",
          "type": "uint8"
        },
        {
          "internalType": "uint256",
          "name": "_ticketPrice",
          "type": "uint256"
        },
        {
          "internalType": "uint32",
          "name": "_expectedGuestCount",
          "type": "uint32"
        }
      ],
      "name": "createEvent",
      "outputs": [],
      "stateMutability": "nonpayable",
      "type": "function"
    },
    {
      "inputs": [
        {
          "internalType": "uint256",
          "name": "_eventId",
          "type": "uint256"
        },
        {
          "internalType": "string",
          "name": "_ticketName",
          "type": "string"
        },
        {
          "internalType": "string",
          "name": "_ticketSymbol",
          "type": "string"
        }
      ],
      "name": "createEventTicket",
      "outputs": [
        {
          "internalType": "address",
          "name": "",
          "type": "address"
        }
      ],
      "stateMutability": "nonpayable",
      "type": "function"
    },
    {
      "inputs": [],
      "name": "eventCount",
      "outputs": [
        {
          "internalType": "uint256",
          "name": "",
          "type": "uint256"
        }
      ],
      "stateMutability": "view",
      "type": "function"
    },
    {
      "inputs": [
        {
          "internalType": "uint256",
          "name": "",
          "type": "uint256"
        }
      ],
      "name": "events",
      "outputs": [
        {
          "internalType": "string",
          "name": "title",
          "type": "string"
        },
        {
          "internalType": "string",
          "name": "description",
          "type": "string"
        },
        {
          "internalType": "uint256",
          "name": "startDate",
          "type": "uint256"
        },
        {
          "internalType": "uint256",
          "name": "endDate",
          "type": "uint256"
        },
        {
          "internalType": "enum EventContract.EventType",
          "name": "eventType",
          "type": "uint8"
        },
        {
          "internalType": "uint256",
          "name": "ticketPrice",
          "type": "uint256"
        },
        {
          "internalType": "uint32",
          "name": "expectedGuestCount",
          "type": "uint32"
        },
        {
          "internalType": "uint32",
          "name": "registeredGuestCount",
          "type": "uint32"
        },
        {
          "internalType": "uint32",
          "name": "verifiedGuestCount",
          "type": "uint32"
        },
        {
          "internalType": "address",
          "name": "organizer",
          "type": "address"
        },
        {
          "internalType": "address",
          "name": "ticketAddress",
          "type": "address"
        }
      ],
      "stateMutability": "view",
      "type": "function"
    },
    {
      "inputs": [
        {
          "internalType": "uint256",
          "name": "eventId",
          "type": "uint256"
        }
      ],
      "name": "getRegisteredGuestCount",
      "outputs": [
        {
          "internalType": "uint32",
          "name": "",
          "type": "uint32"
        }
      ],
      "stateMutability": "view",
      "type": "function"
    },
    {
      "inputs": [
        {
          "internalType": "address",
          "name": "",
          "type": "address"
        },
        {
          "internalType": "uint256",
          "name": "",
          "type": "uint256"
        }
      ],
      "name": "hasRegistered",
      "outputs": [
        {
          "internalType": "bool",
          "name": "",
          "type": "bool"
        }
      ],
      "stateMutability": "view",
      "type": "function"
    },
    {
      "inputs": [
        {
          "internalType": "address",
          "name": "operator",
          "type": "address"
        },
        {
          "internalType": "address",
          "name": "from",
          "type": "address"
        },
        {
          "internalType": "uint256",
          "name": "tokenId",
          "type": "uint256"
        },
        {
          "internalType": "bytes",
          "name": "data",
          "type": "bytes"
        }
      ],
      "name": "onERC721Received",
      "outputs": [
        {
          "internalType": "bytes4",
          "name": "",
          "type": "bytes4"
        }
      ],
      "stateMutability": "nonpayable",
      "type": "function"
    },
    {
      "inputs": [
        {
          "internalType": "uint256",
          "name": "_eventId",
          "type": "uint256"
        }
      ],
      "name": "registerForEvent",
      "outputs": [],
      "stateMutability": "payable",
      "type": "function"
    }
  ],
  "bytecode": "0x608060405234801561001057600080fd5b50614e2d806100206000396000f3fe608060405260043610620000865760003560e01c80637115c24411620000555780637115c244146200018157806371be2e4a14620001c5578063b8a0b31a14620001f5578063ed964e7914620002235762000086565b80630b791430146200008b57806310385fc514620000d9578063150b7a02146200011d578063406db8431462000161575b600080fd5b3480156200009857600080fd5b50620000b76004803603810190620000b1919062001324565b62000267565b604051620000d09b9a99989796959493929190620014e7565b60405180910390f35b348015620000e657600080fd5b50620001056004803603810190620000ff919062001324565b6200045e565b604051620001149190620015b6565b60405180910390f35b3480156200012a57600080fd5b5062000149600480360381019062000143919062001672565b620004e2565b60405162000158919062001745565b60405180910390f35b6200017f600480360381019062000179919062001324565b620004f7565b005b3480156200018e57600080fd5b50620001ad6004803603810190620001a7919062001762565b62000b9c565b604051620001bc9190620017c6565b60405180910390f35b348015620001d257600080fd5b50620001dd62000bcb565b604051620001ec9190620017e3565b60405180910390f35b3480156200020257600080fd5b506200022160048036038101906200021b9190620019a5565b62000bd1565b005b3480156200023057600080fd5b506200024f600480360381019062000249919062001a96565b62000f7c565b6040516200025e919062001b30565b60405180910390f35b60016020528060005260406000206000915090508060000180546200028c9062001b7c565b80601f0160208091040260200160405190810160405280929190818152602001828054620002ba9062001b7c565b80156200030b5780601f10620002df576101008083540402835291602001916200030b565b820191906000526020600020905b815481529060010190602001808311620002ed57829003601f168201915b505050505090806001018054620003229062001b7c565b80601f0160208091040260200160405190810160405280929190818152602001828054620003509062001b7c565b8015620003a15780601f106200037557610100808354040283529160200191620003a1565b820191906000526020600020905b8154815290600101906020018083116200038357829003601f168201915b5050505050908060020154908060030154908060040160009054906101000a900460ff16908060050154908060060160009054906101000a900463ffffffff16908060060160049054906101000a900463ffffffff16908060060160089054906101000a900463ffffffff169080600601600c9054906101000a900473ffffffffffffffffffffffffffffffffffffffff16908060070160009054906101000a900473ffffffffffffffffffffffffffffffffffffffff1690508b565b600080821180156200047257506000548211155b620004b4576040517f08c379a0000000000000000000000000000000000000000000000000000000008152600401620004ab9062001c01565b60405180910390fd5b6001600083815260200190815260200160002060060160049054906101000a900463ffffffff169050919050565b600063150b7a0260e01b905095945050505050565b600073ffffffffffffffffffffffffffffffffffffffff163373ffffffffffffffffffffffffffffffffffffffff160362000569576040517f08c379a0000000000000000000000000000000000000000000000000000000008152600401620005609062001c73565b60405180910390fd5b6000811180156200057c57506000548111155b620005be576040517f08c379a0000000000000000000000000000000000000000000000000000000008152600401620005b59062001ce5565b60405180910390fd5b6000600160008381526020019081526020016000209050428160030154116200061e576040517f08c379a0000000000000000000000000000000000000000000000000000000008152600401620006159062001d57565b60405180910390fd5b8060060160009054906101000a900463ffffffff1663ffffffff168160060160049054906101000a900463ffffffff1663ffffffff161062000697576040517f08c379a00000000000000000000000000000000000000000000000000000000081526004016200068e9062001dc9565b60405180910390fd5b600260003373ffffffffffffffffffffffffffffffffffffffff1673ffffffffffffffffffffffffffffffffffffffff168152602001908152602001600020600083815260200190815260200160002060009054906101000a900460ff161562000738576040517f08c379a00000000000000000000000000000000000000000000000000000000081526004016200072f9062001e3b565b60405180910390fd5b60008160070160009054906101000a900473ffffffffffffffffffffffffffffffffffffffff169050600073ffffffffffffffffffffffffffffffffffffffff168173ffffffffffffffffffffffffffffffffffffffff1603620007d3576040517f08c379a0000000000000000000000000000000000000000000000000000000008152600401620007ca9062001ead565b60405180910390fd5b600081905082600601600481819054906101000a900463ffffffff1680929190620007fe9062001efe565b91906101000a81548163ffffffff021916908363ffffffff1602179055505060008360060160049054906101000a900463ffffffff1663ffffffff16905060018081111562000852576200085162001401565b5b8460040160009054906101000a900460ff16600181111562000879576200087862001401565b5b0362000a675783600501543414620008c8576040517f08c379a0000000000000000000000000000000000000000000000000000000008152600401620008bf9062001f7f565b60405180910390fd5b8173ffffffffffffffffffffffffffffffffffffffff166323b872dd3033846040518463ffffffff1660e01b8152600401620009079392919062001fa1565b600060405180830381600087803b1580156200092257600080fd5b505af115801562000937573d6000803e3d6000fd5b505050506001600260003373ffffffffffffffffffffffffffffffffffffffff1673ffffffffffffffffffffffffffffffffffffffff168152602001908152602001600020600087815260200190815260200160002060006101000a81548160ff02191690831515021790555083600601600c9054906101000a900473ffffffffffffffffffffffffffffffffffffffff1673ffffffffffffffffffffffffffffffffffffffff166108fc349081150290604051600060405180830381858888f1935050505015801562000a0f573d6000803e3d6000fd5b503373ffffffffffffffffffffffffffffffffffffffff16857fdbaaf4c87ce30816c961a81d110622a3227ede77953d4383d514ff88ab2e0fd33460405162000a599190620017e3565b60405180910390a362000b95565b8173ffffffffffffffffffffffffffffffffffffffff166323b872dd3033846040518463ffffffff1660e01b815260040162000aa69392919062001fa1565b600060405180830381600087803b15801562000ac157600080fd5b505af115801562000ad6573d6000803e3d6000fd5b505050506001600260003373ffffffffffffffffffffffffffffffffffffffff1673ffffffffffffffffffffffffffffffffffffffff168152602001908152602001600020600087815260200190815260200160002060006101000a81548160ff0219169083151502179055503373ffffffffffffffffffffffffffffffffffffffff16857f5c1c9352d51031acc9a558d7cdcca15b0ce5fe4f46d7315cca355248175b0a378360405162000b8c9190620017e3565b60405180910390a35b5050505050565b60026020528160005260406000206020528060005260406000206000915091509054906101000a900460ff1681565b60005481565b42851162000c16576040517f08c379a000000000000000000000000000000000000000000000000000000000815260040162000c0d906200202e565b60405180910390fd5b83851062000c5b576040517f08c379a000000000000000000000000000000000000000000000000000000000815260040162000c5290620020a0565b60405180910390fd5b60018081111562000c715762000c7062001401565b5b83600181111562000c875762000c8662001401565b5b0362000cd4576000821162000cd3576040517f08c379a000000000000000000000000000000000000000000000000000000000815260040162000cca9062002112565b60405180910390fd5b5b60008081548092919062000ce89062002134565b919050555060405180610160016040528088815260200187815260200186815260200185815260200184600181111562000d275762000d2662001401565b5b81526020018381526020018263ffffffff168152602001600063ffffffff168152602001600063ffffffff1681526020013373ffffffffffffffffffffffffffffffffffffffff168152602001600073ffffffffffffffffffffffffffffffffffffffff168152506001600080548152602001908152602001600020600082015181600001908162000dba919062002353565b50602082015181600101908162000dd2919062002353565b50604082015181600201556060820151816003015560808201518160040160006101000a81548160ff0219169083600181111562000e155762000e1462001401565b5b021790555060a0820151816005015560c08201518160060160006101000a81548163ffffffff021916908363ffffffff16021790555060e08201518160060160046101000a81548163ffffffff021916908363ffffffff1602179055506101008201518160060160086101000a81548163ffffffff021916908363ffffffff16021790555061012082015181600601600c6101000a81548173ffffffffffffffffffffffffffffffffffffffff021916908373ffffffffffffffffffffffffffffffffffffffff1602179055506101408201518160070160006101000a81548173ffffffffffffffffffffffffffffffffffffffff021916908373ffffffffffffffffffffffffffffffffffffffff1602179055509050503373ffffffffffffffffffffffffffffffffffffffff166000547fe43349c008949cf6b65249356e6f918d4aaa0ca79f2b1166df4a4a98c9c16de260405160405180910390a350505050505050565b6000808411801562000f9057506000548411155b62000fd2576040517f08c379a000000000000000000000000000000000000000000000000000000000815260040162000fc99062001ce5565b60405180910390fd5b600060016000868152602001908152602001600020905080600601600c9054906101000a900473ffffffffffffffffffffffffffffffffffffffff1673ffffffffffffffffffffffffffffffffffffffff163373ffffffffffffffffffffffffffffffffffffffff16146200107e576040517f08c379a000000000000000000000000000000000000000000000000000000000815260040162001075906200248a565b60405180910390fd5b600073ffffffffffffffffffffffffffffffffffffffff168160070160009054906101000a900473ffffffffffffffffffffffffffffffffffffffff1673ffffffffffffffffffffffffffffffffffffffff161462001114576040517f08c379a00000000000000000000000000000000000000000000000000000000081526004016200110b90620024fc565b60405180910390fd5b60003085856040516200112790620012c7565b62001135939291906200251e565b604051809103906000f08015801562001152573d6000803e3d6000fd5b509050808260070160006101000a81548173ffffffffffffffffffffffffffffffffffffffff021916908373ffffffffffffffffffffffffffffffffffffffff1602179055508073ffffffffffffffffffffffffffffffffffffffff1663a22cb4653060016040518363ffffffff1660e01b8152600401620011d692919062002569565b600060405180830381600087803b158015620011f157600080fd5b505af115801562001206573d6000803e3d6000fd5b505050506000600190505b8260060160009054906101000a900463ffffffff1663ffffffff168111620012ba578173ffffffffffffffffffffffffffffffffffffffff1663a144819430836040518363ffffffff1660e01b81526004016200127092919062002596565b600060405180830381600087803b1580156200128b57600080fd5b505af1158015620012a0573d6000803e3d6000fd5b505050508080620012b19062002134565b91505062001211565b5080925050509392505050565b61283480620025c483390190565b6000604051905090565b600080fd5b600080fd5b6000819050919050565b620012fe81620012e9565b81146200130a57600080fd5b50565b6000813590506200131e81620012f3565b92915050565b6000602082840312156200133d576200133c620012df565b5b60006200134d848285016200130d565b91505092915050565b600081519050919050565b600082825260208201905092915050565b60005b838110156200139257808201518184015260208101905062001375565b60008484015250505050565b6000601f19601f8301169050919050565b6000620013bc8262001356565b620013c8818562001361565b9350620013da81856020860162001372565b620013e5816200139e565b840191505092915050565b620013fb81620012e9565b82525050565b7f4e487b7100000000000000000000000000000000000000000000000000000000600052602160045260246000fd5b6002811062001444576200144362001401565b5b50565b6000819050620014578262001430565b919050565b6000620014698262001447565b9050919050565b6200147b816200145c565b82525050565b600063ffffffff82169050919050565b6200149c8162001481565b82525050565b600073ffffffffffffffffffffffffffffffffffffffff82169050919050565b6000620014cf82620014a2565b9050919050565b620014e181620014c2565b82525050565b600061016082019050818103600083015262001504818e620013af565b905081810360208301526200151a818d620013af565b90506200152b604083018c620013f0565b6200153a606083018b620013f0565b62001549608083018a62001470565b6200155860a0830189620013f0565b6200156760c083018862001491565b6200157660e083018762001491565b6200158661010083018662001491565b62001596610120830185620014d6565b620015a6610140830184620014d6565b9c9b505050505050505050505050565b6000602082019050620015cd600083018462001491565b92915050565b620015de81620014c2565b8114620015ea57600080fd5b50565b600081359050620015fe81620015d3565b92915050565b600080fd5b600080fd5b600080fd5b60008083601f8401126200162c576200162b62001604565b5b8235905067ffffffffffffffff8111156200164c576200164b62001609565b5b6020830191508360018202830111156200166b576200166a6200160e565b5b9250929050565b600080600080600060808688031215620016915762001690620012df565b5b6000620016a188828901620015ed565b9550506020620016b488828901620015ed565b9450506040620016c7888289016200130d565b935050606086013567ffffffffffffffff811115620016eb57620016ea620012e4565b5b620016f98882890162001613565b92509250509295509295909350565b60007fffffffff0000000000000000000000000000000000000000000000000000000082169050919050565b6200173f8162001708565b82525050565b60006020820190506200175c600083018462001734565b92915050565b600080604083850312156200177c576200177b620012df565b5b60006200178c85828601620015ed565b92505060206200179f858286016200130d565b9150509250929050565b60008115159050919050565b620017c081620017a9565b82525050565b6000602082019050620017dd6000830184620017b5565b92915050565b6000602082019050620017fa6000830184620013f0565b92915050565b600080fd5b7f4e487b7100000000000000000000000000000000000000000000000000000000600052604160045260246000fd5b6200183f826200139e565b810181811067ffffffffffffffff8211171562001861576200186062001805565b5b80604052505050565b600062001876620012d5565b905062001884828262001834565b919050565b600067ffffffffffffffff821115620018a757620018a662001805565b5b620018b2826200139e565b9050602081019050919050565b82818337600083830152505050565b6000620018e5620018df8462001889565b6200186a565b90508281526020810184848401111562001904576200190362001800565b5b62001911848285620018bf565b509392505050565b600082601f83011262001931576200193062001604565b5b813562001943848260208601620018ce565b91505092915050565b600281106200195a57600080fd5b50565b6000813590506200196e816200194c565b92915050565b6200197f8162001481565b81146200198b57600080fd5b50565b6000813590506200199f8162001974565b92915050565b600080600080600080600060e0888a031215620019c757620019c6620012df565b5b600088013567ffffffffffffffff811115620019e857620019e7620012e4565b5b620019f68a828b0162001919565b975050602088013567ffffffffffffffff81111562001a1a5762001a19620012e4565b5b62001a288a828b0162001919565b965050604062001a3b8a828b016200130d565b955050606062001a4e8a828b016200130d565b945050608062001a618a828b016200195d565b93505060a062001a748a828b016200130d565b92505060c062001a878a828b016200198e565b91505092959891949750929550565b60008060006060848603121562001ab25762001ab1620012df565b5b600062001ac2868287016200130d565b935050602084013567ffffffffffffffff81111562001ae65762001ae5620012e4565b5b62001af48682870162001919565b925050604084013567ffffffffffffffff81111562001b185762001b17620012e4565b5b62001b268682870162001919565b9150509250925092565b600060208201905062001b476000830184620014d6565b92915050565b7f4e487b7100000000000000000000000000000000000000000000000000000000600052602260045260246000fd5b6000600282049050600182168062001b9557607f821691505b60208210810362001bab5762001baa62001b4d565b5b50919050565b7f494e56414c4944204556454e5420494400000000000000000000000000000000600082015250565b600062001be960108362001361565b915062001bf68262001bb1565b602082019050919050565b6000602082019050818103600083015262001c1c8162001bda565b9050919050565b7f494e56414c494420414444524553530000000000000000000000000000000000600082015250565b600062001c5b600f8362001361565b915062001c688262001c23565b602082019050919050565b6000602082019050818103600083015262001c8e8162001c4c565b9050919050565b7f4556454e5420444f45534e275420455849535400000000000000000000000000600082015250565b600062001ccd60138362001361565b915062001cda8262001c95565b602082019050919050565b6000602082019050818103600083015262001d008162001cbe565b9050919050565b7f4556454e542048415320454e4445440000000000000000000000000000000000600082015250565b600062001d3f600f8362001361565b915062001d4c8262001d07565b602082019050919050565b6000602082019050818103600083015262001d728162001d30565b9050919050565b7f524547495354524154494f4e20434c4f53454400000000000000000000000000600082015250565b600062001db160138362001361565b915062001dbe8262001d79565b602082019050919050565b6000602082019050818103600083015262001de48162001da2565b9050919050565b7f414c524541445920524547495354455245440000000000000000000000000000600082015250565b600062001e2360128362001361565b915062001e308262001deb565b602082019050919050565b6000602082019050818103600083015262001e568162001e14565b9050919050565b7f5449434b4554204e4f5420435245415445440000000000000000000000000000600082015250565b600062001e9560128362001361565b915062001ea28262001e5d565b602082019050919050565b6000602082019050818103600083015262001ec88162001e86565b9050919050565b7f4e487b7100000000000000000000000000000000000000000000000000000000600052601160045260246000fd5b600062001f0b8262001481565b915063ffffffff820362001f245762001f2362001ecf565b5b600182019050919050565b7f494e53554646494349454e54205041594d454e54000000000000000000000000600082015250565b600062001f6760148362001361565b915062001f748262001f2f565b602082019050919050565b6000602082019050818103600083015262001f9a8162001f58565b9050919050565b600060608201905062001fb86000830186620014d6565b62001fc76020830185620014d6565b62001fd66040830184620013f0565b949350505050565b7f53544152542044415445204d55535420424520494e2046555455524500000000600082015250565b600062002016601c8362001361565b9150620020238262001fde565b602082019050919050565b60006020820190508181036000830152620020498162002007565b9050919050565b7f454e442044415445204d55535420424520475245415445520000000000000000600082015250565b60006200208860188362001361565b9150620020958262002050565b602082019050919050565b60006020820190508181036000830152620020bb8162002079565b9050919050565b7f50414944204556454e54204d5553542048415645204120505249434500000000600082015250565b6000620020fa601c8362001361565b91506200210782620020c2565b602082019050919050565b600060208201905081810360008301526200212d81620020eb565b9050919050565b60006200214182620012e9565b91507fffffffffffffffffffffffffffffffffffffffffffffffffffffffffffffffff820362002176576200217562001ecf565b5b600182019050919050565b60008190508160005260206000209050919050565b60006020601f8301049050919050565b600082821b905092915050565b600060088302620021e57fffffffffffffffffffffffffffffffffffffffffffffffffffffffffffffffff82620021a6565b620021f18683620021a6565b95508019841693508086168417925050509392505050565b6000819050919050565b6000620022346200222e6200222884620012e9565b62002209565b620012e9565b9050919050565b6000819050919050565b620022508362002213565b620022686200225f826200223b565b848454620021b3565b825550505050565b600090565b6200227f62002270565b6200228c81848462002245565b505050565b5b81811015620022b457620022a860008262002275565b60018101905062002292565b5050565b601f8211156200230357620022cd8162002181565b620022d88462002196565b81016020851015620022e8578190505b62002300620022f78562002196565b83018262002291565b50505b505050565b600082821c905092915050565b6000620023286000198460080262002308565b1980831691505092915050565b600062002343838362002315565b9150826002028217905092915050565b6200235e8262001356565b67ffffffffffffffff8111156200237a576200237962001805565b5b62002386825462001b7c565b62002393828285620022b8565b600060209050601f831160018114620023cb5760008415620023b6578287015190505b620023c2858262002335565b86555062002432565b601f198416620023db8662002181565b60005b828110156200240557848901518255600182019150602085019450602081019050620023de565b8683101562002425578489015162002421601f89168262002315565b8355505b6001600288020188555050505b505050505050565b7f4f4e4c59204f5247414e495a45522043414e2043524541544500000000000000600082015250565b60006200247260198362001361565b91506200247f826200243a565b602082019050919050565b60006020820190508181036000830152620024a58162002463565b9050919050565b7f5449434b455420414c5245414459204352454154454400000000000000000000600082015250565b6000620024e460168362001361565b9150620024f182620024ac565b602082019050919050565b600060208201905081810360008301526200251781620024d5565b9050919050565b6000606082019050620025356000830186620014d6565b8181036020830152620025498185620013af565b905081810360408301526200255f8184620013af565b9050949350505050565b6000604082019050620025806000830185620014d6565b6200258f6020830184620017b5565b9392505050565b6000604082019050620025ad6000830185620014d6565b620025bc6020830184620013f0565b939250505056fe60806040523480156200001157600080fd5b5060405162002834380380620028348339818101604052810190620000379190620003ae565b82828281600090816200004b919062000693565b5080600190816200005d919062000693565b505050600073ffffffffffffffffffffffffffffffffffffffff168173ffffffffffffffffffffffffffffffffffffffff1603620000d55760006040517f1e4fbdf7000000000000000000000000000000000000000000000000000000008152600401620000cc91906200078b565b60405180910390fd5b620000e681620000f060201b60201c565b50505050620007a8565b6000600660009054906101000a900473ffffffffffffffffffffffffffffffffffffffff16905081600660006101000a81548173ffffffffffffffffffffffffffffffffffffffff021916908373ffffffffffffffffffffffffffffffffffffffff1602179055508173ffffffffffffffffffffffffffffffffffffffff168173ffffffffffffffffffffffffffffffffffffffff167f8be0079c531659141344cd1fd0a4f28419497f9722a3daafe3b4186f6b6457e060405160405180910390a35050565b6000604051905090565b600080fd5b600080fd5b600073ffffffffffffffffffffffffffffffffffffffff82169050919050565b6000620001f782620001ca565b9050919050565b6200020981620001ea565b81146200021557600080fd5b50565b6000815190506200022981620001fe565b92915050565b600080fd5b600080fd5b6000601f19601f8301169050919050565b7f4e487b7100000000000000000000000000000000000000000000000000000000600052604160045260246000fd5b620002848262000239565b810181811067ffffffffffffffff82111715620002a657620002a56200024a565b5b80604052505050565b6000620002bb620001b6565b9050620002c9828262000279565b919050565b600067ffffffffffffffff821115620002ec57620002eb6200024a565b5b620002f78262000239565b9050602081019050919050565b60005b838110156200032457808201518184015260208101905062000307565b60008484015250505050565b6000620003476200034184620002ce565b620002af565b90508281526020810184848401111562000366576200036562000234565b5b6200037384828562000304565b509392505050565b600082601f8301126200039357620003926200022f565b5b8151620003a584826020860162000330565b91505092915050565b600080600060608486031215620003ca57620003c9620001c0565b5b6000620003da8682870162000218565b935050602084015167ffffffffffffffff811115620003fe57620003fd620001c5565b5b6200040c868287016200037b565b925050604084015167ffffffffffffffff81111562000430576200042f620001c5565b5b6200043e868287016200037b565b9150509250925092565b600081519050919050565b7f4e487b7100000000000000000000000000000000000000000000000000000000600052602260045260246000fd5b600060028204905060018216806200049b57607f821691505b602082108103620004b157620004b062000453565b5b50919050565b60008190508160005260206000209050919050565b60006020601f8301049050919050565b600082821b905092915050565b6000600883026200051b7fffffffffffffffffffffffffffffffffffffffffffffffffffffffffffffffff82620004dc565b620005278683620004dc565b95508019841693508086168417925050509392505050565b6000819050919050565b6000819050919050565b6000620005746200056e62000568846200053f565b62000549565b6200053f565b9050919050565b6000819050919050565b620005908362000553565b620005a86200059f826200057b565b848454620004e9565b825550505050565b600090565b620005bf620005b0565b620005cc81848462000585565b505050565b5b81811015620005f457620005e8600082620005b5565b600181019050620005d2565b5050565b601f82111562000643576200060d81620004b7565b6200061884620004cc565b8101602085101562000628578190505b620006406200063785620004cc565b830182620005d1565b50505b505050565b600082821c905092915050565b6000620006686000198460080262000648565b1980831691505092915050565b600062000683838362000655565b9150826002028217905092915050565b6200069e8262000448565b67ffffffffffffffff811115620006ba57620006b96200024a565b5b620006c6825462000482565b620006d3828285620005f8565b600060209050601f8311600181146200070b5760008415620006f6578287015190505b62000702858262000675565b86555062000772565b601f1984166200071b86620004b7565b60005b8281101562000745578489015182556001820191506020850194506020810190506200071e565b8683101562000765578489015162000761601f89168262000655565b8355505b6001600288020188555050505b505050505050565b6200078581620001ea565b82525050565b6000602082019050620007a260008301846200077a565b92915050565b61207c80620007b86000396000f3fe608060405234801561001057600080fd5b506004361061010b5760003560e01c8063715018a6116100a2578063a22cb46511610071578063a22cb465146102a4578063b88d4fde146102c0578063c87b56dd146102dc578063e985e9c51461030c578063f2fde38b1461033c5761010b565b8063715018a6146102425780638da5cb5b1461024c57806395d89b411461026a578063a1448194146102885761010b565b806323b872dd116100de57806323b872dd146101aa57806342842e0e146101c65780636352211e146101e257806370a08231146102125761010b565b806301ffc9a71461011057806306fdde0314610140578063081812fc1461015e578063095ea7b31461018e575b600080fd5b61012a600480360381019061012591906118c6565b610358565b604051610137919061190e565b60405180910390f35b61014861043a565b60405161015591906119b9565b60405180910390f35b61017860048036038101906101739190611a11565b6104cc565b6040516101859190611a7f565b60405180910390f35b6101a860048036038101906101a39190611ac6565b6104e8565b005b6101c460048036038101906101bf9190611b06565b6104fe565b005b6101e060048036038101906101db9190611b06565b610600565b005b6101fc60048036038101906101f79190611a11565b610620565b6040516102099190611a7f565b60405180910390f35b61022c60048036038101906102279190611b59565b610632565b6040516102399190611b95565b60405180910390f35b61024a6106ec565b005b610254610700565b6040516102619190611a7f565b60405180910390f35b61027261072a565b60405161027f91906119b9565b60405180910390f35b6102a2600480360381019061029d9190611ac6565b6107bc565b005b6102be60048036038101906102b99190611bdc565b6107d2565b005b6102da60048036038101906102d59190611d51565b6107e8565b005b6102f660048036038101906102f19190611a11565b61080d565b60405161030391906119b9565b60405180910390f35b61032660048036038101906103219190611dd4565b610876565b604051610333919061190e565b60405180910390f35b61035660048036038101906103519190611b59565b61090a565b005b60007f80ac58cd000000000000000000000000000000000000000000000000000000007bffffffffffffffffffffffffffffffffffffffffffffffffffffffff1916827bffffffffffffffffffffffffffffffffffffffffffffffffffffffff1916148061042357507f5b5e139f000000000000000000000000000000000000000000000000000000007bffffffffffffffffffffffffffffffffffffffffffffffffffffffff1916827bffffffffffffffffffffffffffffffffffffffffffffffffffffffff1916145b80610433575061043282610990565b5b9050919050565b60606000805461044990611e43565b80601f016020809104026020016040519081016040528092919081815260200182805461047590611e43565b80156104c25780601f10610497576101008083540402835291602001916104c2565b820191906000526020600020905b8154815290600101906020018083116104a557829003601f168201915b5050505050905090565b60006104d7826109fa565b506104e182610a82565b9050919050565b6104fa82826104f5610abf565b610ac7565b5050565b600073ffffffffffffffffffffffffffffffffffffffff168273ffffffffffffffffffffffffffffffffffffffff16036105705760006040517f64a0ae920000000000000000000000000000000000000000000000000000000081526004016105679190611a7f565b60405180910390fd5b6000610584838361057f610abf565b610ad9565b90508373ffffffffffffffffffffffffffffffffffffffff168173ffffffffffffffffffffffffffffffffffffffff16146105fa578382826040517f64283d7b0000000000000000000000000000000000000000000000000000000081526004016105f193929190611e74565b60405180910390fd5b50505050565b61061b838383604051806020016040528060008152506107e8565b505050565b600061062b826109fa565b9050919050565b60008073ffffffffffffffffffffffffffffffffffffffff168273ffffffffffffffffffffffffffffffffffffffff16036106a55760006040517f89c62b6400000000000000000000000000000000000000000000000000000000815260040161069c9190611a7f565b60405180910390fd5b600360008373ffffffffffffffffffffffffffffffffffffffff1673ffffffffffffffffffffffffffffffffffffffff168152602001908152602001600020549050919050565b6106f4610cf3565b6106fe6000610d7a565b565b6000600660009054906101000a900473ffffffffffffffffffffffffffffffffffffffff16905090565b60606001805461073990611e43565b80601f016020809104026020016040519081016040528092919081815260200182805461076590611e43565b80156107b25780601f10610787576101008083540402835291602001916107b2565b820191906000526020600020905b81548152906001019060200180831161079557829003601f168201915b5050505050905090565b6107c4610cf3565b6107ce8282610e40565b5050565b6107e46107dd610abf565b8383610e5e565b5050565b6107f38484846104fe565b6108076107fe610abf565b85858585610fcd565b50505050565b6060610818826109fa565b50600061082361117e565b90506000815111610843576040518060200160405280600081525061086e565b8061084d84611195565b60405160200161085e929190611ee7565b6040516020818303038152906040525b915050919050565b6000600560008473ffffffffffffffffffffffffffffffffffffffff1673ffffffffffffffffffffffffffffffffffffffff16815260200190815260200160002060008373ffffffffffffffffffffffffffffffffffffffff1673ffffffffffffffffffffffffffffffffffffffff16815260200190815260200160002060009054906101000a900460ff16905092915050565b610912610cf3565b600073ffffffffffffffffffffffffffffffffffffffff168173ffffffffffffffffffffffffffffffffffffffff16036109845760006040517f1e4fbdf700000000000000000000000000000000000000000000000000000000815260040161097b9190611a7f565b60405180910390fd5b61098d81610d7a565b50565b60007f01ffc9a7000000000000000000000000000000000000000000000000000000007bffffffffffffffffffffffffffffffffffffffffffffffffffffffff1916827bffffffffffffffffffffffffffffffffffffffffffffffffffffffff1916149050919050565b600080610a0683611263565b9050600073ffffffffffffffffffffffffffffffffffffffff168173ffffffffffffffffffffffffffffffffffffffff1603610a7957826040517f7e273289000000000000000000000000000000000000000000000000000000008152600401610a709190611b95565b60405180910390fd5b80915050919050565b60006004600083815260200190815260200160002060009054906101000a900473ffffffffffffffffffffffffffffffffffffffff169050919050565b600033905090565b610ad483838360016112a0565b505050565b600080610ae584611263565b9050600073ffffffffffffffffffffffffffffffffffffffff168373ffffffffffffffffffffffffffffffffffffffff1614610b2757610b26818486611465565b5b600073ffffffffffffffffffffffffffffffffffffffff168173ffffffffffffffffffffffffffffffffffffffff1614610bb857610b696000856000806112a0565b6001600360008373ffffffffffffffffffffffffffffffffffffffff1673ffffffffffffffffffffffffffffffffffffffff168152602001908152602001600020600082825403925050819055505b600073ffffffffffffffffffffffffffffffffffffffff168573ffffffffffffffffffffffffffffffffffffffff1614610c3b576001600360008773ffffffffffffffffffffffffffffffffffffffff1673ffffffffffffffffffffffffffffffffffffffff168152602001908152602001600020600082825401925050819055505b846002600086815260200190815260200160002060006101000a81548173ffffffffffffffffffffffffffffffffffffffff021916908373ffffffffffffffffffffffffffffffffffffffff160217905550838573ffffffffffffffffffffffffffffffffffffffff168273ffffffffffffffffffffffffffffffffffffffff167fddf252ad1be2c89b69c2b068fc378daa952ba7f163c4a11628f55a4df523b3ef60405160405180910390a4809150509392505050565b610cfb610abf565b73ffffffffffffffffffffffffffffffffffffffff16610d19610700565b73ffffffffffffffffffffffffffffffffffffffff1614610d7857610d3c610abf565b6040517f118cdaa7000000000000000000000000000000000000000000000000000000008152600401610d6f9190611a7f565b60405180910390fd5b565b6000600660009054906101000a900473ffffffffffffffffffffffffffffffffffffffff16905081600660006101000a81548173ffffffffffffffffffffffffffffffffffffffff021916908373ffffffffffffffffffffffffffffffffffffffff1602179055508173ffffffffffffffffffffffffffffffffffffffff168173ffffffffffffffffffffffffffffffffffffffff167f8be0079c531659141344cd1fd0a4f28419497f9722a3daafe3b4186f6b6457e060405160405180910390a35050565b610e5a828260405180602001604052806000815250611529565b5050565b600073ffffffffffffffffffffffffffffffffffffffff168273ffffffffffffffffffffffffffffffffffffffff1603610ecf57816040517f5b08ba18000000000000000000000000000000000000000000000000000000008152600401610ec69190611a7f565b60405180910390fd5b80600560008573ffffffffffffffffffffffffffffffffffffffff1673ffffffffffffffffffffffffffffffffffffffff16815260200190815260200160002060008473ffffffffffffffffffffffffffffffffffffffff1673ffffffffffffffffffffffffffffffffffffffff16815260200190815260200160002060006101000a81548160ff0219169083151502179055508173ffffffffffffffffffffffffffffffffffffffff168373ffffffffffffffffffffffffffffffffffffffff167f17307eab39ab6107e8899845ad3d59bd9653f200f220920489ca2b5937696c3183604051610fc0919061190e565b60405180910390a3505050565b60008373ffffffffffffffffffffffffffffffffffffffff163b1115611177578273ffffffffffffffffffffffffffffffffffffffff1663150b7a02868685856040518563ffffffff1660e01b815260040161102c9493929190611f60565b6020604051808303816000875af192505050801561106857506040513d601f19601f820116820180604052508101906110659190611fc1565b60015b6110ec573d8060008114611098576040519150601f19603f3d011682016040523d82523d6000602084013e61109d565b606091505b5060008151036110e457836040517f64a0ae920000000000000000000000000000000000000000000000000000000081526004016110db9190611a7f565b60405180910390fd5b805181602001fd5b63150b7a0260e01b7bffffffffffffffffffffffffffffffffffffffffffffffffffffffff1916817bffffffffffffffffffffffffffffffffffffffffffffffffffffffff19161461117557836040517f64a0ae9200000000000000000000000000000000000000000000000000000000815260040161116c9190611a7f565b60405180910390fd5b505b5050505050565b606060405180602001604052806000815250905090565b6060600060016111a48461154d565b01905060008167ffffffffffffffff8111156111c3576111c2611c26565b5b6040519080825280601f01601f1916602001820160405280156111f55781602001600182028036833780820191505090505b509050600082602001820190505b600115611258578080600190039150507f3031323334353637383961626364656600000000000000000000000000000000600a86061a8153600a858161124c5761124b611fee565b5b04945060008503611203575b819350505050919050565b60006002600083815260200190815260200160002060009054906101000a900473ffffffffffffffffffffffffffffffffffffffff169050919050565b80806112d95750600073ffffffffffffffffffffffffffffffffffffffff168273ffffffffffffffffffffffffffffffffffffffff1614155b1561140d5760006112e9846109fa565b9050600073ffffffffffffffffffffffffffffffffffffffff168373ffffffffffffffffffffffffffffffffffffffff161415801561135457508273ffffffffffffffffffffffffffffffffffffffff168173ffffffffffffffffffffffffffffffffffffffff1614155b801561136757506113658184610876565b155b156113a957826040517fa9fbf51f0000000000000000000000000000000000000000000000000000000081526004016113a09190611a7f565b60405180910390fd5b811561140b57838573ffffffffffffffffffffffffffffffffffffffff168273ffffffffffffffffffffffffffffffffffffffff167f8c5be1e5ebec7d5bd14f71427d1e84f3dd0314c0f7b2291e5b200ac8c7c3b92560405160405180910390a45b505b836004600085815260200190815260200160002060006101000a81548173ffffffffffffffffffffffffffffffffffffffff021916908373ffffffffffffffffffffffffffffffffffffffff16021790555050505050565b6114708383836116a0565b61152457600073ffffffffffffffffffffffffffffffffffffffff168373ffffffffffffffffffffffffffffffffffffffff16036114e557806040517f7e2732890000000000000000000000000000000000000000000000000000000081526004016114dc9190611b95565b60405180910390fd5b81816040517f177e802f00000000000000000000000000000000000000000000000000000000815260040161151b92919061201d565b60405180910390fd5b505050565b6115338383611761565b61154861153e610abf565b6000858585610fcd565b505050565b600080600090507a184f03e93ff9f4daa797ed6e38ed64bf6a1f01000000000000000083106115ab577a184f03e93ff9f4daa797ed6e38ed64bf6a1f01000000000000000083816115a1576115a0611fee565b5b0492506040810190505b6d04ee2d6d415b85acef810000000083106115e8576d04ee2d6d415b85acef810000000083816115de576115dd611fee565b5b0492506020810190505b662386f26fc10000831061161757662386f26fc10000838161160d5761160c611fee565b5b0492506010810190505b6305f5e1008310611640576305f5e100838161163657611635611fee565b5b0492506008810190505b612710831061166557612710838161165b5761165a611fee565b5b0492506004810190505b60648310611688576064838161167e5761167d611fee565b5b0492506002810190505b600a8310611697576001810190505b80915050919050565b60008073ffffffffffffffffffffffffffffffffffffffff168373ffffffffffffffffffffffffffffffffffffffff161415801561175857508273ffffffffffffffffffffffffffffffffffffffff168473ffffffffffffffffffffffffffffffffffffffff16148061171957506117188484610876565b5b8061175757508273ffffffffffffffffffffffffffffffffffffffff1661173f83610a82565b73ffffffffffffffffffffffffffffffffffffffff16145b5b90509392505050565b600073ffffffffffffffffffffffffffffffffffffffff168273ffffffffffffffffffffffffffffffffffffffff16036117d35760006040517f64a0ae920000000000000000000000000000000000000000000000000000000081526004016117ca9190611a7f565b60405180910390fd5b60006117e183836000610ad9565b9050600073ffffffffffffffffffffffffffffffffffffffff168173ffffffffffffffffffffffffffffffffffffffff16146118555760006040517f73c6ac6e00000000000000000000000000000000000000000000000000000000815260040161184c9190611a7f565b60405180910390fd5b505050565b6000604051905090565b600080fd5b600080fd5b60007fffffffff0000000000000000000000000000000000000000000000000000000082169050919050565b6118a38161186e565b81146118ae57600080fd5b50565b6000813590506118c08161189a565b92915050565b6000602082840312156118dc576118db611864565b5b60006118ea848285016118b1565b91505092915050565b60008115159050919050565b611908816118f3565b82525050565b600060208201905061192360008301846118ff565b92915050565b600081519050919050565b600082825260208201905092915050565b60005b83811015611963578082015181840152602081019050611948565b60008484015250505050565b6000601f19601f8301169050919050565b600061198b82611929565b6119958185611934565b93506119a5818560208601611945565b6119ae8161196f565b840191505092915050565b600060208201905081810360008301526119d38184611980565b905092915050565b6000819050919050565b6119ee816119db565b81146119f957600080fd5b50565b600081359050611a0b816119e5565b92915050565b600060208284031215611a2757611a26611864565b5b6000611a35848285016119fc565b91505092915050565b600073ffffffffffffffffffffffffffffffffffffffff82169050919050565b6000611a6982611a3e565b9050919050565b611a7981611a5e565b82525050565b6000602082019050611a946000830184611a70565b92915050565b611aa381611a5e565b8114611aae57600080fd5b50565b600081359050611ac081611a9a565b92915050565b60008060408385031215611add57611adc611864565b5b6000611aeb85828601611ab1565b9250506020611afc858286016119fc565b9150509250929050565b600080600060608486031215611b1f57611b1e611864565b5b6000611b2d86828701611ab1565b9350506020611b3e86828701611ab1565b9250506040611b4f868287016119fc565b9150509250925092565b600060208284031215611b6f57611b6e611864565b5b6000611b7d84828501611ab1565b91505092915050565b611b8f816119db565b82525050565b6000602082019050611baa6000830184611b86565b92915050565b611bb9816118f3565b8114611bc457600080fd5b50565b600081359050611bd681611bb0565b92915050565b60008060408385031215611bf357611bf2611864565b5b6000611c0185828601611ab1565b9250506020611c1285828601611bc7565b9150509250929050565b600080fd5b600080fd5b7f4e487b7100000000000000000000000000000000000000000000000000000000600052604160045260246000fd5b611c5e8261196f565b810181811067ffffffffffffffff82111715611c7d57611c7c611c26565b5b80604052505050565b6000611c9061185a565b9050611c9c8282611c55565b919050565b600067ffffffffffffffff821115611cbc57611cbb611c26565b5b611cc58261196f565b9050602081019050919050565b82818337600083830152505050565b6000611cf4611cef84611ca1565b611c86565b905082815260208101848484011115611d1057611d0f611c21565b5b611d1b848285611cd2565b509392505050565b600082601f830112611d3857611d37611c1c565b5b8135611d48848260208601611ce1565b91505092915050565b60008060008060808587031215611d6b57611d6a611864565b5b6000611d7987828801611ab1565b9450506020611d8a87828801611ab1565b9350506040611d9b878288016119fc565b925050606085013567ffffffffffffffff811115611dbc57611dbb611869565b5b611dc887828801611d23565b91505092959194509250565b60008060408385031215611deb57611dea611864565b5b6000611df985828601611ab1565b9250506020611e0a85828601611ab1565b9150509250929050565b7f4e487b7100000000000000000000000000000000000000000000000000000000600052602260045260246000fd5b60006002820490506001821680611e5b57607f821691505b602082108103611e6e57611e6d611e14565b5b50919050565b6000606082019050611e896000830186611a70565b611e966020830185611b86565b611ea36040830184611a70565b949350505050565b600081905092915050565b6000611ec182611929565b611ecb8185611eab565b9350611edb818560208601611945565b80840191505092915050565b6000611ef38285611eb6565b9150611eff8284611eb6565b91508190509392505050565b600081519050919050565b600082825260208201905092915050565b6000611f3282611f0b565b611f3c8185611f16565b9350611f4c818560208601611945565b611f558161196f565b840191505092915050565b6000608082019050611f756000830187611a70565b611f826020830186611a70565b611f8f6040830185611b86565b8181036060830152611fa18184611f27565b905095945050505050565b600081519050611fbb8161189a565b92915050565b600060208284031215611fd757611fd6611864565b5b6000611fe584828501611fac565b91505092915050565b7f4e487b7100000000000000000000000000000000000000000000000000000000600052601260045260246000fd5b60006040820190506120326000830185611a70565b61203f6020830184611b86565b939250505056fea26469706673582212204c9d4f7412e526adc3394bfc6c7ad4ed61efb854df9b498feea008ec02137c4664736f6c63430008140033a264697066735822122094f4815906f6677afb6e955f73954baf94a205a0fe0d0f71fe23ddb2204a060564736f6c63430008140033",
  "linkReferences": {},
  "deployedLinkReferences": {}
}