{
  "_format": "hh-sol-artifact-1",
  "contractName": "CompanyFundManager",
  "sourceName": "contracts/multisig.sol",
  "abi": [
    {
      "inputs": [
        {
          "internalType": "address[]",
          "name": "_boardMembers",
          "type": "address[]"
        }
      ],
      "stateMutability": "nonpayable",
      "type": "constructor"
    },
    {
      "inputs": [],
      "name": "AlreadyApproved",
      "type": "error"
    },
    {
      "inputs": [],
      "name": "BudgetAlreadyExecuted",
      "type": "error"
    },
    {
      "inputs": [],
      "name": "BudgetExecutionFailed",
      "type": "error"
    },
    {
      "inputs": [],
      "name": "BudgetProposalNotFound",
      "type": "error"
    },
    {
      "inputs": [],
      "name": "DuplicateBoardMember",
      "type": "error"
    },
    {
      "inputs": [],
      "name": "InsufficientApprovals",
      "type": "error"
    },
    {
      "inputs": [],
      "name": "InvalidBoardMember",
      "type": "error"
    },
    {
      "inputs": [],
      "name": "InvalidBoardMemberCount",
      "type": "error"
    },
    {
      "inputs": [],
      "name": "NotBoardMember",
      "type": "error"
    },
    {
      "inputs": [],
      "name": "NotYetApproved",
      "type": "error"
    },
    {
      "anonymous": false,
      "inputs": [
        {
          "indexed": true,
          "internalType": "address",
          "name": "boardMember",
          "type": "address"
        },
        {
          "indexed": true,
          "internalType": "uint256",
          "name": "budgetId",
          "type": "uint256"
        }
      ],
      "name": "ApprovalRevoked",
      "type": "event"
    },
    {
      "anonymous": false,
      "inputs": [
        {
          "indexed": true,
          "internalType": "address",
          "name": "boardMember",
          "type": "address"
        },
        {
          "indexed": true,
          "internalType": "uint256",
          "name": "budgetId",
          "type": "uint256"
        }
      ],
      "name": "BudgetApproved",
      "type": "event"
    },
    {
      "anonymous": false,
      "inputs": [
        {
          "indexed": true,
          "internalType": "address",
          "name": "executor",
          "type": "address"
        },
        {
          "indexed": true,
          "internalType": "uint256",
          "name": "budgetId",
          "type": "uint256"
        }
      ],
      "name": "BudgetExecuted",
      "type": "event"
    },
    {
      "anonymous": false,
      "inputs": [
        {
          "indexed": true,
          "internalType": "address",
          "name": "boardMember",
          "type": "address"
        },
        {
          "indexed": true,
          "internalType": "uint256",
          "name": "budgetId",
          "type": "uint256"
        },
        {
          "indexed": true,
          "internalType": "address",
          "name": "recipient",
          "type": "address"
        },
        {
          "indexed": false,
          "internalType": "uint256",
          "name": "amount",
          "type": "uint256"
        },
        {
          "indexed": false,
          "internalType": "bytes",
          "name": "description",
          "type": "bytes"
        }
      ],
      "name": "BudgetProposed",
      "type": "event"
    },
    {
      "anonymous": false,
      "inputs": [
        {
          "indexed": true,
          "internalType": "address",
          "name": "depositor",
          "type": "address"
        },
        {
          "indexed": false,
          "internalType": "uint256",
          "name": "amount",
          "type": "uint256"
        },
        {
          "indexed": false,
          "internalType": "uint256",
          "name": "totalBalance",
          "type": "uint256"
        }
      ],
      "name": "FundsDeposited",
      "type": "event"
    },
    {
      "inputs": [],
      "name": "REQUIRED_APPROVALS",
      "outputs": [
        {
          "internalType": "uint256",
          "name": "",
          "type": "uint256"
        }
      ],
      "stateMutability": "view",
      "type": "function"
    },
    {
      "inputs": [],
      "name": "TOTAL_BOARD_MEMBERS",
      "outputs": [
        {
          "internalType": "uint256",
          "name": "",
          "type": "uint256"
        }
      ],
      "stateMutability": "view",
      "type": "function"
    },
    {
      "inputs": [
        {
          "internalType": "uint256",
          "name": "_budgetId",
          "type": "uint256"
        }
      ],
      "name": "approveBudget",
      "outputs": [],
      "stateMutability": "nonpayable",
      "type": "function"
    },
    {
      "inputs": [
        {
          "internalType": "uint256",
          "name": "",
          "type": "uint256"
        }
      ],
      "name": "boardMembers",
      "outputs": [
        {
          "internalType": "address",
          "name": "",
          "type": "address"
        }
      ],
      "stateMutability": "view",
      "type": "function"
    },
    {
      "inputs": [
        {
          "internalType": "uint256",
          "name": "",
          "type": "uint256"
        }
      ],
      "name": "budgetProposals",
      "outputs": [
        {
          "internalType": "address",
          "name": "recipient",
          "type": "address"
        },
        {
          "internalType": "uint256",
          "name": "amount",
          "type": "uint256"
        },
        {
          "internalType": "bytes",
          "name": "description",
          "type": "bytes"
        },
        {
          "internalType": "bool",
          "name": "executed",
          "type": "bool"
        },
        {
          "internalType": "uint256",
          "name": "approvalCount",
          "type": "uint256"
        }
      ],
      "stateMutability": "view",
      "type": "function"
    },
    {
      "inputs": [
        {
          "internalType": "uint256",
          "name": "_budgetId",
          "type": "uint256"
        }
      ],
      "name": "executeBudget",
      "outputs": [],
      "stateMutability": "nonpayable",
      "type": "function"
    },
    {
      "inputs": [],
      "name": "getBoardMembers",
      "outputs": [
        {
          "internalType": "address[]",
          "name": "",
          "type": "address[]"
        }
      ],
      "stateMutability": "view",
      "type": "function"
    },
    {
      "inputs": [],
      "name": "getBudgetCount",
      "outputs": [
        {
          "internalType": "uint256",
          "name": "",
          "type": "uint256"
        }
      ],
      "stateMutability": "view",
      "type": "function"
    },
    {
      "inputs": [
        {
          "internalType": "uint256",
          "name": "_budgetId",
          "type": "uint256"
        }
      ],
      "name": "getBudgetProposal",
      "outputs": [
        {
          "internalType": "address",
          "name": "recipient",
          "type": "address"
        },
        {
          "internalType": "uint256",
          "name": "amount",
          "type": "uint256"
        },
        {
          "internalType": "bytes",
          "name": "description",
          "type": "bytes"
        },
        {
          "internalType": "bool",
          "name": "executed",
          "type": "bool"
        },
        {
          "internalType": "uint256",
          "name": "approvalCount",
          "type": "uint256"
        }
      ],
      "stateMutability": "view",
      "type": "function"
    },
    {
      "inputs": [
        {
          "internalType": "uint256",
          "name": "",
          "type": "uint256"
        },
        {
          "internalType": "address",
          "name": "",
          "type": "address"
        }
      ],
      "name": "hasApproved",
      "outputs": [
        {
          "internalType": "bool",
          "name": "",
          "type": "bool"
        }
      ],
      "stateMutability": "view",
      "type": "function"
    },
    {
      "inputs": [
        {
          "internalType": "address",
          "name": "",
          "type": "address"
        }
      ],
      "name": "isBoardMember",
      "outputs": [
        {
          "internalType": "bool",
          "name": "",
          "type": "bool"
        }
      ],
      "stateMutability": "view",
      "type": "function"
    },
    {
      "inputs": [
        {
          "internalType": "address",
          "name": "_recipient",
          "type": "address"
        },
        {
          "internalType": "uint256",
          "name": "_amount",
          "type": "uint256"
        },
        {
          "internalType": "bytes",
          "name": "_description",
          "type": "bytes"
        }
      ],
      "name": "proposeBudget",
      "outputs": [],
      "stateMutability": "nonpayable",
      "type": "function"
    },
    {
      "inputs": [
        {
          "internalType": "uint256",
          "name": "_budgetId",
          "type": "uint256"
        }
      ],
      "name": "revokeApproval",
      "outputs": [],
      "stateMutability": "nonpayable",
      "type": "function"
    },
    {
      "stateMutability": "payable",
      "type": "receive"
    }
  ],
  "bytecode": "0x608060405234801561001057600080fd5b50604051611fad380380611fad8339818101604052810190610032919061041c565b601481511461006d576040517f2311634a00000000000000000000000000000000000000000000000000000000815260040160405180910390fd5b60005b815181101561024a57600082828151811061008e5761008d610465565b5b60200260200101519050600073ffffffffffffffffffffffffffffffffffffffff168173ffffffffffffffffffffffffffffffffffffffff16036100fe576040517f47b9672000000000000000000000000000000000000000000000000000000000815260040160405180910390fd5b600160008273ffffffffffffffffffffffffffffffffffffffff1673ffffffffffffffffffffffffffffffffffffffff16815260200190815260200160002060009054906101000a900460ff1615610182576040517ff9f285ea00000000000000000000000000000000000000000000000000000000815260040160405180910390fd5b60018060008373ffffffffffffffffffffffffffffffffffffffff1673ffffffffffffffffffffffffffffffffffffffff16815260200190815260200160002060006101000a81548160ff0219169083151502179055506000819080600181540180825580915050600190039060005260206000200160009091909190916101000a81548173ffffffffffffffffffffffffffffffffffffffff021916908373ffffffffffffffffffffffffffffffffffffffff160217905550508080600101915050610070565b5050610494565b6000604051905090565b600080fd5b600080fd5b600080fd5b6000601f19601f8301169050919050565b7f4e487b7100000000000000000000000000000000000000000000000000000000600052604160045260246000fd5b6102b38261026a565b810181811067ffffffffffffffff821117156102d2576102d161027b565b5b80604052505050565b60006102e5610251565b90506102f182826102aa565b919050565b600067ffffffffffffffff8211156103115761031061027b565b5b602082029050602081019050919050565b600080fd5b600073ffffffffffffffffffffffffffffffffffffffff82169050919050565b600061035282610327565b9050919050565b61036281610347565b811461036d57600080fd5b50565b60008151905061037f81610359565b92915050565b6000610398610393846102f6565b6102db565b905080838252602082019050602084028301858111156103bb576103ba610322565b5b835b818110156103e457806103d08882610370565b8452602084019350506020810190506103bd565b5050509392505050565b600082601f83011261040357610402610265565b5b8151610413848260208601610385565b91505092915050565b6000602082840312156104325761043161025b565b5b600082015167ffffffffffffffff8111156104505761044f610260565b5b61045c848285016103ee565b91505092915050565b7f4e487b7100000000000000000000000000000000000000000000000000000000600052603260045260246000fd5b611b0a806104a36000396000f3fe6080604052600436106100c65760003560e01c806371942a011161007f578063b1e130fc11610059578063b1e130fc146102d5578063ded24148146102fe578063edd4ea9a1461033f578063f7888a961461036a5761011d565b806371942a01146102445780637baf926814610281578063804e1859146102ac5761011d565b8063016771c1146101225780630447e2cb1461014d5780631495a9db146101765780632358d5a81461019f5780632a892ea9146101dc578063599c5533146102195761011d565b3661011d573373ffffffffffffffffffffffffffffffffffffffff167fbee4fe3675934fca827426c793623996a3079255089bda3a717019ffc5db27653447604051610113929190611170565b60405180910390a2005b600080fd5b34801561012e57600080fd5b506101376103ab565b6040516101449190611199565b60405180910390f35b34801561015957600080fd5b50610174600480360381019061016f91906111f4565b6103b0565b005b34801561018257600080fd5b5061019d600480360381019061019891906111f4565b610674565b005b3480156101ab57600080fd5b506101c660048036038101906101c1919061127f565b61092d565b6040516101d391906112da565b60405180910390f35b3480156101e857600080fd5b5061020360048036038101906101fe91906111f4565b61095c565b6040516102109190611304565b60405180910390f35b34801561022557600080fd5b5061022e61099b565b60405161023b9190611199565b60405180910390f35b34801561025057600080fd5b5061026b6004803603810190610266919061131f565b6109a0565b60405161027891906112da565b60405180910390f35b34801561028d57600080fd5b506102966109c0565b6040516102a39190611199565b60405180910390f35b3480156102b857600080fd5b506102d360048036038101906102ce9190611492565b6109cd565b005b3480156102e157600080fd5b506102fc60048036038101906102f791906111f4565b610bc7565b005b34801561030a57600080fd5b50610325600480360381019061032091906111f4565b610e7d565b604051610336959493929190611580565b60405180910390f35b34801561034b57600080fd5b50610354610f78565b6040516103619190611698565b60405180910390f35b34801561037657600080fd5b50610391600480360381019061038c91906111f4565b611006565b6040516103a2959493929190611580565b60405180910390f35b601481565b600160003373ffffffffffffffffffffffffffffffffffffffff1673ffffffffffffffffffffffffffffffffffffffff16815260200190815260200160002060009054906101000a900460ff16610433576040517fa68161a300000000000000000000000000000000000000000000000000000000815260040160405180910390fd5b806003805490508110610472576040517f8944d93300000000000000000000000000000000000000000000000000000000815260040160405180910390fd5b8160038181548110610487576104866116ba565b5b906000526020600020906005020160030160009054906101000a900460ff16156104dd576040517f7a7d0abf00000000000000000000000000000000000000000000000000000000815260040160405180910390fd5b6000600384815481106104f3576104f26116ba565b5b906000526020600020906005020190506014816004015414610541576040517f8af69cf100000000000000000000000000000000000000000000000000000000815260040160405180910390fd5b60018160030160006101000a81548160ff02191690831515021790555060008160000160009054906101000a900473ffffffffffffffffffffffffffffffffffffffff1673ffffffffffffffffffffffffffffffffffffffff1682600101546040516105ac9061171a565b60006040518083038185875af1925050503d80600081146105e9576040519150601f19603f3d011682016040523d82523d6000602084013e6105ee565b606091505b5050905080610629576040517fcd4d31ef00000000000000000000000000000000000000000000000000000000815260040160405180910390fd5b843373ffffffffffffffffffffffffffffffffffffffff167f1b33c409921a3828a24d9ba9bd10bd02ba5b61ba3de1f34f499b3960930a023d60405160405180910390a35050505050565b600160003373ffffffffffffffffffffffffffffffffffffffff1673ffffffffffffffffffffffffffffffffffffffff16815260200190815260200160002060009054906101000a900460ff166106f7576040517fa68161a300000000000000000000000000000000000000000000000000000000815260040160405180910390fd5b806003805490508110610736576040517f8944d93300000000000000000000000000000000000000000000000000000000815260040160405180910390fd5b816003818154811061074b5761074a6116ba565b5b906000526020600020906005020160030160009054906101000a900460ff16156107a1576040517f7a7d0abf00000000000000000000000000000000000000000000000000000000815260040160405180910390fd5b826002600082815260200190815260200160002060003373ffffffffffffffffffffffffffffffffffffffff1673ffffffffffffffffffffffffffffffffffffffff16815260200190815260200160002060009054906101000a900460ff1615610837576040517f101f817a00000000000000000000000000000000000000000000000000000000815260040160405180910390fd5b60006003858154811061084d5761084c6116ba565b5b906000526020600020906005020190506001816004016000828254610872919061175e565b9250508190555060016002600087815260200190815260200160002060003373ffffffffffffffffffffffffffffffffffffffff1673ffffffffffffffffffffffffffffffffffffffff16815260200190815260200160002060006101000a81548160ff021916908315150217905550843373ffffffffffffffffffffffffffffffffffffffff167f6ea32586b965de6277847564ae6f14b4bd64014ae1d60faf1f131084ea516a9660405160405180910390a35050505050565b60026020528160005260406000206020528060005260406000206000915091509054906101000a900460ff1681565b6000818154811061096c57600080fd5b906000526020600020016000915054906101000a900473ffffffffffffffffffffffffffffffffffffffff1681565b601481565b60016020528060005260406000206000915054906101000a900460ff1681565b6000600380549050905090565b600160003373ffffffffffffffffffffffffffffffffffffffff1673ffffffffffffffffffffffffffffffffffffffff16815260200190815260200160002060009054906101000a900460ff16610a50576040517fa68161a300000000000000000000000000000000000000000000000000000000815260040160405180910390fd5b6000600380549050905060036040518060a001604052808673ffffffffffffffffffffffffffffffffffffffff1681526020018581526020018481526020016000151581526020016000815250908060018154018082558091505060019003906000526020600020906005020160009091909190915060008201518160000160006101000a81548173ffffffffffffffffffffffffffffffffffffffff021916908373ffffffffffffffffffffffffffffffffffffffff160217905550602082015181600101556040820151816002019081610b2c919061199e565b5060608201518160030160006101000a81548160ff0219169083151502179055506080820151816004015550508373ffffffffffffffffffffffffffffffffffffffff16813373ffffffffffffffffffffffffffffffffffffffff167fb1541bf626c8fa758427f66b55c6a93d7a18417a55403d9f9e876cf030108def8686604051610bb9929190611a70565b60405180910390a450505050565b600160003373ffffffffffffffffffffffffffffffffffffffff1673ffffffffffffffffffffffffffffffffffffffff16815260200190815260200160002060009054906101000a900460ff16610c4a576040517fa68161a300000000000000000000000000000000000000000000000000000000815260040160405180910390fd5b806003805490508110610c89576040517f8944d93300000000000000000000000000000000000000000000000000000000815260040160405180910390fd5b8160038181548110610c9e57610c9d6116ba565b5b906000526020600020906005020160030160009054906101000a900460ff1615610cf4576040517f7a7d0abf00000000000000000000000000000000000000000000000000000000815260040160405180910390fd5b6002600084815260200190815260200160002060003373ffffffffffffffffffffffffffffffffffffffff1673ffffffffffffffffffffffffffffffffffffffff16815260200190815260200160002060009054906101000a900460ff16610d88576040517f597dfedf00000000000000000000000000000000000000000000000000000000815260040160405180910390fd5b600060038481548110610d9e57610d9d6116ba565b5b906000526020600020906005020190506001816004016000828254610dc39190611aa0565b9250508190555060006002600086815260200190815260200160002060003373ffffffffffffffffffffffffffffffffffffffff1673ffffffffffffffffffffffffffffffffffffffff16815260200190815260200160002060006101000a81548160ff021916908315150217905550833373ffffffffffffffffffffffffffffffffffffffff167f3e776e19fc0f05c1b8270744b61c5729d5d1a5d8dded1bfb81e3979e257edd5960405160405180910390a350505050565b60038181548110610e8d57600080fd5b90600052602060002090600502016000915090508060000160009054906101000a900473ffffffffffffffffffffffffffffffffffffffff1690806001015490806002018054610edc906117c1565b80601f0160208091040260200160405190810160405280929190818152602001828054610f08906117c1565b8015610f555780601f10610f2a57610100808354040283529160200191610f55565b820191906000526020600020905b815481529060010190602001808311610f3857829003601f168201915b5050505050908060030160009054906101000a900460ff16908060040154905085565b60606000805480602002602001604051908101604052809291908181526020018280548015610ffc57602002820191906000526020600020905b8160009054906101000a900473ffffffffffffffffffffffffffffffffffffffff1673ffffffffffffffffffffffffffffffffffffffff1681526020019060010190808311610fb2575b5050505050905090565b6000806060600080600380549050861061104c576040517f8944d93300000000000000000000000000000000000000000000000000000000815260040160405180910390fd5b600060038781548110611062576110616116ba565b5b906000526020600020906005020190508060000160009054906101000a900473ffffffffffffffffffffffffffffffffffffffff168160010154826002018360030160009054906101000a900460ff1684600401548280546110c3906117c1565b80601f01602080910402602001604051908101604052809291908181526020018280546110ef906117c1565b801561113c5780601f106111115761010080835404028352916020019161113c565b820191906000526020600020905b81548152906001019060200180831161111f57829003601f168201915b50505050509250955095509550955095505091939590929450565b6000819050919050565b61116a81611157565b82525050565b60006040820190506111856000830185611161565b6111926020830184611161565b9392505050565b60006020820190506111ae6000830184611161565b92915050565b6000604051905090565b600080fd5b600080fd5b6111d181611157565b81146111dc57600080fd5b50565b6000813590506111ee816111c8565b92915050565b60006020828403121561120a576112096111be565b5b6000611218848285016111df565b91505092915050565b600073ffffffffffffffffffffffffffffffffffffffff82169050919050565b600061124c82611221565b9050919050565b61125c81611241565b811461126757600080fd5b50565b60008135905061127981611253565b92915050565b60008060408385031215611296576112956111be565b5b60006112a4858286016111df565b92505060206112b58582860161126a565b9150509250929050565b60008115159050919050565b6112d4816112bf565b82525050565b60006020820190506112ef60008301846112cb565b92915050565b6112fe81611241565b82525050565b600060208201905061131960008301846112f5565b92915050565b600060208284031215611335576113346111be565b5b60006113438482850161126a565b91505092915050565b600080fd5b600080fd5b6000601f19601f8301169050919050565b7f4e487b7100000000000000000000000000000000000000000000000000000000600052604160045260246000fd5b61139f82611356565b810181811067ffffffffffffffff821117156113be576113bd611367565b5b80604052505050565b60006113d16111b4565b90506113dd8282611396565b919050565b600067ffffffffffffffff8211156113fd576113fc611367565b5b61140682611356565b9050602081019050919050565b82818337600083830152505050565b6000611435611430846113e2565b6113c7565b90508281526020810184848401111561145157611450611351565b5b61145c848285611413565b509392505050565b600082601f8301126114795761147861134c565b5b8135611489848260208601611422565b91505092915050565b6000806000606084860312156114ab576114aa6111be565b5b60006114b98682870161126a565b93505060206114ca868287016111df565b925050604084013567ffffffffffffffff8111156114eb576114ea6111c3565b5b6114f786828701611464565b9150509250925092565b600081519050919050565b600082825260208201905092915050565b60005b8381101561153b578082015181840152602081019050611520565b60008484015250505050565b600061155282611501565b61155c818561150c565b935061156c81856020860161151d565b61157581611356565b840191505092915050565b600060a08201905061159560008301886112f5565b6115a26020830187611161565b81810360408301526115b48186611547565b90506115c360608301856112cb565b6115d06080830184611161565b9695505050505050565b600081519050919050565b600082825260208201905092915050565b6000819050602082019050919050565b61160f81611241565b82525050565b60006116218383611606565b60208301905092915050565b6000602082019050919050565b6000611645826115da565b61164f81856115e5565b935061165a836115f6565b8060005b8381101561168b5781516116728882611615565b975061167d8361162d565b92505060018101905061165e565b5085935050505092915050565b600060208201905081810360008301526116b2818461163a565b905092915050565b7f4e487b7100000000000000000000000000000000000000000000000000000000600052603260045260246000fd5b600081905092915050565b50565b60006117046000836116e9565b915061170f826116f4565b600082019050919050565b6000611725826116f7565b9150819050919050565b7f4e487b7100000000000000000000000000000000000000000000000000000000600052601160045260246000fd5b600061176982611157565b915061177483611157565b925082820190508082111561178c5761178b61172f565b5b92915050565b7f4e487b7100000000000000000000000000000000000000000000000000000000600052602260045260246000fd5b600060028204905060018216806117d957607f821691505b6020821081036117ec576117eb611792565b5b50919050565b60008190508160005260206000209050919050565b60006020601f8301049050919050565b600082821b905092915050565b6000600883026118547fffffffffffffffffffffffffffffffffffffffffffffffffffffffffffffffff82611817565b61185e8683611817565b95508019841693508086168417925050509392505050565b6000819050919050565b600061189b61189661189184611157565b611876565b611157565b9050919050565b6000819050919050565b6118b583611880565b6118c96118c1826118a2565b848454611824565b825550505050565b600090565b6118de6118d1565b6118e98184846118ac565b505050565b5b8181101561190d576119026000826118d6565b6001810190506118ef565b5050565b601f82111561195257611923816117f2565b61192c84611807565b8101602085101561193b578190505b61194f61194785611807565b8301826118ee565b50505b505050565b600082821c905092915050565b600061197560001984600802611957565b1980831691505092915050565b600061198e8383611964565b9150826002028217905092915050565b6119a782611501565b67ffffffffffffffff8111156119c0576119bf611367565b5b6119ca82546117c1565b6119d5828285611911565b600060209050601f831160018114611a0857600084156119f6578287015190505b611a008582611982565b865550611a68565b601f198416611a16866117f2565b60005b82811015611a3e57848901518255600182019150602085019450602081019050611a19565b86831015611a5b5784890151611a57601f891682611964565b8355505b6001600288020188555050505b505050505050565b6000604082019050611a856000830185611161565b8181036020830152611a978184611547565b90509392505050565b6000611aab82611157565b9150611ab683611157565b9250828203905081811115611ace57611acd61172f565b5b9291505056fea26469706673582212205ec7d6a20afcebea016272464f44ce92d731fecd73259cf29c9b031e6c80d6b164736f6c634300081c0033",
  "linkReferences": {},
  "deployedLinkReferences": {}
}