{
  "_format": "hh-sol-artifact-1",
  "contractName": "EventContract",
  "sourceName": "contracts/Event.sol",
  "abi": [
    {
      "anonymous": false,
      "inputs": [
        {
          "indexed": false,
          "internalType": "uint256",
          "name": "_eventId",
          "type": "uint256"
        },
        {
          "indexed": false,
          "internalType": "address",
          "name": "_attendee",
          "type": "address"
        }
      ],
      "name": "AttendeeConfirmed",
      "type": "event"
    },
    {
      "anonymous": false,
      "inputs": [
        {
          "indexed": false,
          "internalType": "uint256",
          "name": "_id",
          "type": "uint256"
        },
        {
          "indexed": false,
          "internalType": "address",
          "name": "_organizer",
          "type": "address"
        }
      ],
      "name": "EventCreated",
      "type": "event"
    },
    {
      "inputs": [
        {
          "internalType": "uint256",
          "name": "_eventId",
          "type": "uint256"
        },
        {
          "internalType": "address",
          "name": "_attendee",
          "type": "address"
        }
      ],
      "name": "confirmAttendee",
      "outputs": [],
      "stateMutability": "nonpayable",
      "type": "function"
    },
    {
      "inputs": [
        {
          "internalType": "string",
          "name": "_title",
          "type": "string"
        },
        {
          "internalType": "string",
          "name": "_desc",
          "type": "string"
        },
        {
          "internalType": "uint256",
          "name": "_startDate",
          "type": "uint256"
        },
        {
          "internalType": "uint256",
          "name": "_endDate",
          "type": "uint256"
        },
        {
          "internalType": "enum EventContract.EventType",
          "name": "_type",
          "type": "uint8"
        },
        {
          "internalType": "uint32",
          "name": "_egc",
          "type": "uint32"
        }
      ],
      "name": "createEvent",
      "outputs": [],
      "stateMutability": "nonpayable",
      "type": "function"
    },
    {
      "inputs": [
        {
          "internalType": "uint256",
          "name": "_eventId",
          "type": "uint256"
        },
        {
          "internalType": "string",
          "name": "_ticketname",
          "type": "string"
        },
        {
          "internalType": "string",
          "name": "_ticketSymbol",
          "type": "string"
        },
        {
          "internalType": "uint256",
          "name": "_ticketPrice",
          "type": "uint256"
        },
        {
          "internalType": "uint256",
          "name": "_maxTickerPerUser",
          "type": "uint256"
        },
        {
          "internalType": "address",
          "name": "_organizerAddress",
          "type": "address"
        }
      ],
      "name": "createEventTicket",
      "outputs": [],
      "stateMutability": "nonpayable",
      "type": "function"
    },
    {
      "inputs": [],
      "name": "event_count",
      "outputs": [
        {
          "internalType": "uint256",
          "name": "",
          "type": "uint256"
        }
      ],
      "stateMutability": "view",
      "type": "function"
    },
    {
      "inputs": [
        {
          "internalType": "uint256",
          "name": "",
          "type": "uint256"
        }
      ],
      "name": "events",
      "outputs": [
        {
          "internalType": "string",
          "name": "_title",
          "type": "string"
        },
        {
          "internalType": "string",
          "name": "_description",
          "type": "string"
        },
        {
          "internalType": "uint256",
          "name": "_startDate",
          "type": "uint256"
        },
        {
          "internalType": "uint256",
          "name": "_endDate",
          "type": "uint256"
        },
        {
          "internalType": "enum EventContract.EventType",
          "name": "_type",
          "type": "uint8"
        },
        {
          "internalType": "uint32",
          "name": "_expectedGuestCount",
          "type": "uint32"
        },
        {
          "internalType": "uint32",
          "name": "_registeredGuestCount",
          "type": "uint32"
        },
        {
          "internalType": "uint32",
          "name": "_verifiedGuestCount",
          "type": "uint32"
        },
        {
          "internalType": "address",
          "name": "_organizer",
          "type": "address"
        },
        {
          "internalType": "address",
          "name": "_ticketAddress",
          "type": "address"
        }
      ],
      "stateMutability": "view",
      "type": "function"
    },
    {
      "inputs": [
        {
          "internalType": "uint256",
          "name": "_eventId",
          "type": "uint256"
        }
      ],
      "name": "purchaseTickets",
      "outputs": [],
      "stateMutability": "payable",
      "type": "function"
    },
    {
      "inputs": [
        {
          "internalType": "uint256",
          "name": "_event_id",
          "type": "uint256"
        }
      ],
      "name": "registerForEvent",
      "outputs": [],
      "stateMutability": "nonpayable",
      "type": "function"
    }
  ],
  "bytecode": "0x6080604052348015600f57600080fd5b506159f78061001f6000396000f3fe6080604052600436106100705760003560e01c8063406db8431161004e578063406db8431461010f5780636acb5dd314610138578063a127760014610161578063fd804bd71461017d57610070565b80630b7914301461007557806313e7c157146100bb5780632bea0559146100e4575b600080fd5b34801561008157600080fd5b5061009c600480360381019061009791906119db565b6101a6565b6040516100b29a99989796959493929190611b7e565b60405180910390f35b3480156100c757600080fd5b506100e260048036038101906100dd9190611d89565b610387565b005b3480156100f057600080fd5b506100f9610815565b6040516101069190611e4e565b60405180910390f35b34801561011b57600080fd5b50610136600480360381019061013191906119db565b61081b565b005b34801561014457600080fd5b5061015f600480360381019061015a9190611e69565b610e11565b005b61017b600480360381019061017691906119db565b611131565b005b34801561018957600080fd5b506101a4600480360381019061019f9190611efa565b61160b565b005b60016020528060005260406000206000915090508060000180546101c990611fee565b80601f01602080910402602001604051908101604052809291908181526020018280546101f590611fee565b80156102425780601f1061021757610100808354040283529160200191610242565b820191906000526020600020905b81548152906001019060200180831161022557829003601f168201915b50505050509080600101805461025790611fee565b80601f016020809104026020016040519081016040528092919081815260200182805461028390611fee565b80156102d05780601f106102a5576101008083540402835291602001916102d0565b820191906000526020600020905b8154815290600101906020018083116102b357829003601f168201915b5050505050908060020154908060030154908060040160009054906101000a900460ff16908060040160019054906101000a900463ffffffff16908060040160059054906101000a900463ffffffff16908060040160099054906101000a900463ffffffff16908060050160009054906101000a900473ffffffffffffffffffffffffffffffffffffffff16908060060160009054906101000a900473ffffffffffffffffffffffffffffffffffffffff1690508a565b600054861115801561039a575060008614155b6103d9576040517f08c379a00000000000000000000000000000000000000000000000000000000081526004016103d09061206b565b60405180910390fd5b6000600160008881526020019081526020016000206040518061014001604052908160008201805461040a90611fee565b80601f016020809104026020016040519081016040528092919081815260200182805461043690611fee565b80156104835780601f1061045857610100808354040283529160200191610483565b820191906000526020600020905b81548152906001019060200180831161046657829003601f168201915b5050505050815260200160018201805461049c90611fee565b80601f01602080910402602001604051908101604052809291908181526020018280546104c890611fee565b80156105155780601f106104ea57610100808354040283529160200191610515565b820191906000526020600020905b8154815290600101906020018083116104f857829003601f168201915b5050505050815260200160028201548152602001600382015481526020016004820160009054906101000a900460ff16600181111561055757610556611aa7565b5b600181111561056957610568611aa7565b5b81526020016004820160019054906101000a900463ffffffff1663ffffffff1663ffffffff1681526020016004820160059054906101000a900463ffffffff1663ffffffff1663ffffffff1681526020016004820160099054906101000a900463ffffffff1663ffffffff1663ffffffff1681526020016005820160009054906101000a900473ffffffffffffffffffffffffffffffffffffffff1673ffffffffffffffffffffffffffffffffffffffff1673ffffffffffffffffffffffffffffffffffffffff1681526020016006820160009054906101000a900473ffffffffffffffffffffffffffffffffffffffff1673ffffffffffffffffffffffffffffffffffffffff1673ffffffffffffffffffffffffffffffffffffffff1681525050905080610100015173ffffffffffffffffffffffffffffffffffffffff163373ffffffffffffffffffffffffffffffffffffffff1614610700576040517f08c379a00000000000000000000000000000000000000000000000000000000081526004016106f7906120d7565b60405180910390fd5b600073ffffffffffffffffffffffffffffffffffffffff1681610120015173ffffffffffffffffffffffffffffffffffffffff1614610774576040517f08c379a000000000000000000000000000000000000000000000000000000000815260040161076b90612143565b60405180910390fd5b600030878787878760405161078890611984565b61079796959493929190612163565b604051809103906000f0801580156107b3573d6000803e3d6000fd5b50905080600160008a815260200190815260200160002060060160006101000a81548173ffffffffffffffffffffffffffffffffffffffff021916908373ffffffffffffffffffffffffffffffffffffffff1602179055505050505050505050565b60005481565b600073ffffffffffffffffffffffffffffffffffffffff163373ffffffffffffffffffffffffffffffffffffffff160361088a576040517f08c379a00000000000000000000000000000000000000000000000000000000081526004016108819061221e565b60405180910390fd5b600060016000838152602001908152602001600020604051806101400160405290816000820180546108bb90611fee565b80601f01602080910402602001604051908101604052809291908181526020018280546108e790611fee565b80156109345780601f1061090957610100808354040283529160200191610934565b820191906000526020600020905b81548152906001019060200180831161091757829003601f168201915b5050505050815260200160018201805461094d90611fee565b80601f016020809104026020016040519081016040528092919081815260200182805461097990611fee565b80156109c65780601f1061099b576101008083540402835291602001916109c6565b820191906000526020600020905b8154815290600101906020018083116109a957829003601f168201915b5050505050815260200160028201548152602001600382015481526020016004820160009054906101000a900460ff166001811115610a0857610a07611aa7565b5b6001811115610a1a57610a19611aa7565b5b81526020016004820160019054906101000a900463ffffffff1663ffffffff1663ffffffff1681526020016004820160059054906101000a900463ffffffff1663ffffffff1663ffffffff1681526020016004820160099054906101000a900463ffffffff1663ffffffff1663ffffffff1681526020016005820160009054906101000a900473ffffffffffffffffffffffffffffffffffffffff1673ffffffffffffffffffffffffffffffffffffffff1673ffffffffffffffffffffffffffffffffffffffff1681526020016006820160009054906101000a900473ffffffffffffffffffffffffffffffffffffffff1673ffffffffffffffffffffffffffffffffffffffff1673ffffffffffffffffffffffffffffffffffffffff168152505090506000548211158015610b51575060008214155b610b90576040517f08c379a0000000000000000000000000000000000000000000000000000000008152600401610b879061206b565b60405180910390fd5b42816060015111610bd6576040517f08c379a0000000000000000000000000000000000000000000000000000000008152600401610bcd9061228a565b60405180910390fd5b8060a0015163ffffffff168160c0015163ffffffff1610610c2c576040517f08c379a0000000000000000000000000000000000000000000000000000000008152600401610c23906122f6565b60405180910390fd5b60001515600260003373ffffffffffffffffffffffffffffffffffffffff1673ffffffffffffffffffffffffffffffffffffffff168152602001908152602001600020600084815260200190815260200160002060009054906101000a900460ff16151514610cd0576040517f08c379a0000000000000000000000000000000000000000000000000000000008152600401610cc790612362565b60405180910390fd5b600180811115610ce357610ce2611aa7565b5b81608001516001811115610cfa57610cf9611aa7565b5b03610d8157600073ffffffffffffffffffffffffffffffffffffffff1681610120015173ffffffffffffffffffffffffffffffffffffffff1603610d73576040517f08c379a0000000000000000000000000000000000000000000000000000000008152600401610d6a906123ce565b60405180910390fd5b610d7c82611131565b610e0d565b8060c0018051809190610d939061241d565b63ffffffff1663ffffffff16815250506001600260003373ffffffffffffffffffffffffffffffffffffffff1673ffffffffffffffffffffffffffffffffffffffff168152602001908152602001600020600084815260200190815260200160002060006101000a81548160ff0219169083151502179055505b5050565b6000548211158015610e24575060008214155b610e63576040517f08c379a0000000000000000000000000000000000000000000000000000000008152600401610e5a9061206b565b60405180910390fd5b60006001600084815260200190815260200160002090508060050160009054906101000a900473ffffffffffffffffffffffffffffffffffffffff1673ffffffffffffffffffffffffffffffffffffffff163373ffffffffffffffffffffffffffffffffffffffff1614610f0c576040517f08c379a0000000000000000000000000000000000000000000000000000000008152600401610f0390612495565b60405180910390fd5b600260008373ffffffffffffffffffffffffffffffffffffffff1673ffffffffffffffffffffffffffffffffffffffff168152602001908152602001600020600084815260200190815260200160002060009054906101000a900460ff16610fa9576040517f08c379a0000000000000000000000000000000000000000000000000000000008152600401610fa090612501565b60405180910390fd5b600360008373ffffffffffffffffffffffffffffffffffffffff1673ffffffffffffffffffffffffffffffffffffffff168152602001908152602001600020600084815260200190815260200160002060009054906101000a900460ff1615611047576040517f08c379a000000000000000000000000000000000000000000000000000000000815260040161103e9061256d565b60405180910390fd5b6001600360008473ffffffffffffffffffffffffffffffffffffffff1673ffffffffffffffffffffffffffffffffffffffff168152602001908152602001600020600085815260200190815260200160002060006101000a81548160ff02191690831515021790555080600401600981819054906101000a900463ffffffff16809291906110d49061241d565b91906101000a81548163ffffffff021916908363ffffffff160217905550507fca855b3fe3dd60c3fcecb2c61651b950b70c82078413640e553c2c468494aaf3838360405161112492919061258d565b60405180910390a1505050565b6000600160008381526020019081526020016000206040518061014001604052908160008201805461116290611fee565b80601f016020809104026020016040519081016040528092919081815260200182805461118e90611fee565b80156111db5780601f106111b0576101008083540402835291602001916111db565b820191906000526020600020905b8154815290600101906020018083116111be57829003601f168201915b505050505081526020016001820180546111f490611fee565b80601f016020809104026020016040519081016040528092919081815260200182805461122090611fee565b801561126d5780601f106112425761010080835404028352916020019161126d565b820191906000526020600020905b81548152906001019060200180831161125057829003601f168201915b5050505050815260200160028201548152602001600382015481526020016004820160009054906101000a900460ff1660018111156112af576112ae611aa7565b5b60018111156112c1576112c0611aa7565b5b81526020016004820160019054906101000a900463ffffffff1663ffffffff1663ffffffff1681526020016004820160059054906101000a900463ffffffff1663ffffffff1663ffffffff1681526020016004820160099054906101000a900463ffffffff1663ffffffff1663ffffffff1681526020016005820160009054906101000a900473ffffffffffffffffffffffffffffffffffffffff1673ffffffffffffffffffffffffffffffffffffffff1673ffffffffffffffffffffffffffffffffffffffff1681526020016006820160009054906101000a900473ffffffffffffffffffffffffffffffffffffffff1673ffffffffffffffffffffffffffffffffffffffff1673ffffffffffffffffffffffffffffffffffffffff168152505090506001808111156113f8576113f7611aa7565b5b8160800151600181111561140f5761140e611aa7565b5b1461144f576040517f08c379a000000000000000000000000000000000000000000000000000000000815260040161144690612602565b60405180910390fd5b600081610120015173ffffffffffffffffffffffffffffffffffffffff16631209b1f66040518163ffffffff1660e01b8152600401602060405180830381865afa1580156114a1573d6000803e3d6000fd5b505050506040513d601f19601f820116820180604052508101906114c59190612637565b90508034101561150a576040517f08c379a0000000000000000000000000000000000000000000000000000000008152600401611501906126b0565b60405180910390fd5b81610120015173ffffffffffffffffffffffffffffffffffffffff16636a62784234336040518363ffffffff1660e01b815260040161154991906126d0565b6000604051808303818588803b15801561156257600080fd5b505af1158015611576573d6000803e3d6000fd5b50505050508160c001805180919061158d9061241d565b63ffffffff1663ffffffff16815250506001600260003373ffffffffffffffffffffffffffffffffffffffff1673ffffffffffffffffffffffffffffffffffffffff168152602001908152602001600020600085815260200190815260200160002060006101000a81548160ff021916908315150217905550505050565b6000600160005461161c91906126eb565b9050600073ffffffffffffffffffffffffffffffffffffffff163373ffffffffffffffffffffffffffffffffffffffff160361168d576040517f08c379a00000000000000000000000000000000000000000000000000000000081526004016116849061276b565b60405180910390fd5b4285116116cf576040517f08c379a00000000000000000000000000000000000000000000000000000000081526004016116c6906127d7565b60405180910390fd5b838510611711576040517f08c379a000000000000000000000000000000000000000000000000000000000815260040161170890612843565b60405180910390fd5b600060405180610140016040528089815260200188815260200187815260200186815260200185600181111561174a57611749611aa7565b5b81526020018463ffffffff168152602001600063ffffffff168152602001600063ffffffff1681526020013373ffffffffffffffffffffffffffffffffffffffff168152602001600073ffffffffffffffffffffffffffffffffffffffff168152509050806001600084815260200190815260200160002060008201518160000190816117d79190612a0f565b5060208201518160010190816117ed9190612a0f565b50604082015181600201556060820151816003015560808201518160040160006101000a81548160ff0219169083600181111561182d5761182c611aa7565b5b021790555060a08201518160040160016101000a81548163ffffffff021916908363ffffffff16021790555060c08201518160040160056101000a81548163ffffffff021916908363ffffffff16021790555060e08201518160040160096101000a81548163ffffffff021916908363ffffffff1602179055506101008201518160050160006101000a81548173ffffffffffffffffffffffffffffffffffffffff021916908373ffffffffffffffffffffffffffffffffffffffff1602179055506101208201518160060160006101000a81548173ffffffffffffffffffffffffffffffffffffffff021916908373ffffffffffffffffffffffffffffffffffffffff160217905550905050816000819055507fe43349c008949cf6b65249356e6f918d4aaa0ca79f2b1166df4a4a98c9c16de2823360405161197292919061258d565b60405180910390a15050505050505050565b612ee080612ae283390190565b6000604051905090565b600080fd5b600080fd5b6000819050919050565b6119b8816119a5565b81146119c357600080fd5b50565b6000813590506119d5816119af565b92915050565b6000602082840312156119f1576119f061199b565b5b60006119ff848285016119c6565b91505092915050565b600081519050919050565b600082825260208201905092915050565b60005b83811015611a42578082015181840152602081019050611a27565b60008484015250505050565b6000601f19601f8301169050919050565b6000611a6a82611a08565b611a748185611a13565b9350611a84818560208601611a24565b611a8d81611a4e565b840191505092915050565b611aa1816119a5565b82525050565b7f4e487b7100000000000000000000000000000000000000000000000000000000600052602160045260246000fd5b60028110611ae757611ae6611aa7565b5b50565b6000819050611af882611ad6565b919050565b6000611b0882611aea565b9050919050565b611b1881611afd565b82525050565b600063ffffffff82169050919050565b611b3781611b1e565b82525050565b600073ffffffffffffffffffffffffffffffffffffffff82169050919050565b6000611b6882611b3d565b9050919050565b611b7881611b5d565b82525050565b6000610140820190508181036000830152611b99818d611a5f565b90508181036020830152611bad818c611a5f565b9050611bbc604083018b611a98565b611bc9606083018a611a98565b611bd66080830189611b0f565b611be360a0830188611b2e565b611bf060c0830187611b2e565b611bfd60e0830186611b2e565b611c0b610100830185611b6f565b611c19610120830184611b6f565b9b9a5050505050505050505050565b600080fd5b600080fd5b7f4e487b7100000000000000000000000000000000000000000000000000000000600052604160045260246000fd5b611c6a82611a4e565b810181811067ffffffffffffffff82111715611c8957611c88611c32565b5b80604052505050565b6000611c9c611991565b9050611ca88282611c61565b919050565b600067ffffffffffffffff821115611cc857611cc7611c32565b5b611cd182611a4e565b9050602081019050919050565b82818337600083830152505050565b6000611d00611cfb84611cad565b611c92565b905082815260208101848484011115611d1c57611d1b611c2d565b5b611d27848285611cde565b509392505050565b600082601f830112611d4457611d43611c28565b5b8135611d54848260208601611ced565b91505092915050565b611d6681611b5d565b8114611d7157600080fd5b50565b600081359050611d8381611d5d565b92915050565b60008060008060008060c08789031215611da657611da561199b565b5b6000611db489828a016119c6565b965050602087013567ffffffffffffffff811115611dd557611dd46119a0565b5b611de189828a01611d2f565b955050604087013567ffffffffffffffff811115611e0257611e016119a0565b5b611e0e89828a01611d2f565b9450506060611e1f89828a016119c6565b9350506080611e3089828a016119c6565b92505060a0611e4189828a01611d74565b9150509295509295509295565b6000602082019050611e636000830184611a98565b92915050565b60008060408385031215611e8057611e7f61199b565b5b6000611e8e858286016119c6565b9250506020611e9f85828601611d74565b9150509250929050565b60028110611eb657600080fd5b50565b600081359050611ec881611ea9565b92915050565b611ed781611b1e565b8114611ee257600080fd5b50565b600081359050611ef481611ece565b92915050565b60008060008060008060c08789031215611f1757611f1661199b565b5b600087013567ffffffffffffffff811115611f3557611f346119a0565b5b611f4189828a01611d2f565b965050602087013567ffffffffffffffff811115611f6257611f616119a0565b5b611f6e89828a01611d2f565b9550506040611f7f89828a016119c6565b9450506060611f9089828a016119c6565b9350506080611fa189828a01611eb9565b92505060a0611fb289828a01611ee5565b9150509295509295509295565b7f4e487b7100000000000000000000000000000000000000000000000000000000600052602260045260246000fd5b6000600282049050600182168061200657607f821691505b60208210810361201957612018611fbf565b5b50919050565b7f4556454e5420444f45534e542045584953540000000000000000000000000000600082015250565b6000612055601283611a13565b91506120608261201f565b602082019050919050565b6000602082019050818103600083015261208481612048565b9050919050565b7f4f4e4c59204f5247414e495a45522043414e2043524541544500000000000000600082015250565b60006120c1601983611a13565b91506120cc8261208b565b602082019050919050565b600060208201905081810360008301526120f0816120b4565b9050919050565b7f5449434b455420414c5245414459204352454154454400000000000000000000600082015250565b600061212d601683611a13565b9150612138826120f7565b602082019050919050565b6000602082019050818103600083015261215c81612120565b9050919050565b600060c0820190506121786000830189611b6f565b818103602083015261218a8188611a5f565b9050818103604083015261219e8187611a5f565b90506121ad6060830186611a98565b6121ba6080830185611a98565b6121c760a0830184611b6f565b979650505050505050565b7f494e56414c494420414444524553530000000000000000000000000000000000600082015250565b6000612208600f83611a13565b9150612213826121d2565b602082019050919050565b60006020820190508181036000830152612237816121fb565b9050919050565b7f4556454e542048415320454e4445440000000000000000000000000000000000600082015250565b6000612274600f83611a13565b915061227f8261223e565b602082019050919050565b600060208201905081810360008301526122a381612267565b9050919050565b7f524547495354524154494f4e20434c4f53454400000000000000000000000000600082015250565b60006122e0601383611a13565b91506122eb826122aa565b602082019050919050565b6000602082019050818103600083015261230f816122d3565b9050919050565b7f414c524541445920524547495354455245440000000000000000000000000000600082015250565b600061234c601283611a13565b915061235782612316565b602082019050919050565b6000602082019050818103600083015261237b8161233f565b9050919050565b7f5469636b6574206e6f7420617661696c61626c65000000000000000000000000600082015250565b60006123b8601483611a13565b91506123c382612382565b602082019050919050565b600060208201905081810360008301526123e7816123ab565b9050919050565b7f4e487b7100000000000000000000000000000000000000000000000000000000600052601160045260246000fd5b600061242882611b1e565b915063ffffffff820361243e5761243d6123ee565b5b600182019050919050565b7f4f4e4c59204f5247414e495a45522043414e20434f4e4649524d000000000000600082015250565b600061247f601a83611a13565b915061248a82612449565b602082019050919050565b600060208201905081810360008301526124ae81612472565b9050919050565b7f415454454e444545204e4f542052454749535445524544000000000000000000600082015250565b60006124eb601783611a13565b91506124f6826124b5565b602082019050919050565b6000602082019050818103600083015261251a816124de565b9050919050565b7f415454454e44454520414c524541445920434845434b454420494e0000000000600082015250565b6000612557601b83611a13565b915061256282612521565b602082019050919050565b600060208201905081810360008301526125868161254a565b9050919050565b60006040820190506125a26000830185611a98565b6125af6020830184611b6f565b9392505050565b7f4556454e54204953204652454521000000000000000000000000000000000000600082015250565b60006125ec600e83611a13565b91506125f7826125b6565b602082019050919050565b6000602082019050818103600083015261261b816125df565b9050919050565b600081519050612631816119af565b92915050565b60006020828403121561264d5761264c61199b565b5b600061265b84828501612622565b91505092915050565b7f494e53554646494349454e54205041594d454e54000000000000000000000000600082015250565b600061269a601483611a13565b91506126a582612664565b602082019050919050565b600060208201905081810360008301526126c98161268d565b9050919050565b60006020820190506126e56000830184611b6f565b92915050565b60006126f6826119a5565b9150612701836119a5565b9250828201905080821115612719576127186123ee565b5b92915050565b7f554e415554484f52495a45442043414c4c455200000000000000000000000000600082015250565b6000612755601383611a13565b91506127608261271f565b602082019050919050565b6000602082019050818103600083015261278481612748565b9050919050565b7f53544152542044415445204d55535420424520494e2046555455524500000000600082015250565b60006127c1601c83611a13565b91506127cc8261278b565b602082019050919050565b600060208201905081810360008301526127f0816127b4565b9050919050565b7f454e4444415445204d5553542042452047524541544552000000000000000000600082015250565b600061282d601783611a13565b9150612838826127f7565b602082019050919050565b6000602082019050818103600083015261285c81612820565b9050919050565b60008190508160005260206000209050919050565b60006020601f8301049050919050565b600082821b905092915050565b6000600883026128c57fffffffffffffffffffffffffffffffffffffffffffffffffffffffffffffffff82612888565b6128cf8683612888565b95508019841693508086168417925050509392505050565b6000819050919050565b600061290c612907612902846119a5565b6128e7565b6119a5565b9050919050565b6000819050919050565b612926836128f1565b61293a61293282612913565b848454612895565b825550505050565b600090565b61294f612942565b61295a81848461291d565b505050565b5b8181101561297e57612973600082612947565b600181019050612960565b5050565b601f8211156129c35761299481612863565b61299d84612878565b810160208510156129ac578190505b6129c06129b885612878565b83018261295f565b50505b505050565b600082821c905092915050565b60006129e6600019846008026129c8565b1980831691505092915050565b60006129ff83836129d5565b9150826002028217905092915050565b612a1882611a08565b67ffffffffffffffff811115612a3157612a30611c32565b5b612a3b8254611fee565b612a46828285612982565b600060209050601f831160018114612a795760008415612a67578287015190505b612a7185826129f3565b865550612ad9565b601f198416612a8786612863565b60005b82811015612aaf57848901518255600182019150602085019450602081019050612a8a565b86831015612acc5784890151612ac8601f8916826129d5565b8355505b6001600288020188555050505b50505050505056fe608060405234801561001057600080fd5b50604051612ee0380380612ee083398181016040528101906100329190610443565b3385858160009081610044919061071f565b508060019081610054919061071f565b505050600073ffffffffffffffffffffffffffffffffffffffff168173ffffffffffffffffffffffffffffffffffffffff16036100c95760006040517f1e4fbdf70000000000000000000000000000000000000000000000000000000081526004016100c09190610800565b60405180910390fd5b6100d88161017460201b60201c565b508260098190555085600a60006101000a81548173ffffffffffffffffffffffffffffffffffffffff021916908373ffffffffffffffffffffffffffffffffffffffff16021790555081600c8190555080600b60006101000a81548173ffffffffffffffffffffffffffffffffffffffff021916908373ffffffffffffffffffffffffffffffffffffffff16021790555050505050505061081b565b6000600760009054906101000a900473ffffffffffffffffffffffffffffffffffffffff16905081600760006101000a81548173ffffffffffffffffffffffffffffffffffffffff021916908373ffffffffffffffffffffffffffffffffffffffff1602179055508173ffffffffffffffffffffffffffffffffffffffff168173ffffffffffffffffffffffffffffffffffffffff167f8be0079c531659141344cd1fd0a4f28419497f9722a3daafe3b4186f6b6457e060405160405180910390a35050565b6000604051905090565b600080fd5b600080fd5b600073ffffffffffffffffffffffffffffffffffffffff82169050919050565b60006102798261024e565b9050919050565b6102898161026e565b811461029457600080fd5b50565b6000815190506102a681610280565b92915050565b600080fd5b600080fd5b6000601f19601f8301169050919050565b7f4e487b7100000000000000000000000000000000000000000000000000000000600052604160045260246000fd5b6102ff826102b6565b810181811067ffffffffffffffff8211171561031e5761031d6102c7565b5b80604052505050565b600061033161023a565b905061033d82826102f6565b919050565b600067ffffffffffffffff82111561035d5761035c6102c7565b5b610366826102b6565b9050602081019050919050565b60005b83811015610391578082015181840152602081019050610376565b60008484015250505050565b60006103b06103ab84610342565b610327565b9050828152602081018484840111156103cc576103cb6102b1565b5b6103d7848285610373565b509392505050565b600082601f8301126103f4576103f36102ac565b5b815161040484826020860161039d565b91505092915050565b6000819050919050565b6104208161040d565b811461042b57600080fd5b50565b60008151905061043d81610417565b92915050565b60008060008060008060c087890312156104605761045f610244565b5b600061046e89828a01610297565b965050602087015167ffffffffffffffff81111561048f5761048e610249565b5b61049b89828a016103df565b955050604087015167ffffffffffffffff8111156104bc576104bb610249565b5b6104c889828a016103df565b94505060606104d989828a0161042e565b93505060806104ea89828a0161042e565b92505060a06104fb89828a01610297565b9150509295509295509295565b600081519050919050565b7f4e487b7100000000000000000000000000000000000000000000000000000000600052602260045260246000fd5b6000600282049050600182168061055a57607f821691505b60208210810361056d5761056c610513565b5b50919050565b60008190508160005260206000209050919050565b60006020601f8301049050919050565b600082821b905092915050565b6000600883026105d57fffffffffffffffffffffffffffffffffffffffffffffffffffffffffffffffff82610598565b6105df8683610598565b95508019841693508086168417925050509392505050565b6000819050919050565b600061061c6106176106128461040d565b6105f7565b61040d565b9050919050565b6000819050919050565b61063683610601565b61064a61064282610623565b8484546105a5565b825550505050565b600090565b61065f610652565b61066a81848461062d565b505050565b5b8181101561068e57610683600082610657565b600181019050610670565b5050565b601f8211156106d3576106a481610573565b6106ad84610588565b810160208510156106bc578190505b6106d06106c885610588565b83018261066f565b50505b505050565b600082821c905092915050565b60006106f6600019846008026106d8565b1980831691505092915050565b600061070f83836106e5565b9150826002028217905092915050565b61072882610508565b67ffffffffffffffff811115610741576107406102c7565b5b61074b8254610542565b610756828285610692565b600060209050601f8311600181146107895760008415610777578287015190505b6107818582610703565b8655506107e9565b601f19841661079786610573565b60005b828110156107bf5784890151825560018201915060208501945060208101905061079a565b868310156107dc57848901516107d8601f8916826106e5565b8355505b6001600288020188555050505b505050505050565b6107fa8161026e565b82525050565b600060208201905061081560008301846107f1565b92915050565b6126b68061082a6000396000f3fe60806040526004361061012a5760003560e01c8063715018a6116100ab578063a22cb4651161006f578063a22cb465146103e5578063b88d4fde1461040e578063c373ec8d14610437578063c87b56dd14610462578063e985e9c51461049f578063f2fde38b146104dc5761012a565b8063715018a6146103105780637556c67e146103275780638da5cb5b1461036457806395d89b411461038f578063966dae0e146103ba5761012a565b806323b872dd116100f257806323b872dd1461022857806342842e0e146102515780636352211e1461027a5780636a627842146102b757806370a08231146102d35761012a565b806301ffc9a71461012f57806306fdde031461016c578063081812fc14610197578063095ea7b3146101d45780631209b1f6146101fd575b600080fd5b34801561013b57600080fd5b5061015660048036038101906101519190611db1565b610505565b6040516101639190611df9565b60405180910390f35b34801561017857600080fd5b50610181610566565b60405161018e9190611ea4565b60405180910390f35b3480156101a357600080fd5b506101be60048036038101906101b99190611efc565b6105f8565b6040516101cb9190611f6a565b60405180910390f35b3480156101e057600080fd5b506101fb60048036038101906101f69190611fb1565b610614565b005b34801561020957600080fd5b5061021261062a565b60405161021f9190612000565b60405180910390f35b34801561023457600080fd5b5061024f600480360381019061024a919061201b565b610630565b005b34801561025d57600080fd5b506102786004803603810190610273919061201b565b610732565b005b34801561028657600080fd5b506102a1600480360381019061029c9190611efc565b610752565b6040516102ae9190611f6a565b60405180910390f35b6102d160048036038101906102cc919061206e565b610764565b005b3480156102df57600080fd5b506102fa60048036038101906102f5919061206e565b6108da565b6040516103079190612000565b60405180910390f35b34801561031c57600080fd5b50610325610994565b005b34801561033357600080fd5b5061034e6004803603810190610349919061206e565b6109a8565b60405161035b9190612000565b60405180910390f35b34801561037057600080fd5b506103796109c0565b6040516103869190611f6a565b60405180910390f35b34801561039b57600080fd5b506103a46109ea565b6040516103b19190611ea4565b60405180910390f35b3480156103c657600080fd5b506103cf610a7c565b6040516103dc9190611f6a565b60405180910390f35b3480156103f157600080fd5b5061040c600480360381019061040791906120c7565b610aa2565b005b34801561041a57600080fd5b506104356004803603810190610430919061223c565b610ab8565b005b34801561044357600080fd5b5061044c610add565b6040516104599190611f6a565b60405180910390f35b34801561046e57600080fd5b5061048960048036038101906104849190611efc565b610b03565b6040516104969190611ea4565b60405180910390f35b3480156104ab57600080fd5b506104c660048036038101906104c191906122bf565b610c16565b6040516104d39190611df9565b60405180910390f35b3480156104e857600080fd5b5061050360048036038101906104fe919061206e565b610caa565b005b6000634906490660e01b7bffffffffffffffffffffffffffffffffffffffffffffffffffffffff1916827bffffffffffffffffffffffffffffffffffffffffffffffffffffffff1916148061055f575061055e82610d30565b5b9050919050565b6060600080546105759061232e565b80601f01602080910402602001604051908101604052809291908181526020018280546105a19061232e565b80156105ee5780601f106105c3576101008083540402835291602001916105ee565b820191906000526020600020905b8154815290600101906020018083116105d157829003601f168201915b5050505050905090565b600061060382610e12565b5061060d82610e9a565b9050919050565b6106268282610621610ed7565b610edf565b5050565b60095481565b600073ffffffffffffffffffffffffffffffffffffffff168273ffffffffffffffffffffffffffffffffffffffff16036106a25760006040517f64a0ae920000000000000000000000000000000000000000000000000000000081526004016106999190611f6a565b60405180910390fd5b60006106b683836106b1610ed7565b610ef1565b90508373ffffffffffffffffffffffffffffffffffffffff168173ffffffffffffffffffffffffffffffffffffffff161461072c578382826040517f64283d7b0000000000000000000000000000000000000000000000000000000081526004016107239392919061235f565b60405180910390fd5b50505050565b61074d83838360405180602001604052806000815250610ab8565b505050565b600061075d82610e12565b9050919050565b600c54600d60008373ffffffffffffffffffffffffffffffffffffffff1673ffffffffffffffffffffffffffffffffffffffff16815260200190815260200160002054106107e7576040517f08c379a00000000000000000000000000000000000000000000000000000000081526004016107de906123e2565b60405180910390fd5b6000600954111561083857600954341015610837576040517f08c379a000000000000000000000000000000000000000000000000000000000815260040161082e9061244e565b60405180910390fd5b5b6008600081548092919061084b9061249d565b919050555060006008549050610861828261110b565b600060095411156108d657600b60009054906101000a900473ffffffffffffffffffffffffffffffffffffffff1673ffffffffffffffffffffffffffffffffffffffff166108fc349081150290604051600060405180830381858888f193505050501580156108d4573d6000803e3d6000fd5b505b5050565b60008073ffffffffffffffffffffffffffffffffffffffff168273ffffffffffffffffffffffffffffffffffffffff160361094d5760006040517f89c62b640000000000000000000000000000000000000000000000000000000081526004016109449190611f6a565b60405180910390fd5b600360008373ffffffffffffffffffffffffffffffffffffffff1673ffffffffffffffffffffffffffffffffffffffff168152602001908152602001600020549050919050565b61099c611129565b6109a660006111b0565b565b600d6020528060005260406000206000915090505481565b6000600760009054906101000a900473ffffffffffffffffffffffffffffffffffffffff16905090565b6060600180546109f99061232e565b80601f0160208091040260200160405190810160405280929190818152602001828054610a259061232e565b8015610a725780601f10610a4757610100808354040283529160200191610a72565b820191906000526020600020905b815481529060010190602001808311610a5557829003601f168201915b5050505050905090565b600a60009054906101000a900473ffffffffffffffffffffffffffffffffffffffff1681565b610ab4610aad610ed7565b8383611276565b5050565b610ac3848484610630565b610ad7610ace610ed7565b858585856113e5565b50505050565b600b60009054906101000a900473ffffffffffffffffffffffffffffffffffffffff1681565b6060610b0e82610e12565b506000600660008481526020019081526020016000208054610b2f9061232e565b80601f0160208091040260200160405190810160405280929190818152602001828054610b5b9061232e565b8015610ba85780601f10610b7d57610100808354040283529160200191610ba8565b820191906000526020600020905b815481529060010190602001808311610b8b57829003601f168201915b505050505090506000610bb9611596565b90506000815103610bce578192505050610c11565b600082511115610c03578082604051602001610beb929190612521565b60405160208183030381529060405292505050610c11565b610c0c846115ad565b925050505b919050565b6000600560008473ffffffffffffffffffffffffffffffffffffffff1673ffffffffffffffffffffffffffffffffffffffff16815260200190815260200160002060008373ffffffffffffffffffffffffffffffffffffffff1673ffffffffffffffffffffffffffffffffffffffff16815260200190815260200160002060009054906101000a900460ff16905092915050565b610cb2611129565b600073ffffffffffffffffffffffffffffffffffffffff168173ffffffffffffffffffffffffffffffffffffffff1603610d245760006040517f1e4fbdf7000000000000000000000000000000000000000000000000000000008152600401610d1b9190611f6a565b60405180910390fd5b610d2d816111b0565b50565b60007f80ac58cd000000000000000000000000000000000000000000000000000000007bffffffffffffffffffffffffffffffffffffffffffffffffffffffff1916827bffffffffffffffffffffffffffffffffffffffffffffffffffffffff19161480610dfb57507f5b5e139f000000000000000000000000000000000000000000000000000000007bffffffffffffffffffffffffffffffffffffffffffffffffffffffff1916827bffffffffffffffffffffffffffffffffffffffffffffffffffffffff1916145b80610e0b5750610e0a82611616565b5b9050919050565b600080610e1e83611680565b9050600073ffffffffffffffffffffffffffffffffffffffff168173ffffffffffffffffffffffffffffffffffffffff1603610e9157826040517f7e273289000000000000000000000000000000000000000000000000000000008152600401610e889190612000565b60405180910390fd5b80915050919050565b60006004600083815260200190815260200160002060009054906101000a900473ffffffffffffffffffffffffffffffffffffffff169050919050565b600033905090565b610eec83838360016116bd565b505050565b600080610efd84611680565b9050600073ffffffffffffffffffffffffffffffffffffffff168373ffffffffffffffffffffffffffffffffffffffff1614610f3f57610f3e818486611882565b5b600073ffffffffffffffffffffffffffffffffffffffff168173ffffffffffffffffffffffffffffffffffffffff1614610fd057610f816000856000806116bd565b6001600360008373ffffffffffffffffffffffffffffffffffffffff1673ffffffffffffffffffffffffffffffffffffffff168152602001908152602001600020600082825403925050819055505b600073ffffffffffffffffffffffffffffffffffffffff168573ffffffffffffffffffffffffffffffffffffffff1614611053576001600360008773ffffffffffffffffffffffffffffffffffffffff1673ffffffffffffffffffffffffffffffffffffffff168152602001908152602001600020600082825401925050819055505b846002600086815260200190815260200160002060006101000a81548173ffffffffffffffffffffffffffffffffffffffff021916908373ffffffffffffffffffffffffffffffffffffffff160217905550838573ffffffffffffffffffffffffffffffffffffffff168273ffffffffffffffffffffffffffffffffffffffff167fddf252ad1be2c89b69c2b068fc378daa952ba7f163c4a11628f55a4df523b3ef60405160405180910390a4809150509392505050565b611125828260405180602001604052806000815250611946565b5050565b611131610ed7565b73ffffffffffffffffffffffffffffffffffffffff1661114f6109c0565b73ffffffffffffffffffffffffffffffffffffffff16146111ae57611172610ed7565b6040517f118cdaa70000000000000000000000000000000000000000000000000000000081526004016111a59190611f6a565b60405180910390fd5b565b6000600760009054906101000a900473ffffffffffffffffffffffffffffffffffffffff16905081600760006101000a81548173ffffffffffffffffffffffffffffffffffffffff021916908373ffffffffffffffffffffffffffffffffffffffff1602179055508173ffffffffffffffffffffffffffffffffffffffff168173ffffffffffffffffffffffffffffffffffffffff167f8be0079c531659141344cd1fd0a4f28419497f9722a3daafe3b4186f6b6457e060405160405180910390a35050565b600073ffffffffffffffffffffffffffffffffffffffff168273ffffffffffffffffffffffffffffffffffffffff16036112e757816040517f5b08ba180000000000000000000000000000000000000000000000000000000081526004016112de9190611f6a565b60405180910390fd5b80600560008573ffffffffffffffffffffffffffffffffffffffff1673ffffffffffffffffffffffffffffffffffffffff16815260200190815260200160002060008473ffffffffffffffffffffffffffffffffffffffff1673ffffffffffffffffffffffffffffffffffffffff16815260200190815260200160002060006101000a81548160ff0219169083151502179055508173ffffffffffffffffffffffffffffffffffffffff168373ffffffffffffffffffffffffffffffffffffffff167f17307eab39ab6107e8899845ad3d59bd9653f200f220920489ca2b5937696c31836040516113d89190611df9565b60405180910390a3505050565b60008373ffffffffffffffffffffffffffffffffffffffff163b111561158f578273ffffffffffffffffffffffffffffffffffffffff1663150b7a02868685856040518563ffffffff1660e01b8152600401611444949392919061259a565b6020604051808303816000875af192505050801561148057506040513d601f19601f8201168201806040525081019061147d91906125fb565b60015b611504573d80600081146114b0576040519150601f19603f3d011682016040523d82523d6000602084013e6114b5565b606091505b5060008151036114fc57836040517f64a0ae920000000000000000000000000000000000000000000000000000000081526004016114f39190611f6a565b60405180910390fd5b805181602001fd5b63150b7a0260e01b7bffffffffffffffffffffffffffffffffffffffffffffffffffffffff1916817bffffffffffffffffffffffffffffffffffffffffffffffffffffffff19161461158d57836040517f64a0ae920000000000000000000000000000000000000000000000000000000081526004016115849190611f6a565b60405180910390fd5b505b5050505050565b606060405180602001604052806000815250905090565b60606115b882610e12565b5060006115c3611596565b905060008151116115e3576040518060200160405280600081525061160e565b806115ed8461196a565b6040516020016115fe929190612521565b6040516020818303038152906040525b915050919050565b60007f01ffc9a7000000000000000000000000000000000000000000000000000000007bffffffffffffffffffffffffffffffffffffffffffffffffffffffff1916827bffffffffffffffffffffffffffffffffffffffffffffffffffffffff1916149050919050565b60006002600083815260200190815260200160002060009054906101000a900473ffffffffffffffffffffffffffffffffffffffff169050919050565b80806116f65750600073ffffffffffffffffffffffffffffffffffffffff168273ffffffffffffffffffffffffffffffffffffffff1614155b1561182a57600061170684610e12565b9050600073ffffffffffffffffffffffffffffffffffffffff168373ffffffffffffffffffffffffffffffffffffffff161415801561177157508273ffffffffffffffffffffffffffffffffffffffff168173ffffffffffffffffffffffffffffffffffffffff1614155b801561178457506117828184610c16565b155b156117c657826040517fa9fbf51f0000000000000000000000000000000000000000000000000000000081526004016117bd9190611f6a565b60405180910390fd5b811561182857838573ffffffffffffffffffffffffffffffffffffffff168273ffffffffffffffffffffffffffffffffffffffff167f8c5be1e5ebec7d5bd14f71427d1e84f3dd0314c0f7b2291e5b200ac8c7c3b92560405160405180910390a45b505b836004600085815260200190815260200160002060006101000a81548173ffffffffffffffffffffffffffffffffffffffff021916908373ffffffffffffffffffffffffffffffffffffffff16021790555050505050565b61188d838383611a38565b61194157600073ffffffffffffffffffffffffffffffffffffffff168373ffffffffffffffffffffffffffffffffffffffff160361190257806040517f7e2732890000000000000000000000000000000000000000000000000000000081526004016118f99190612000565b60405180910390fd5b81816040517f177e802f000000000000000000000000000000000000000000000000000000008152600401611938929190612628565b60405180910390fd5b505050565b6119508383611af9565b61196561195b610ed7565b60008585856113e5565b505050565b60606000600161197984611bf2565b01905060008167ffffffffffffffff81111561199857611997612111565b5b6040519080825280601f01601f1916602001820160405280156119ca5781602001600182028036833780820191505090505b509050600082602001820190505b600115611a2d578080600190039150507f3031323334353637383961626364656600000000000000000000000000000000600a86061a8153600a8581611a2157611a20612651565b5b049450600085036119d8575b819350505050919050565b60008073ffffffffffffffffffffffffffffffffffffffff168373ffffffffffffffffffffffffffffffffffffffff1614158015611af057508273ffffffffffffffffffffffffffffffffffffffff168473ffffffffffffffffffffffffffffffffffffffff161480611ab15750611ab08484610c16565b5b80611aef57508273ffffffffffffffffffffffffffffffffffffffff16611ad783610e9a565b73ffffffffffffffffffffffffffffffffffffffff16145b5b90509392505050565b600073ffffffffffffffffffffffffffffffffffffffff168273ffffffffffffffffffffffffffffffffffffffff1603611b6b5760006040517f64a0ae92000000000000000000000000000000000000000000000000000000008152600401611b629190611f6a565b60405180910390fd5b6000611b7983836000610ef1565b9050600073ffffffffffffffffffffffffffffffffffffffff168173ffffffffffffffffffffffffffffffffffffffff1614611bed5760006040517f73c6ac6e000000000000000000000000000000000000000000000000000000008152600401611be49190611f6a565b60405180910390fd5b505050565b600080600090507a184f03e93ff9f4daa797ed6e38ed64bf6a1f0100000000000000008310611c50577a184f03e93ff9f4daa797ed6e38ed64bf6a1f0100000000000000008381611c4657611c45612651565b5b0492506040810190505b6d04ee2d6d415b85acef81000000008310611c8d576d04ee2d6d415b85acef81000000008381611c8357611c82612651565b5b0492506020810190505b662386f26fc100008310611cbc57662386f26fc100008381611cb257611cb1612651565b5b0492506010810190505b6305f5e1008310611ce5576305f5e1008381611cdb57611cda612651565b5b0492506008810190505b6127108310611d0a576127108381611d0057611cff612651565b5b0492506004810190505b60648310611d2d5760648381611d2357611d22612651565b5b0492506002810190505b600a8310611d3c576001810190505b80915050919050565b6000604051905090565b600080fd5b600080fd5b60007fffffffff0000000000000000000000000000000000000000000000000000000082169050919050565b611d8e81611d59565b8114611d9957600080fd5b50565b600081359050611dab81611d85565b92915050565b600060208284031215611dc757611dc6611d4f565b5b6000611dd584828501611d9c565b91505092915050565b60008115159050919050565b611df381611dde565b82525050565b6000602082019050611e0e6000830184611dea565b92915050565b600081519050919050565b600082825260208201905092915050565b60005b83811015611e4e578082015181840152602081019050611e33565b60008484015250505050565b6000601f19601f8301169050919050565b6000611e7682611e14565b611e808185611e1f565b9350611e90818560208601611e30565b611e9981611e5a565b840191505092915050565b60006020820190508181036000830152611ebe8184611e6b565b905092915050565b6000819050919050565b611ed981611ec6565b8114611ee457600080fd5b50565b600081359050611ef681611ed0565b92915050565b600060208284031215611f1257611f11611d4f565b5b6000611f2084828501611ee7565b91505092915050565b600073ffffffffffffffffffffffffffffffffffffffff82169050919050565b6000611f5482611f29565b9050919050565b611f6481611f49565b82525050565b6000602082019050611f7f6000830184611f5b565b92915050565b611f8e81611f49565b8114611f9957600080fd5b50565b600081359050611fab81611f85565b92915050565b60008060408385031215611fc857611fc7611d4f565b5b6000611fd685828601611f9c565b9250506020611fe785828601611ee7565b9150509250929050565b611ffa81611ec6565b82525050565b60006020820190506120156000830184611ff1565b92915050565b60008060006060848603121561203457612033611d4f565b5b600061204286828701611f9c565b935050602061205386828701611f9c565b925050604061206486828701611ee7565b9150509250925092565b60006020828403121561208457612083611d4f565b5b600061209284828501611f9c565b91505092915050565b6120a481611dde565b81146120af57600080fd5b50565b6000813590506120c18161209b565b92915050565b600080604083850312156120de576120dd611d4f565b5b60006120ec85828601611f9c565b92505060206120fd858286016120b2565b9150509250929050565b600080fd5b600080fd5b7f4e487b7100000000000000000000000000000000000000000000000000000000600052604160045260246000fd5b61214982611e5a565b810181811067ffffffffffffffff8211171561216857612167612111565b5b80604052505050565b600061217b611d45565b90506121878282612140565b919050565b600067ffffffffffffffff8211156121a7576121a6612111565b5b6121b082611e5a565b9050602081019050919050565b82818337600083830152505050565b60006121df6121da8461218c565b612171565b9050828152602081018484840111156121fb576121fa61210c565b5b6122068482856121bd565b509392505050565b600082601f83011261222357612222612107565b5b81356122338482602086016121cc565b91505092915050565b6000806000806080858703121561225657612255611d4f565b5b600061226487828801611f9c565b945050602061227587828801611f9c565b935050604061228687828801611ee7565b925050606085013567ffffffffffffffff8111156122a7576122a6611d54565b5b6122b38782880161220e565b91505092959194509250565b600080604083850312156122d6576122d5611d4f565b5b60006122e485828601611f9c565b92505060206122f585828601611f9c565b9150509250929050565b7f4e487b7100000000000000000000000000000000000000000000000000000000600052602260045260246000fd5b6000600282049050600182168061234657607f821691505b602082108103612359576123586122ff565b5b50919050565b60006060820190506123746000830186611f5b565b6123816020830185611ff1565b61238e6040830184611f5b565b949350505050565b7f4c696d6974207265616368656400000000000000000000000000000000000000600082015250565b60006123cc600d83611e1f565b91506123d782612396565b602082019050919050565b600060208201905081810360008301526123fb816123bf565b9050919050565b7f494e53554646494349454e542042414c414e4345000000000000000000000000600082015250565b6000612438601483611e1f565b915061244382612402565b602082019050919050565b600060208201905081810360008301526124678161242b565b9050919050565b7f4e487b7100000000000000000000000000000000000000000000000000000000600052601160045260246000fd5b60006124a882611ec6565b91507fffffffffffffffffffffffffffffffffffffffffffffffffffffffffffffffff82036124da576124d961246e565b5b600182019050919050565b600081905092915050565b60006124fb82611e14565b61250581856124e5565b9350612515818560208601611e30565b80840191505092915050565b600061252d82856124f0565b915061253982846124f0565b91508190509392505050565b600081519050919050565b600082825260208201905092915050565b600061256c82612545565b6125768185612550565b9350612586818560208601611e30565b61258f81611e5a565b840191505092915050565b60006080820190506125af6000830187611f5b565b6125bc6020830186611f5b565b6125c96040830185611ff1565b81810360608301526125db8184612561565b905095945050505050565b6000815190506125f581611d85565b92915050565b60006020828403121561261157612610611d4f565b5b600061261f848285016125e6565b91505092915050565b600060408201905061263d6000830185611f5b565b61264a6020830184611ff1565b9392505050565b7f4e487b7100000000000000000000000000000000000000000000000000000000600052601260045260246000fdfea26469706673582212203685cb3f1c726e39b6ea7cd78098c1c9e3f918a3d1061ec86aaf8dbcf12405a564736f6c634300081c0033a26469706673582212208016dfb21ceb624bd1570f93807746491c5da83960c5ac083a5596031584b33764736f6c634300081c0033",
  "linkReferences": {},
  "deployedLinkReferences": {}
}