{
  "_format": "hh-sol-artifact-1",
  "contractName": "OurPiggyBank",
  "sourceName": "contracts/piggyBank.sol",
  "abi": [
    {
      "inputs": [
        {
          "internalType": "uint256",
          "name": "_targetAmount",
          "type": "uint256"
        },
        {
          "internalType": "uint256",
          "name": "_withdrawalDate",
          "type": "uint256"
        },
        {
          "internalType": "address",
          "name": "_manager",
          "type": "address"
        },
        {
          "internalType": "address",
          "name": "_tokenAddress",
          "type": "address"
        },
        {
          "internalType": "address",
          "name": "_nftAddress",
          "type": "address"
        }
      ],
      "stateMutability": "nonpayable",
      "type": "constructor"
    },
    {
      "anonymous": false,
      "inputs": [
        {
          "indexed": true,
          "internalType": "address",
          "name": "Contributor",
          "type": "address"
        },
        {
          "indexed": false,
          "internalType": "uint256",
          "name": "amount",
          "type": "uint256"
        },
        {
          "indexed": false,
          "internalType": "uint256",
          "name": "time",
          "type": "uint256"
        }
      ],
      "name": "Contributed",
      "type": "event"
    },
    {
      "anonymous": false,
      "inputs": [
        {
          "indexed": true,
          "internalType": "address",
          "name": "user",
          "type": "address"
        }
      ],
      "name": "NFTMinted",
      "type": "event"
    },
    {
      "anonymous": false,
      "inputs": [
        {
          "indexed": false,
          "internalType": "uint256",
          "name": "amount",
          "type": "uint256"
        },
        {
          "indexed": false,
          "internalType": "uint256",
          "name": "time",
          "type": "uint256"
        }
      ],
      "name": "Withdrawn",
      "type": "event"
    },
    {
      "inputs": [
        {
          "internalType": "address",
          "name": "",
          "type": "address"
        }
      ],
      "name": "contributionCount",
      "outputs": [
        {
          "internalType": "uint256",
          "name": "",
          "type": "uint256"
        }
      ],
      "stateMutability": "view",
      "type": "function"
    },
    {
      "inputs": [
        {
          "internalType": "address",
          "name": "",
          "type": "address"
        }
      ],
      "name": "contributions",
      "outputs": [
        {
          "internalType": "uint256",
          "name": "",
          "type": "uint256"
        }
      ],
      "stateMutability": "view",
      "type": "function"
    },
    {
      "inputs": [],
      "name": "contributorsCount",
      "outputs": [
        {
          "internalType": "uint8",
          "name": "",
          "type": "uint8"
        }
      ],
      "stateMutability": "view",
      "type": "function"
    },
    {
      "inputs": [],
      "name": "cxii",
      "outputs": [
        {
          "internalType": "contract IERC20",
          "name": "",
          "type": "address"
        }
      ],
      "stateMutability": "view",
      "type": "function"
    },
    {
      "inputs": [
        {
          "internalType": "address",
          "name": "",
          "type": "address"
        }
      ],
      "name": "hasNFT",
      "outputs": [
        {
          "internalType": "bool",
          "name": "",
          "type": "bool"
        }
      ],
      "stateMutability": "view",
      "type": "function"
    },
    {
      "inputs": [],
      "name": "manager",
      "outputs": [
        {
          "internalType": "address",
          "name": "",
          "type": "address"
        }
      ],
      "stateMutability": "view",
      "type": "function"
    },
    {
      "inputs": [],
      "name": "nftContract",
      "outputs": [
        {
          "internalType": "contract IOurERC721",
          "name": "",
          "type": "address"
        }
      ],
      "stateMutability": "view",
      "type": "function"
    },
    {
      "inputs": [
        {
          "internalType": "uint256",
          "name": "_amount",
          "type": "uint256"
        }
      ],
      "name": "save",
      "outputs": [],
      "stateMutability": "nonpayable",
      "type": "function"
    },
    {
      "inputs": [],
      "name": "targetAmount",
      "outputs": [
        {
          "internalType": "uint256",
          "name": "",
          "type": "uint256"
        }
      ],
      "stateMutability": "view",
      "type": "function"
    },
    {
      "inputs": [],
      "name": "withdrawal",
      "outputs": [],
      "stateMutability": "nonpayable",
      "type": "function"
    },
    {
      "inputs": [],
      "name": "withdrawalDate",
      "outputs": [
        {
          "internalType": "uint256",
          "name": "",
          "type": "uint256"
        }
      ],
      "stateMutability": "view",
      "type": "function"
    }
  ],
  "bytecode": "0x60a060405234801561001057600080fd5b506040516115df3803806115df833981810160405281019061003291906101e9565b428411610074576040517f08c379a000000000000000000000000000000000000000000000000000000000815260040161006b906102c1565b60405180910390fd5b84600081905550836080818152505082600260016101000a81548173ffffffffffffffffffffffffffffffffffffffff021916908373ffffffffffffffffffffffffffffffffffffffff16021790555081600360006101000a81548173ffffffffffffffffffffffffffffffffffffffff021916908373ffffffffffffffffffffffffffffffffffffffff16021790555080600460006101000a81548173ffffffffffffffffffffffffffffffffffffffff021916908373ffffffffffffffffffffffffffffffffffffffff16021790555050505050506102e1565b600080fd5b6000819050919050565b61016881610155565b811461017357600080fd5b50565b6000815190506101858161015f565b92915050565b600073ffffffffffffffffffffffffffffffffffffffff82169050919050565b60006101b68261018b565b9050919050565b6101c6816101ab565b81146101d157600080fd5b50565b6000815190506101e3816101bd565b92915050565b600080600080600060a0868803121561020557610204610150565b5b600061021388828901610176565b955050602061022488828901610176565b9450506040610235888289016101d4565b9350506060610246888289016101d4565b9250506080610257888289016101d4565b9150509295509295909350565b600082825260208201905092915050565b7f5749544844524157414c204d55535420424520494e2046555455524500000000600082015250565b60006102ab601c83610264565b91506102b682610275565b602082019050919050565b600060208201905081810360008301526102da8161029e565b9050919050565b6080516112d561030a600039600081816102a1015281816107e501526108c501526112d56000f3fe608060405234801561001057600080fd5b50600436106100a95760003560e01c8063785f8ee311610071578063785f8ee3146101665780638261051f146101965780638eaccb85146101b4578063953b8fb8146101d2578063d4e93292146101f0578063d56d229d146101fa576100a9565b806305295cba146100ae5780631b862027146100de57806342e94c90146100fa578063481c6a751461012a5780637569b3d714610148575b600080fd5b6100c860048036038101906100c39190610bd7565b610218565b6040516100d59190610c1d565b60405180910390f35b6100f860048036038101906100f39190610c64565b610230565b005b610114600480360381019061010f9190610bd7565b610772565b6040516101219190610c1d565b60405180910390f35b61013261078a565b60405161013f9190610ca0565b60405180910390f35b6101506107b0565b60405161015d9190610cd7565b60405180910390f35b610180600480360381019061017b9190610bd7565b6107c3565b60405161018d9190610d0d565b60405180910390f35b61019e6107e3565b6040516101ab9190610c1d565b60405180910390f35b6101bc610807565b6040516101c99190610d87565b60405180910390f35b6101da61082d565b6040516101e79190610c1d565b60405180910390f35b6101f8610833565b005b610202610b4e565b60405161020f9190610dc3565b60405180910390f35b60056020528060005260406000206000915090505481565b600073ffffffffffffffffffffffffffffffffffffffff163373ffffffffffffffffffffffffffffffffffffffff160361029f576040517f08c379a000000000000000000000000000000000000000000000000000000000815260040161029690610e3b565b60405180910390fd5b7f0000000000000000000000000000000000000000000000000000000000000000421115610302576040517f08c379a00000000000000000000000000000000000000000000000000000000081526004016102f990610ea7565b60405180910390fd5b60008111610345576040517f08c379a000000000000000000000000000000000000000000000000000000000815260040161033c90610f13565b60405180910390fd5b6000600360009054906101000a900473ffffffffffffffffffffffffffffffffffffffff1673ffffffffffffffffffffffffffffffffffffffff166323b872dd3330856040518463ffffffff1660e01b81526004016103a693929190610f33565b6020604051808303816000875af11580156103c5573d6000803e3d6000fd5b505050506040513d601f19601f820116820180604052508101906103e99190610f96565b90508061042b576040517f08c379a00000000000000000000000000000000000000000000000000000000081526004016104229061100f565b60405180910390fd5b6000600160003373ffffffffffffffffffffffffffffffffffffffff1673ffffffffffffffffffffffffffffffffffffffff16815260200190815260200160002054036104aa576001600260008282829054906101000a900460ff16610491919061105e565b92506101000a81548160ff021916908360ff1602179055505b6001600560003373ffffffffffffffffffffffffffffffffffffffff1673ffffffffffffffffffffffffffffffffffffffff16815260200190815260200160002060008282546104fa9190611093565b925050819055506002600560003373ffffffffffffffffffffffffffffffffffffffff1673ffffffffffffffffffffffffffffffffffffffff1681526020019081526020016000205414801561059a5750600660003373ffffffffffffffffffffffffffffffffffffffff1673ffffffffffffffffffffffffffffffffffffffff16815260200190815260200160002060009054906101000a900460ff16155b156106c857600460009054906101000a900473ffffffffffffffffffffffffffffffffffffffff1673ffffffffffffffffffffffffffffffffffffffff16636a627842336040518263ffffffff1660e01b81526004016105fa9190610ca0565b600060405180830381600087803b15801561061457600080fd5b505af1158015610628573d6000803e3d6000fd5b505050506001600660003373ffffffffffffffffffffffffffffffffffffffff1673ffffffffffffffffffffffffffffffffffffffff16815260200190815260200160002060006101000a81548160ff0219169083151502179055503373ffffffffffffffffffffffffffffffffffffffff167f5fa41db5e47ff1475562c0ce3ae7cfb8b3871c210095b651c6d203e662354a2a60405160405180910390a25b81600160003373ffffffffffffffffffffffffffffffffffffffff1673ffffffffffffffffffffffffffffffffffffffff16815260200190815260200160002060008282546107179190611093565b925050819055503373ffffffffffffffffffffffffffffffffffffffff167ffa35a310d7113dddce1c275da946348e9aaebf9050b00b372033c4d84b0bd6eb83426040516107669291906110c7565b60405180910390a25050565b60016020528060005260406000206000915090505481565b600260019054906101000a900473ffffffffffffffffffffffffffffffffffffffff1681565b600260009054906101000a900460ff1681565b60066020528060005260406000206000915054906101000a900460ff1681565b7f000000000000000000000000000000000000000000000000000000000000000081565b600360009054906101000a900473ffffffffffffffffffffffffffffffffffffffff1681565b60005481565b600260019054906101000a900473ffffffffffffffffffffffffffffffffffffffff1673ffffffffffffffffffffffffffffffffffffffff163373ffffffffffffffffffffffffffffffffffffffff16146108c3576040517f08c379a00000000000000000000000000000000000000000000000000000000081526004016108ba9061113c565b60405180910390fd5b7f0000000000000000000000000000000000000000000000000000000000000000421015610926576040517f08c379a000000000000000000000000000000000000000000000000000000000815260040161091d906111a8565b60405180910390fd5b6000600360009054906101000a900473ffffffffffffffffffffffffffffffffffffffff1673ffffffffffffffffffffffffffffffffffffffff166370a08231306040518263ffffffff1660e01b81526004016109839190610ca0565b602060405180830381865afa1580156109a0573d6000803e3d6000fd5b505050506040513d601f19601f820116820180604052508101906109c491906111dd565b9050600054811015610a0b576040517f08c379a0000000000000000000000000000000000000000000000000000000008152600401610a0290611256565b60405180910390fd5b6000600360009054906101000a900473ffffffffffffffffffffffffffffffffffffffff1673ffffffffffffffffffffffffffffffffffffffff1663a9059cbb600260019054906101000a900473ffffffffffffffffffffffffffffffffffffffff16846040518363ffffffff1660e01b8152600401610a8c929190611276565b6020604051808303816000875af1158015610aab573d6000803e3d6000fd5b505050506040513d601f19601f82011682018060405250810190610acf9190610f96565b905080610b11576040517f08c379a0000000000000000000000000000000000000000000000000000000008152600401610b089061100f565b60405180910390fd5b7f0c875c8d391179c5cf7ad8303d268efd50b8beb78b671f85cd54bfb91eb8ef408242604051610b429291906110c7565b60405180910390a15050565b600460009054906101000a900473ffffffffffffffffffffffffffffffffffffffff1681565b600080fd5b600073ffffffffffffffffffffffffffffffffffffffff82169050919050565b6000610ba482610b79565b9050919050565b610bb481610b99565b8114610bbf57600080fd5b50565b600081359050610bd181610bab565b92915050565b600060208284031215610bed57610bec610b74565b5b6000610bfb84828501610bc2565b91505092915050565b6000819050919050565b610c1781610c04565b82525050565b6000602082019050610c326000830184610c0e565b92915050565b610c4181610c04565b8114610c4c57600080fd5b50565b600081359050610c5e81610c38565b92915050565b600060208284031215610c7a57610c79610b74565b5b6000610c8884828501610c4f565b91505092915050565b610c9a81610b99565b82525050565b6000602082019050610cb56000830184610c91565b92915050565b600060ff82169050919050565b610cd181610cbb565b82525050565b6000602082019050610cec6000830184610cc8565b92915050565b60008115159050919050565b610d0781610cf2565b82525050565b6000602082019050610d226000830184610cfe565b92915050565b6000819050919050565b6000610d4d610d48610d4384610b79565b610d28565b610b79565b9050919050565b6000610d5f82610d32565b9050919050565b6000610d7182610d54565b9050919050565b610d8181610d66565b82525050565b6000602082019050610d9c6000830184610d78565b92915050565b6000610dad82610d54565b9050919050565b610dbd81610da2565b82525050565b6000602082019050610dd86000830184610db4565b92915050565b600082825260208201905092915050565b7f554e415554484f52495a45442041444452455353000000000000000000000000600082015250565b6000610e25601483610dde565b9150610e3082610def565b602082019050919050565b60006020820190508181036000830152610e5481610e18565b9050919050565b7f594f552043414e204e4f204c4f4e474552205341564500000000000000000000600082015250565b6000610e91601683610dde565b9150610e9c82610e5b565b602082019050919050565b60006020820190508181036000830152610ec081610e84565b9050919050565b7f594f55204152452042524f4b4500000000000000000000000000000000000000600082015250565b6000610efd600d83610dde565b9150610f0882610ec7565b602082019050919050565b60006020820190508181036000830152610f2c81610ef0565b9050919050565b6000606082019050610f486000830186610c91565b610f556020830185610c91565b610f626040830184610c0e565b949350505050565b610f7381610cf2565b8114610f7e57600080fd5b50565b600081519050610f9081610f6a565b92915050565b600060208284031215610fac57610fab610b74565b5b6000610fba84828501610f81565b91505092915050565b7f5472616e73616374696f6e204661696c65640000000000000000000000000000600082015250565b6000610ff9601283610dde565b915061100482610fc3565b602082019050919050565b6000602082019050818103600083015261102881610fec565b9050919050565b7f4e487b7100000000000000000000000000000000000000000000000000000000600052601160045260246000fd5b600061106982610cbb565b915061107483610cbb565b9250828201905060ff81111561108d5761108c61102f565b5b92915050565b600061109e82610c04565b91506110a983610c04565b92508282019050808211156110c1576110c061102f565b5b92915050565b60006040820190506110dc6000830185610c0e565b6110e96020830184610c0e565b9392505050565b7f594f552057414e20544849454620414249203f00000000000000000000000000600082015250565b6000611126601383610dde565b9150611131826110f0565b602082019050919050565b6000602082019050818103600083015261115581611119565b9050919050565b7f4e4f54205945542054494d450000000000000000000000000000000000000000600082015250565b6000611192600c83610dde565b915061119d8261115c565b602082019050919050565b600060208201905081810360008301526111c181611185565b9050919050565b6000815190506111d781610c38565b92915050565b6000602082840312156111f3576111f2610b74565b5b6000611201848285016111c8565b91505092915050565b7f54415247455420414d4f554e54204e4f54205245414348454400000000000000600082015250565b6000611240601983610dde565b915061124b8261120a565b602082019050919050565b6000602082019050818103600083015261126f81611233565b9050919050565b600060408201905061128b6000830185610c91565b6112986020830184610c0e565b939250505056fea2646970667358221220dd84e44febc3895f32fb3a2de98e5d97f28370491121372c0d557c0368b1954964736f6c634300081c0033",
  "linkReferences": {},
  "deployedLinkReferences": {}
}