{
  "_format": "hh-sol-artifact-1",
  "contractName": "KidSmart",
  "sourceName": "contracts/KidSmart.sol",
  "abi": [
    {
      "inputs": [],
      "stateMutability": "nonpayable",
      "type": "constructor"
    },
    {
      "inputs": [
        {
          "internalType": "address payable",
          "name": "_wallet",
          "type": "address"
        },
        {
          "internalType": "string",
          "name": "_firstName",
          "type": "string"
        },
        {
          "internalType": "string",
          "name": "_lastName",
          "type": "string"
        },
        {
          "internalType": "uint256",
          "name": "_amount",
          "type": "uint256"
        },
        {
          "internalType": "uint256",
          "name": "_time",
          "type": "uint256"
        },
        {
          "internalType": "bool",
          "name": "_canWithdraw",
          "type": "bool"
        }
      ],
      "name": "addKid",
      "outputs": [],
      "stateMutability": "nonpayable",
      "type": "function"
    },
    {
      "inputs": [],
      "name": "balanceof",
      "outputs": [
        {
          "internalType": "uint256",
          "name": "",
          "type": "uint256"
        }
      ],
      "stateMutability": "view",
      "type": "function"
    },
    {
      "inputs": [
        {
          "internalType": "address payable",
          "name": "_kidwallet",
          "type": "address"
        }
      ],
      "name": "canwithdraw",
      "outputs": [
        {
          "internalType": "bool",
          "name": "",
          "type": "bool"
        }
      ],
      "stateMutability": "view",
      "type": "function"
    },
    {
      "inputs": [
        {
          "internalType": "uint256",
          "name": "",
          "type": "uint256"
        }
      ],
      "name": "kid",
      "outputs": [
        {
          "internalType": "address payable",
          "name": "wallet",
          "type": "address"
        },
        {
          "internalType": "string",
          "name": "firstName",
          "type": "string"
        },
        {
          "internalType": "string",
          "name": "lastName",
          "type": "string"
        },
        {
          "internalType": "uint256",
          "name": "amount",
          "type": "uint256"
        },
        {
          "internalType": "uint256",
          "name": "time",
          "type": "uint256"
        },
        {
          "internalType": "bool",
          "name": "canWithdraw",
          "type": "bool"
        }
      ],
      "stateMutability": "view",
      "type": "function"
    },
    {
      "inputs": [
        {
          "internalType": "address payable",
          "name": "_kidwalletaddress",
          "type": "address"
        }
      ],
      "name": "transfer",
      "outputs": [],
      "stateMutability": "payable",
      "type": "function"
    },
    {
      "inputs": [
        {
          "internalType": "address payable",
          "name": "_kidwallet",
          "type": "address"
        }
      ],
      "name": "withdraw",
      "outputs": [],
      "stateMutability": "payable",
      "type": "function"
    }
  ],
  "bytecode": "0x6080604052348015600f57600080fd5b50336000806101000a81548173ffffffffffffffffffffffffffffffffffffffff021916908373ffffffffffffffffffffffffffffffffffffffff1602179055506113328061005f6000396000f3fe6080604052600436106100555760003560e01c80631a6952301461005a5780632980a5d31461007657806331d575c5146100a157806351cff8d9146100ca5780636c3087ff146100e6578063e916e5c814610128575b600080fd5b610074600480360381019061006f919061096c565b610165565b005b34801561008257600080fd5b5061008b610251565b60405161009891906109b2565b60405180910390f35b3480156100ad57600080fd5b506100c860048036038101906100c39190610b77565b610259565b005b6100e460048036038101906100df919061096c565b610408565b005b3480156100f257600080fd5b5061010d60048036038101906101089190610c3c565b61055c565b60405161011f96959493929190610d06565b60405180910390f35b34801561013457600080fd5b5061014f600480360381019061014a919061096c565b6106e5565b60405161015c9190610d75565b60405180910390f35b60008054906101000a900473ffffffffffffffffffffffffffffffffffffffff1673ffffffffffffffffffffffffffffffffffffffff163373ffffffffffffffffffffffffffffffffffffffff16146101f3576040517f08c379a00000000000000000000000000000000000000000000000000000000081526004016101ea90610ddc565b60405180910390fd5b60006101fe82610779565b90506103e78103610244576040517f08c379a000000000000000000000000000000000000000000000000000000000815260040161023b90610e6e565b60405180910390fd5b61024d82610824565b5050565b600047905090565b60008054906101000a900473ffffffffffffffffffffffffffffffffffffffff1673ffffffffffffffffffffffffffffffffffffffff163373ffffffffffffffffffffffffffffffffffffffff16146102e7576040517f08c379a00000000000000000000000000000000000000000000000000000000081526004016102de90610ddc565b60405180910390fd5b60016040518060c001604052808873ffffffffffffffffffffffffffffffffffffffff168152602001878152602001868152602001858152602001848152602001831515815250908060018154018082558091505060019003906000526020600020906006020160009091909190915060008201518160000160006101000a81548173ffffffffffffffffffffffffffffffffffffffff021916908373ffffffffffffffffffffffffffffffffffffffff16021790555060208201518160010190816103b3919061109a565b5060408201518160020190816103c9919061109a565b50606082015181600301556080820151816004015560a08201518160050160006101000a81548160ff0219169083151502179055505050505050505050565b600061041382610779565b90506103e78103610459576040517f08c379a0000000000000000000000000000000000000000000000000000000008152600401610450906111b8565b60405180910390fd5b6000610464836106e5565b9050806104a6576040517f08c379a000000000000000000000000000000000000000000000000000000000815260040161049d9061124a565b60405180910390fd5b600182815481106104ba576104b961126a565b5b906000526020600020906006020160000160009054906101000a900473ffffffffffffffffffffffffffffffffffffffff1673ffffffffffffffffffffffffffffffffffffffff166108fc600184815481106105195761051861126a565b5b9060005260206000209060060201600301549081150290604051600060405180830381858888f19350505050158015610556573d6000803e3d6000fd5b50505050565b6001818154811061056c57600080fd5b90600052602060002090600602016000915090508060000160009054906101000a900473ffffffffffffffffffffffffffffffffffffffff16908060010180546105b590610ebd565b80601f01602080910402602001604051908101604052809291908181526020018280546105e190610ebd565b801561062e5780601f106106035761010080835404028352916020019161062e565b820191906000526020600020905b81548152906001019060200180831161061157829003601f168201915b50505050509080600201805461064390610ebd565b80601f016020809104026020016040519081016040528092919081815260200182805461066f90610ebd565b80156106bc5780601f10610691576101008083540402835291602001916106bc565b820191906000526020600020905b81548152906001019060200180831161069f57829003601f168201915b5050505050908060030154908060040154908060050160009054906101000a900460ff16905086565b6000806106f183610779565b90506103e78103610737576040517f08c379a000000000000000000000000000000000000000000000000000000000815260040161072e906111b8565b60405180910390fd5b426001828154811061074c5761074b61126a565b5b906000526020600020906006020160040154101561076e576000915050610774565b60019150505b919050565b6000805b600180549050811015610818578273ffffffffffffffffffffffffffffffffffffffff16600182815481106107b5576107b461126a565b5b906000526020600020906006020160000160009054906101000a900473ffffffffffffffffffffffffffffffffffffffff1673ffffffffffffffffffffffffffffffffffffffff160361080b578091505061081f565b808060010191505061077d565b506103e790505b919050565b60005b6001805490508110156108f6578173ffffffffffffffffffffffffffffffffffffffff166001828154811061085f5761085e61126a565b5b906000526020600020906006020160000160009054906101000a900473ffffffffffffffffffffffffffffffffffffffff1673ffffffffffffffffffffffffffffffffffffffff16036108e95734600182815481106108c1576108c061126a565b5b906000526020600020906006020160030160008282546108e191906112c8565b925050819055505b8080600101915050610827565b5050565b6000604051905090565b600080fd5b600080fd5b600073ffffffffffffffffffffffffffffffffffffffff82169050919050565b60006109398261090e565b9050919050565b6109498161092e565b811461095457600080fd5b50565b60008135905061096681610940565b92915050565b60006020828403121561098257610981610904565b5b600061099084828501610957565b91505092915050565b6000819050919050565b6109ac81610999565b82525050565b60006020820190506109c760008301846109a3565b92915050565b600080fd5b600080fd5b6000601f19601f8301169050919050565b7f4e487b7100000000000000000000000000000000000000000000000000000000600052604160045260246000fd5b610a20826109d7565b810181811067ffffffffffffffff82111715610a3f57610a3e6109e8565b5b80604052505050565b6000610a526108fa565b9050610a5e8282610a17565b919050565b600067ffffffffffffffff821115610a7e57610a7d6109e8565b5b610a87826109d7565b9050602081019050919050565b82818337600083830152505050565b6000610ab6610ab184610a63565b610a48565b905082815260208101848484011115610ad257610ad16109d2565b5b610add848285610a94565b509392505050565b600082601f830112610afa57610af96109cd565b5b8135610b0a848260208601610aa3565b91505092915050565b610b1c81610999565b8114610b2757600080fd5b50565b600081359050610b3981610b13565b92915050565b60008115159050919050565b610b5481610b3f565b8114610b5f57600080fd5b50565b600081359050610b7181610b4b565b92915050565b60008060008060008060c08789031215610b9457610b93610904565b5b6000610ba289828a01610957565b965050602087013567ffffffffffffffff811115610bc357610bc2610909565b5b610bcf89828a01610ae5565b955050604087013567ffffffffffffffff811115610bf057610bef610909565b5b610bfc89828a01610ae5565b9450506060610c0d89828a01610b2a565b9350506080610c1e89828a01610b2a565b92505060a0610c2f89828a01610b62565b9150509295509295509295565b600060208284031215610c5257610c51610904565b5b6000610c6084828501610b2a565b91505092915050565b610c728161092e565b82525050565b600081519050919050565b600082825260208201905092915050565b60005b83811015610cb2578082015181840152602081019050610c97565b60008484015250505050565b6000610cc982610c78565b610cd38185610c83565b9350610ce3818560208601610c94565b610cec816109d7565b840191505092915050565b610d0081610b3f565b82525050565b600060c082019050610d1b6000830189610c69565b8181036020830152610d2d8188610cbe565b90508181036040830152610d418187610cbe565b9050610d5060608301866109a3565b610d5d60808301856109a3565b610d6a60a0830184610cf7565b979650505050505050565b6000602082019050610d8a6000830184610cf7565b92915050565b7f596f7520617265206e6f7420617574686f72697a656400000000000000000000600082015250565b6000610dc6601683610c83565b9150610dd182610d90565b602082019050919050565b60006020820190508181036000830152610df581610db9565b9050919050565b7f54686973206e6f7420612076616c6964206b69642077616c6c6574206164647260008201527f6573730000000000000000000000000000000000000000000000000000000000602082015250565b6000610e58602383610c83565b9150610e6382610dfc565b604082019050919050565b60006020820190508181036000830152610e8781610e4b565b9050919050565b7f4e487b7100000000000000000000000000000000000000000000000000000000600052602260045260246000fd5b60006002820490506001821680610ed557607f821691505b602082108103610ee857610ee7610e8e565b5b50919050565b60008190508160005260206000209050919050565b60006020601f8301049050919050565b600082821b905092915050565b600060088302610f507fffffffffffffffffffffffffffffffffffffffffffffffffffffffffffffffff82610f13565b610f5a8683610f13565b95508019841693508086168417925050509392505050565b6000819050919050565b6000610f97610f92610f8d84610999565b610f72565b610999565b9050919050565b6000819050919050565b610fb183610f7c565b610fc5610fbd82610f9e565b848454610f20565b825550505050565b600090565b610fda610fcd565b610fe5818484610fa8565b505050565b5b8181101561100957610ffe600082610fd2565b600181019050610feb565b5050565b601f82111561104e5761101f81610eee565b61102884610f03565b81016020851015611037578190505b61104b61104385610f03565b830182610fea565b50505b505050565b600082821c905092915050565b600061107160001984600802611053565b1980831691505092915050565b600061108a8383611060565b9150826002028217905092915050565b6110a382610c78565b67ffffffffffffffff8111156110bc576110bb6109e8565b5b6110c68254610ebd565b6110d182828561100d565b600060209050601f83116001811461110457600084156110f2578287015190505b6110fc858261107e565b865550611164565b601f19841661111286610eee565b60005b8281101561113a57848901518255600182019150602085019450602081019050611115565b868310156111575784890151611153601f891682611060565b8355505b6001600288020188555050505b505050505050565b7f596f7520617265206e6f742061206b6964000000000000000000000000000000600082015250565b60006111a2601183610c83565b91506111ad8261116c565b602082019050919050565b600060208201905081810360008301526111d181611195565b9050919050565b7f596f7520617265206e6f7420656c696769626c6520746f20776974686472617760008201527f2079657400000000000000000000000000000000000000000000000000000000602082015250565b6000611234602483610c83565b915061123f826111d8565b604082019050919050565b6000602082019050818103600083015261126381611227565b9050919050565b7f4e487b7100000000000000000000000000000000000000000000000000000000600052603260045260246000fd5b7f4e487b7100000000000000000000000000000000000000000000000000000000600052601160045260246000fd5b60006112d382610999565b91506112de83610999565b92508282019050808211156112f6576112f5611299565b5b9291505056fea26469706673582212200bf4a7a1932baaeb28be18793e1bcd9338c5a7f9336dc2d24a1423c80315453864736f6c634300081c0033",
  "linkReferences": {},
  "deployedLinkReferences": {}
}