{
  "_format": "hh-sol-artifact-1",
  "contractName": "Escrow",
  "sourceName": "contracts/Escrow.sol",
  "abi": [
    {
      "inputs": [],
      "stateMutability": "nonpayable",
      "type": "constructor"
    },
    {
      "inputs": [],
      "name": "InvalidAmount",
      "type": "error"
    },
    {
      "inputs": [],
      "name": "InvalidState",
      "type": "error"
    },
    {
      "inputs": [],
      "name": "NotBuyer",
      "type": "error"
    },
    {
      "inputs": [],
      "name": "NotSeller",
      "type": "error"
    },
    {
      "inputs": [],
      "name": "TransferFailed",
      "type": "error"
    },
    {
      "anonymous": false,
      "inputs": [
        {
          "indexed": true,
          "internalType": "uint256",
          "name": "transactionId",
          "type": "uint256"
        },
        {
          "indexed": false,
          "internalType": "string",
          "name": "reason",
          "type": "string"
        }
      ],
      "name": "DisputeRaised",
      "type": "event"
    },
    {
      "anonymous": false,
      "inputs": [
        {
          "indexed": true,
          "internalType": "uint256",
          "name": "transactionId",
          "type": "uint256"
        },
        {
          "indexed": false,
          "internalType": "uint256",
          "name": "amount",
          "type": "uint256"
        }
      ],
      "name": "FundsDeposited",
      "type": "event"
    },
    {
      "anonymous": false,
      "inputs": [
        {
          "indexed": true,
          "internalType": "uint256",
          "name": "transactionId",
          "type": "uint256"
        }
      ],
      "name": "RefundIssued",
      "type": "event"
    },
    {
      "anonymous": false,
      "inputs": [
        {
          "indexed": true,
          "internalType": "uint256",
          "name": "transactionId",
          "type": "uint256"
        }
      ],
      "name": "TransactionConfirmed",
      "type": "event"
    },
    {
      "anonymous": false,
      "inputs": [
        {
          "indexed": true,
          "internalType": "uint256",
          "name": "transactionId",
          "type": "uint256"
        },
        {
          "indexed": false,
          "internalType": "address",
          "name": "buyer",
          "type": "address"
        },
        {
          "indexed": false,
          "internalType": "address",
          "name": "seller",
          "type": "address"
        },
        {
          "indexed": false,
          "internalType": "uint256",
          "name": "amount",
          "type": "uint256"
        }
      ],
      "name": "TransactionCreated",
      "type": "event"
    },
    {
      "inputs": [
        {
          "internalType": "uint256",
          "name": "_transactionId",
          "type": "uint256"
        }
      ],
      "name": "confirmReceipt",
      "outputs": [],
      "stateMutability": "nonpayable",
      "type": "function"
    },
    {
      "inputs": [
        {
          "internalType": "address payable",
          "name": "_seller",
          "type": "address"
        },
        {
          "internalType": "string",
          "name": "_itemDescription",
          "type": "string"
        }
      ],
      "name": "createTransaction",
      "outputs": [
        {
          "internalType": "uint256",
          "name": "",
          "type": "uint256"
        }
      ],
      "stateMutability": "nonpayable",
      "type": "function"
    },
    {
      "inputs": [
        {
          "internalType": "uint256",
          "name": "_transactionId",
          "type": "uint256"
        }
      ],
      "name": "deposit",
      "outputs": [],
      "stateMutability": "payable",
      "type": "function"
    },
    {
      "inputs": [
        {
          "internalType": "uint256",
          "name": "_transactionId",
          "type": "uint256"
        }
      ],
      "name": "getTransaction",
      "outputs": [
        {
          "components": [
            {
              "internalType": "address payable",
              "name": "buyer",
              "type": "address"
            },
            {
              "internalType": "address payable",
              "name": "seller",
              "type": "address"
            },
            {
              "internalType": "uint256",
              "name": "amount",
              "type": "uint256"
            },
            {
              "internalType": "bool",
              "name": "isDeposited",
              "type": "bool"
            },
            {
              "internalType": "bool",
              "name": "isConfirmed",
              "type": "bool"
            },
            {
              "internalType": "bool",
              "name": "isDisputed",
              "type": "bool"
            },
            {
              "internalType": "string",
              "name": "itemDescription",
              "type": "string"
            }
          ],
          "internalType": "struct Escrow.Transaction",
          "name": "",
          "type": "tuple"
        }
      ],
      "stateMutability": "view",
      "type": "function"
    },
    {
      "inputs": [],
      "name": "owner",
      "outputs": [
        {
          "internalType": "address",
          "name": "",
          "type": "address"
        }
      ],
      "stateMutability": "view",
      "type": "function"
    },
    {
      "inputs": [
        {
          "internalType": "uint256",
          "name": "_transactionId",
          "type": "uint256"
        },
        {
          "internalType": "string",
          "name": "_reason",
          "type": "string"
        }
      ],
      "name": "raiseDispute",
      "outputs": [],
      "stateMutability": "nonpayable",
      "type": "function"
    },
    {
      "inputs": [
        {
          "internalType": "uint256",
          "name": "_transactionId",
          "type": "uint256"
        }
      ],
      "name": "refund",
      "outputs": [],
      "stateMutability": "nonpayable",
      "type": "function"
    },
    {
      "inputs": [],
      "name": "transactionCount",
      "outputs": [
        {
          "internalType": "uint256",
          "name": "",
          "type": "uint256"
        }
      ],
      "stateMutability": "view",
      "type": "function"
    },
    {
      "inputs": [
        {
          "internalType": "uint256",
          "name": "",
          "type": "uint256"
        }
      ],
      "name": "transactions",
      "outputs": [
        {
          "internalType": "address payable",
          "name": "buyer",
          "type": "address"
        },
        {
          "internalType": "address payable",
          "name": "seller",
          "type": "address"
        },
        {
          "internalType": "uint256",
          "name": "amount",
          "type": "uint256"
        },
        {
          "internalType": "bool",
          "name": "isDeposited",
          "type": "bool"
        },
        {
          "internalType": "bool",
          "name": "isConfirmed",
          "type": "bool"
        },
        {
          "internalType": "bool",
          "name": "isDisputed",
          "type": "bool"
        },
        {
          "internalType": "string",
          "name": "itemDescription",
          "type": "string"
        }
      ],
      "stateMutability": "view",
      "type": "function"
    }
  ],
  "bytecode": "0x6080604052348015600f57600080fd5b5033600260006101000a81548173ffffffffffffffffffffffffffffffffffffffff021916908373ffffffffffffffffffffffffffffffffffffffff1602179055506120a6806100606000396000f3fe6080604052600436106100865760003560e01c80638da5cb5b116100595780638da5cb5b146101435780639ace38c21461016e578063b6b55f25146101b1578063b77bf600146101cd578063eb2fadf0146101f857610086565b8063278ecde11461008b57806333ea3dc8146100b45780635aef573c146100f1578063843cba131461011a575b600080fd5b34801561009757600080fd5b506100b260048036038101906100ad91906116a9565b610235565b005b3480156100c057600080fd5b506100db60048036038101906100d691906116a9565b610630565b6040516100e8919061186d565b60405180910390f35b3480156100fd57600080fd5b50610118600480360381019061011391906119c4565b6107f5565b005b34801561012657600080fd5b50610141600480360381019061013c91906116a9565b610b2f565b005b34801561014f57600080fd5b50610158610f29565b6040516101659190611a41565b60405180910390f35b34801561017a57600080fd5b50610195600480360381019061019091906116a9565b610f4f565b6040516101a89796959493929190611ad3565b60405180910390f35b6101cb60048036038101906101c691906116a9565b611080565b005b3480156101d957600080fd5b506101e26113fb565b6040516101ef9190611b49565b60405180910390f35b34801561020457600080fd5b5061021f600480360381019061021a9190611b90565b611401565b60405161022c9190611b49565b60405180910390f35b8060008082815260200190815260200160002060010160009054906101000a900473ffffffffffffffffffffffffffffffffffffffff1673ffffffffffffffffffffffffffffffffffffffff163373ffffffffffffffffffffffffffffffffffffffff16146102d0576040517f5ec8235100000000000000000000000000000000000000000000000000000000815260040160405180910390fd5b8160016000600160008060008681526020019081526020016000206040518060e00160405290816000820160009054906101000a900473ffffffffffffffffffffffffffffffffffffffff1673ffffffffffffffffffffffffffffffffffffffff1673ffffffffffffffffffffffffffffffffffffffff1681526020016001820160009054906101000a900473ffffffffffffffffffffffffffffffffffffffff1673ffffffffffffffffffffffffffffffffffffffff1673ffffffffffffffffffffffffffffffffffffffff168152602001600282015481526020016003820160009054906101000a900460ff161515151581526020016003820160019054906101000a900460ff161515151581526020016003820160029054906101000a900460ff1615151515815260200160048201805461040d90611c1b565b80601f016020809104026020016040519081016040528092919081815260200182805461043990611c1b565b80156104865780601f1061045b57610100808354040283529160200191610486565b820191906000526020600020905b81548152906001019060200180831161046957829003601f168201915b5050505050815250509050831515816060015115151415806104b057508215158160800151151514155b806104c357508115158160a00151151514155b156104fa576040517fbaf3f0f700000000000000000000000000000000000000000000000000000000815260040160405180910390fd5b6000806000898152602001908152602001600020905060018160030160016101000a81548160ff02191690831515021790555060008160000160009054906101000a900473ffffffffffffffffffffffffffffffffffffffff1673ffffffffffffffffffffffffffffffffffffffff16826002015460405161057b90611c7d565b60006040518083038185875af1925050503d80600081146105b8576040519150601f19603f3d011682016040523d82523d6000602084013e6105bd565b606091505b50509050806105f8576040517f90b8ec1800000000000000000000000000000000000000000000000000000000815260040160405180910390fd5b887fbe39882973eff28580f04c2c5cdc775cd9865cffc8840773d131ab12471c9a6260405160405180910390a2505050505050505050565b6106386115f0565b6000808381526020019081526020016000206040518060e00160405290816000820160009054906101000a900473ffffffffffffffffffffffffffffffffffffffff1673ffffffffffffffffffffffffffffffffffffffff1673ffffffffffffffffffffffffffffffffffffffff1681526020016001820160009054906101000a900473ffffffffffffffffffffffffffffffffffffffff1673ffffffffffffffffffffffffffffffffffffffff1673ffffffffffffffffffffffffffffffffffffffff168152602001600282015481526020016003820160009054906101000a900460ff161515151581526020016003820160019054906101000a900460ff161515151581526020016003820160029054906101000a900460ff1615151515815260200160048201805461076c90611c1b565b80601f016020809104026020016040519081016040528092919081815260200182805461079890611c1b565b80156107e55780601f106107ba576101008083540402835291602001916107e5565b820191906000526020600020905b8154815290600101906020018083116107c857829003601f168201915b5050505050815250509050919050565b8160008082815260200190815260200160002060000160009054906101000a900473ffffffffffffffffffffffffffffffffffffffff1673ffffffffffffffffffffffffffffffffffffffff163373ffffffffffffffffffffffffffffffffffffffff1614610890576040517f472e017e00000000000000000000000000000000000000000000000000000000815260040160405180910390fd5b82600160008060008060008681526020019081526020016000206040518060e00160405290816000820160009054906101000a900473ffffffffffffffffffffffffffffffffffffffff1673ffffffffffffffffffffffffffffffffffffffff1673ffffffffffffffffffffffffffffffffffffffff1681526020016001820160009054906101000a900473ffffffffffffffffffffffffffffffffffffffff1673ffffffffffffffffffffffffffffffffffffffff1673ffffffffffffffffffffffffffffffffffffffff168152602001600282015481526020016003820160009054906101000a900460ff161515151581526020016003820160019054906101000a900460ff161515151581526020016003820160029054906101000a900460ff161515151581526020016004820180546109cc90611c1b565b80601f01602080910402602001604051908101604052809291908181526020018280546109f890611c1b565b8015610a455780601f10610a1a57610100808354040283529160200191610a45565b820191906000526020600020905b815481529060010190602001808311610a2857829003601f168201915b505050505081525050905083151581606001511515141580610a6f57508215158160800151151514155b80610a8257508115158160a00151151514155b15610ab9576040517fbaf3f0f700000000000000000000000000000000000000000000000000000000815260040160405180910390fd5b60008060008a8152602001908152602001600020905060018160030160026101000a81548160ff021916908315150217905550887fe07ad455e24561261e9047aab2f668ae1fc2cc6fda35021764673613b888836d89604051610b1c9190611c92565b60405180910390a2505050505050505050565b8060008082815260200190815260200160002060000160009054906101000a900473ffffffffffffffffffffffffffffffffffffffff1673ffffffffffffffffffffffffffffffffffffffff163373ffffffffffffffffffffffffffffffffffffffff1614610bca576040517f472e017e00000000000000000000000000000000000000000000000000000000815260040160405180910390fd5b81600160008060008060008681526020019081526020016000206040518060e00160405290816000820160009054906101000a900473ffffffffffffffffffffffffffffffffffffffff1673ffffffffffffffffffffffffffffffffffffffff1673ffffffffffffffffffffffffffffffffffffffff1681526020016001820160009054906101000a900473ffffffffffffffffffffffffffffffffffffffff1673ffffffffffffffffffffffffffffffffffffffff1673ffffffffffffffffffffffffffffffffffffffff168152602001600282015481526020016003820160009054906101000a900460ff161515151581526020016003820160019054906101000a900460ff161515151581526020016003820160029054906101000a900460ff16151515158152602001600482018054610d0690611c1b565b80601f0160208091040260200160405190810160405280929190818152602001828054610d3290611c1b565b8015610d7f5780601f10610d5457610100808354040283529160200191610d7f565b820191906000526020600020905b815481529060010190602001808311610d6257829003601f168201915b505050505081525050905083151581606001511515141580610da957508215158160800151151514155b80610dbc57508115158160a00151151514155b15610df3576040517fbaf3f0f700000000000000000000000000000000000000000000000000000000815260040160405180910390fd5b6000806000898152602001908152602001600020905060018160030160016101000a81548160ff02191690831515021790555060008160010160009054906101000a900473ffffffffffffffffffffffffffffffffffffffff1673ffffffffffffffffffffffffffffffffffffffff168260020154604051610e7490611c7d565b60006040518083038185875af1925050503d8060008114610eb1576040519150601f19603f3d011682016040523d82523d6000602084013e610eb6565b606091505b5050905080610ef1576040517f90b8ec1800000000000000000000000000000000000000000000000000000000815260040160405180910390fd5b887fef524c298d730e7d5714dbe2fce9d4eca7de755a12628704719170afda39678b60405160405180910390a2505050505050505050565b600260009054906101000a900473ffffffffffffffffffffffffffffffffffffffff1681565b60006020528060005260406000206000915090508060000160009054906101000a900473ffffffffffffffffffffffffffffffffffffffff16908060010160009054906101000a900473ffffffffffffffffffffffffffffffffffffffff16908060020154908060030160009054906101000a900460ff16908060030160019054906101000a900460ff16908060030160029054906101000a900460ff1690806004018054610ffd90611c1b565b80601f016020809104026020016040519081016040528092919081815260200182805461102990611c1b565b80156110765780601f1061104b57610100808354040283529160200191611076565b820191906000526020600020905b81548152906001019060200180831161105957829003601f168201915b5050505050905087565b8060008082815260200190815260200160002060000160009054906101000a900473ffffffffffffffffffffffffffffffffffffffff1673ffffffffffffffffffffffffffffffffffffffff163373ffffffffffffffffffffffffffffffffffffffff161461111b576040517f472e017e00000000000000000000000000000000000000000000000000000000815260040160405180910390fd5b816000806000806000808681526020019081526020016000206040518060e00160405290816000820160009054906101000a900473ffffffffffffffffffffffffffffffffffffffff1673ffffffffffffffffffffffffffffffffffffffff1673ffffffffffffffffffffffffffffffffffffffff1681526020016001820160009054906101000a900473ffffffffffffffffffffffffffffffffffffffff1673ffffffffffffffffffffffffffffffffffffffff1673ffffffffffffffffffffffffffffffffffffffff168152602001600282015481526020016003820160009054906101000a900460ff161515151581526020016003820160019054906101000a900460ff161515151581526020016003820160029054906101000a900460ff1615151515815260200160048201805461125690611c1b565b80601f016020809104026020016040519081016040528092919081815260200182805461128290611c1b565b80156112cf5780601f106112a4576101008083540402835291602001916112cf565b820191906000526020600020905b8154815290600101906020018083116112b257829003601f168201915b5050505050815250509050831515816060015115151415806112f957508215158160800151151514155b8061130c57508115158160a00151151514155b15611343576040517fbaf3f0f700000000000000000000000000000000000000000000000000000000815260040160405180910390fd5b6000340361137d576040517f2c5211c600000000000000000000000000000000000000000000000000000000815260040160405180910390fd5b6000806000898152602001908152602001600020905034816002018190555060018160030160006101000a81548160ff021916908315150217905550877f26679fa1f3868c950e9362f1106cf73f3318de0280e0411a3c68e4b463eadd4f346040516113e99190611b49565b60405180910390a25050505050505050565b60015481565b6000806001600081548092919061141790611ce3565b9190505590506040518060e001604052803373ffffffffffffffffffffffffffffffffffffffff1681526020018573ffffffffffffffffffffffffffffffffffffffff168152602001600081526020016000151581526020016000151581526020016000151581526020018481525060008083815260200190815260200160002060008201518160000160006101000a81548173ffffffffffffffffffffffffffffffffffffffff021916908373ffffffffffffffffffffffffffffffffffffffff16021790555060208201518160010160006101000a81548173ffffffffffffffffffffffffffffffffffffffff021916908373ffffffffffffffffffffffffffffffffffffffff1602179055506040820151816002015560608201518160030160006101000a81548160ff02191690831515021790555060808201518160030160016101000a81548160ff02191690831515021790555060a08201518160030160026101000a81548160ff02191690831515021790555060c08201518160040190816115a59190611ed7565b50905050807fe9097a4f4eddc0e5906640fcd9e1193c9db52771536ca4c8b06ab4c40aa045d2338660006040516115de93929190612039565b60405180910390a28091505092915050565b6040518060e00160405280600073ffffffffffffffffffffffffffffffffffffffff168152602001600073ffffffffffffffffffffffffffffffffffffffff16815260200160008152602001600015158152602001600015158152602001600015158152602001606081525090565b6000604051905090565b600080fd5b600080fd5b6000819050919050565b61168681611673565b811461169157600080fd5b50565b6000813590506116a38161167d565b92915050565b6000602082840312156116bf576116be611669565b5b60006116cd84828501611694565b91505092915050565b600073ffffffffffffffffffffffffffffffffffffffff82169050919050565b6000611701826116d6565b9050919050565b611711816116f6565b82525050565b61172081611673565b82525050565b60008115159050919050565b61173b81611726565b82525050565b600081519050919050565b600082825260208201905092915050565b60005b8381101561177b578082015181840152602081019050611760565b60008484015250505050565b6000601f19601f8301169050919050565b60006117a382611741565b6117ad818561174c565b93506117bd81856020860161175d565b6117c681611787565b840191505092915050565b600060e0830160008301516117e96000860182611708565b5060208301516117fc6020860182611708565b50604083015161180f6040860182611717565b5060608301516118226060860182611732565b5060808301516118356080860182611732565b5060a083015161184860a0860182611732565b5060c083015184820360c08601526118608282611798565b9150508091505092915050565b6000602082019050818103600083015261188781846117d1565b905092915050565b600080fd5b600080fd5b7f4e487b7100000000000000000000000000000000000000000000000000000000600052604160045260246000fd5b6118d182611787565b810181811067ffffffffffffffff821117156118f0576118ef611899565b5b80604052505050565b600061190361165f565b905061190f82826118c8565b919050565b600067ffffffffffffffff82111561192f5761192e611899565b5b61193882611787565b9050602081019050919050565b82818337600083830152505050565b600061196761196284611914565b6118f9565b90508281526020810184848401111561198357611982611894565b5b61198e848285611945565b509392505050565b600082601f8301126119ab576119aa61188f565b5b81356119bb848260208601611954565b91505092915050565b600080604083850312156119db576119da611669565b5b60006119e985828601611694565b925050602083013567ffffffffffffffff811115611a0a57611a0961166e565b5b611a1685828601611996565b9150509250929050565b6000611a2b826116d6565b9050919050565b611a3b81611a20565b82525050565b6000602082019050611a566000830184611a32565b92915050565b611a65816116f6565b82525050565b611a7481611673565b82525050565b611a8381611726565b82525050565b600082825260208201905092915050565b6000611aa582611741565b611aaf8185611a89565b9350611abf81856020860161175d565b611ac881611787565b840191505092915050565b600060e082019050611ae8600083018a611a5c565b611af56020830189611a5c565b611b026040830188611a6b565b611b0f6060830187611a7a565b611b1c6080830186611a7a565b611b2960a0830185611a7a565b81810360c0830152611b3b8184611a9a565b905098975050505050505050565b6000602082019050611b5e6000830184611a6b565b92915050565b611b6d816116f6565b8114611b7857600080fd5b50565b600081359050611b8a81611b64565b92915050565b60008060408385031215611ba757611ba6611669565b5b6000611bb585828601611b7b565b925050602083013567ffffffffffffffff811115611bd657611bd561166e565b5b611be285828601611996565b9150509250929050565b7f4e487b7100000000000000000000000000000000000000000000000000000000600052602260045260246000fd5b60006002820490506001821680611c3357607f821691505b602082108103611c4657611c45611bec565b5b50919050565b600081905092915050565b50565b6000611c67600083611c4c565b9150611c7282611c57565b600082019050919050565b6000611c8882611c5a565b9150819050919050565b60006020820190508181036000830152611cac8184611a9a565b905092915050565b7f4e487b7100000000000000000000000000000000000000000000000000000000600052601160045260246000fd5b6000611cee82611673565b91507fffffffffffffffffffffffffffffffffffffffffffffffffffffffffffffffff8203611d2057611d1f611cb4565b5b600182019050919050565b60008190508160005260206000209050919050565b60006020601f8301049050919050565b600082821b905092915050565b600060088302611d8d7fffffffffffffffffffffffffffffffffffffffffffffffffffffffffffffffff82611d50565b611d978683611d50565b95508019841693508086168417925050509392505050565b6000819050919050565b6000611dd4611dcf611dca84611673565b611daf565b611673565b9050919050565b6000819050919050565b611dee83611db9565b611e02611dfa82611ddb565b848454611d5d565b825550505050565b600090565b611e17611e0a565b611e22818484611de5565b505050565b5b81811015611e4657611e3b600082611e0f565b600181019050611e28565b5050565b601f821115611e8b57611e5c81611d2b565b611e6584611d40565b81016020851015611e74578190505b611e88611e8085611d40565b830182611e27565b50505b505050565b600082821c905092915050565b6000611eae60001984600802611e90565b1980831691505092915050565b6000611ec78383611e9d565b9150826002028217905092915050565b611ee082611741565b67ffffffffffffffff811115611ef957611ef8611899565b5b611f038254611c1b565b611f0e828285611e4a565b600060209050601f831160018114611f415760008415611f2f578287015190505b611f398582611ebb565b865550611fa1565b601f198416611f4f86611d2b565b60005b82811015611f7757848901518255600182019150602085019450602081019050611f52565b86831015611f945784890151611f90601f891682611e9d565b8355505b6001600288020188555050505b505050505050565b6000611fc4611fbf611fba846116d6565b611daf565b6116d6565b9050919050565b6000611fd682611fa9565b9050919050565b6000611fe882611fcb565b9050919050565b611ff881611fdd565b82525050565b6000819050919050565b600061202361201e61201984611ffe565b611daf565b611673565b9050919050565b61203381612008565b82525050565b600060608201905061204e6000830186611a32565b61205b6020830185611fef565b612068604083018461202a565b94935050505056fea26469706673582212208b9373fd59b4ba2730176f62a97b0c10238d330250bd7cb023cafd6e11c9f13064736f6c634300081c0033",
  "linkReferences": {},
  "deployedLinkReferences": {}
}