{
  "_format": "hh-sol-artifact-1",
  "contractName": "Ballot",
  "sourceName": "contracts/Ballot.sol",
  "abi": [
    {
      "inputs": [],
      "name": "chairperson",
      "outputs": [
        {
          "internalType": "address",
          "name": "",
          "type": "address"
        }
      ],
      "stateMutability": "view",
      "type": "function"
    },
    {
      "inputs": [
        {
          "internalType": "address",
          "name": "to",
          "type": "address"
        }
      ],
      "name": "delegate",
      "outputs": [],
      "stateMutability": "nonpayable",
      "type": "function"
    },
    {
      "inputs": [
        {
          "internalType": "address",
          "name": "voter",
          "type": "address"
        }
      ],
      "name": "giveRightToVote",
      "outputs": [],
      "stateMutability": "nonpayable",
      "type": "function"
    },
    {
      "inputs": [
        {
          "internalType": "bytes32[]",
          "name": "proposalNames",
          "type": "bytes32[]"
        }
      ],
      "name": "initialize",
      "outputs": [],
      "stateMutability": "nonpayable",
      "type": "function"
    },
    {
      "inputs": [],
      "name": "initialized",
      "outputs": [
        {
          "internalType": "bool",
          "name": "",
          "type": "bool"
        }
      ],
      "stateMutability": "view",
      "type": "function"
    },
    {
      "inputs": [
        {
          "internalType": "uint256",
          "name": "",
          "type": "uint256"
        }
      ],
      "name": "proposals",
      "outputs": [
        {
          "internalType": "bytes32",
          "name": "name",
          "type": "bytes32"
        },
        {
          "internalType": "uint256",
          "name": "voteCount",
          "type": "uint256"
        }
      ],
      "stateMutability": "view",
      "type": "function"
    },
    {
      "inputs": [
        {
          "internalType": "uint256",
          "name": "proposal",
          "type": "uint256"
        }
      ],
      "name": "vote",
      "outputs": [],
      "stateMutability": "nonpayable",
      "type": "function"
    },
    {
      "inputs": [
        {
          "internalType": "address",
          "name": "",
          "type": "address"
        }
      ],
      "name": "voters",
      "outputs": [
        {
          "internalType": "uint256",
          "name": "weight",
          "type": "uint256"
        },
        {
          "internalType": "bool",
          "name": "voted",
          "type": "bool"
        },
        {
          "internalType": "address",
          "name": "delegate",
          "type": "address"
        },
        {
          "internalType": "uint256",
          "name": "vote",
          "type": "uint256"
        }
      ],
      "stateMutability": "view",
      "type": "function"
    },
    {
      "inputs": [],
      "name": "winnerName",
      "outputs": [
        {
          "internalType": "bytes32",
          "name": "winnerName_",
          "type": "bytes32"
        }
      ],
      "stateMutability": "view",
      "type": "function"
    },
    {
      "inputs": [],
      "name": "winningProposal",
      "outputs": [
        {
          "internalType": "uint256",
          "name": "winningProposal_",
          "type": "uint256"
        }
      ],
      "stateMutability": "view",
      "type": "function"
    }
  ],
  "bytecode": "0x60806040526000600360006101000a81548160ff021916908315150217905550348015602a57600080fd5b506114008061003a6000396000f3fe608060405234801561001057600080fd5b506004361061009e5760003560e01c80635c19a95c116100665780635c19a95c14610148578063609ff1bd146101645780639e7b8d6114610182578063a3ec138d1461019e578063e2ba53f0146101d15761009e565b80630121b93f146100a3578063013cf08b146100bf578063158ef93e146100f05780632e4176cf1461010e57806337ea92f51461012c575b600080fd5b6100bd60048036038101906100b89190610bef565b6101ef565b005b6100d960048036038101906100d49190610bef565b610335565b6040516100e7929190610c44565b60405180910390f35b6100f8610369565b6040516101059190610c88565b60405180910390f35b61011661037c565b6040516101239190610ce4565b60405180910390f35b61014660048036038101906101419190610e84565b6103a0565b005b610162600480360381019061015d9190610ef9565b610541565b005b61016c6108db565b6040516101799190610f26565b60405180910390f35b61019c60048036038101906101979190610ef9565b61095d565b005b6101b860048036038101906101b39190610ef9565b610b14565b6040516101c89493929190610f41565b60405180910390f35b6101d9610b71565b6040516101e69190610f86565b60405180910390f35b6000600160003373ffffffffffffffffffffffffffffffffffffffff1673ffffffffffffffffffffffffffffffffffffffff16815260200190815260200160002090506000816000015403610279576040517f08c379a000000000000000000000000000000000000000000000000000000000815260040161027090610ffe565b60405180910390fd5b8060010160009054906101000a900460ff16156102cb576040517f08c379a00000000000000000000000000000000000000000000000000000000081526004016102c29061106a565b60405180910390fd5b60018160010160006101000a81548160ff02191690831515021790555081816002018190555080600001546002838154811061030a5761030961108a565b5b9060005260206000209060020201600101600082825461032a91906110e8565b925050819055505050565b6002818154811061034557600080fd5b90600052602060002090600202016000915090508060000154908060010154905082565b600360009054906101000a900460ff1681565b60008054906101000a900473ffffffffffffffffffffffffffffffffffffffff1681565b600360009054906101000a900460ff16156103f0576040517f08c379a00000000000000000000000000000000000000000000000000000000081526004016103e790611168565b60405180910390fd5b336000806101000a81548173ffffffffffffffffffffffffffffffffffffffff021916908373ffffffffffffffffffffffffffffffffffffffff16021790555060018060008060009054906101000a900473ffffffffffffffffffffffffffffffffffffffff1673ffffffffffffffffffffffffffffffffffffffff1673ffffffffffffffffffffffffffffffffffffffff1681526020019081526020016000206000018190555060005b815181101561052257600260405180604001604052808484815181106104c4576104c361108a565b5b602002602001015181526020016000815250908060018154018082558091505060019003906000526020600020906002020160009091909190915060008201518160000155602082015181600101555050808060010191505061049b565b506001600360006101000a81548160ff02191690831515021790555050565b6000600160003373ffffffffffffffffffffffffffffffffffffffff1673ffffffffffffffffffffffffffffffffffffffff16815260200190815260200160002090508060010160009054906101000a900460ff16156105d6576040517f08c379a00000000000000000000000000000000000000000000000000000000081526004016105cd906111d4565b60405180910390fd5b3373ffffffffffffffffffffffffffffffffffffffff168273ffffffffffffffffffffffffffffffffffffffff1603610644576040517f08c379a000000000000000000000000000000000000000000000000000000000815260040161063b90611240565b60405180910390fd5b5b600073ffffffffffffffffffffffffffffffffffffffff16600160008473ffffffffffffffffffffffffffffffffffffffff1673ffffffffffffffffffffffffffffffffffffffff16815260200190815260200160002060010160019054906101000a900473ffffffffffffffffffffffffffffffffffffffff1673ffffffffffffffffffffffffffffffffffffffff16146107b357600160008373ffffffffffffffffffffffffffffffffffffffff1673ffffffffffffffffffffffffffffffffffffffff16815260200190815260200160002060010160019054906101000a900473ffffffffffffffffffffffffffffffffffffffff1691503373ffffffffffffffffffffffffffffffffffffffff168273ffffffffffffffffffffffffffffffffffffffff16036107ae576040517f08c379a00000000000000000000000000000000000000000000000000000000081526004016107a5906112ac565b60405180910390fd5b610645565b60018160010160006101000a81548160ff021916908315150217905550818160010160016101000a81548173ffffffffffffffffffffffffffffffffffffffff021916908373ffffffffffffffffffffffffffffffffffffffff1602179055506000600160008473ffffffffffffffffffffffffffffffffffffffff1673ffffffffffffffffffffffffffffffffffffffff16815260200190815260200160002090508060010160009054906101000a900460ff16156108b6578160000154600282600201548154811061088a5761088961108a565b5b906000526020600020906002020160010160008282546108aa91906110e8565b925050819055506108d6565b81600001548160000160008282546108ce91906110e8565b925050819055505b505050565b6000806000905060005b6002805490508110156109585781600282815481106109075761090661108a565b5b906000526020600020906002020160010154111561094b57600281815481106109335761093261108a565b5b90600052602060002090600202016001015491508092505b80806001019150506108e5565b505090565b60008054906101000a900473ffffffffffffffffffffffffffffffffffffffff1673ffffffffffffffffffffffffffffffffffffffff163373ffffffffffffffffffffffffffffffffffffffff16146109eb576040517f08c379a00000000000000000000000000000000000000000000000000000000081526004016109e29061133e565b60405180910390fd5b600160008273ffffffffffffffffffffffffffffffffffffffff1673ffffffffffffffffffffffffffffffffffffffff16815260200190815260200160002060010160009054906101000a900460ff1615610a7b576040517f08c379a0000000000000000000000000000000000000000000000000000000008152600401610a72906113aa565b60405180910390fd5b6000600160008373ffffffffffffffffffffffffffffffffffffffff1673ffffffffffffffffffffffffffffffffffffffff1681526020019081526020016000206000015414610aca57600080fd5b60018060008373ffffffffffffffffffffffffffffffffffffffff1673ffffffffffffffffffffffffffffffffffffffff1681526020019081526020016000206000018190555050565b60016020528060005260406000206000915090508060000154908060010160009054906101000a900460ff16908060010160019054906101000a900473ffffffffffffffffffffffffffffffffffffffff16908060020154905084565b60006002610b7d6108db565b81548110610b8e57610b8d61108a565b5b906000526020600020906002020160000154905090565b6000604051905090565b600080fd5b600080fd5b6000819050919050565b610bcc81610bb9565b8114610bd757600080fd5b50565b600081359050610be981610bc3565b92915050565b600060208284031215610c0557610c04610baf565b5b6000610c1384828501610bda565b91505092915050565b6000819050919050565b610c2f81610c1c565b82525050565b610c3e81610bb9565b82525050565b6000604082019050610c596000830185610c26565b610c666020830184610c35565b9392505050565b60008115159050919050565b610c8281610c6d565b82525050565b6000602082019050610c9d6000830184610c79565b92915050565b600073ffffffffffffffffffffffffffffffffffffffff82169050919050565b6000610cce82610ca3565b9050919050565b610cde81610cc3565b82525050565b6000602082019050610cf96000830184610cd5565b92915050565b600080fd5b6000601f19601f8301169050919050565b7f4e487b7100000000000000000000000000000000000000000000000000000000600052604160045260246000fd5b610d4d82610d04565b810181811067ffffffffffffffff82111715610d6c57610d6b610d15565b5b80604052505050565b6000610d7f610ba5565b9050610d8b8282610d44565b919050565b600067ffffffffffffffff821115610dab57610daa610d15565b5b602082029050602081019050919050565b600080fd5b610dca81610c1c565b8114610dd557600080fd5b50565b600081359050610de781610dc1565b92915050565b6000610e00610dfb84610d90565b610d75565b90508083825260208201905060208402830185811115610e2357610e22610dbc565b5b835b81811015610e4c5780610e388882610dd8565b845260208401935050602081019050610e25565b5050509392505050565b600082601f830112610e6b57610e6a610cff565b5b8135610e7b848260208601610ded565b91505092915050565b600060208284031215610e9a57610e99610baf565b5b600082013567ffffffffffffffff811115610eb857610eb7610bb4565b5b610ec484828501610e56565b91505092915050565b610ed681610cc3565b8114610ee157600080fd5b50565b600081359050610ef381610ecd565b92915050565b600060208284031215610f0f57610f0e610baf565b5b6000610f1d84828501610ee4565b91505092915050565b6000602082019050610f3b6000830184610c35565b92915050565b6000608082019050610f566000830187610c35565b610f636020830186610c79565b610f706040830185610cd5565b610f7d6060830184610c35565b95945050505050565b6000602082019050610f9b6000830184610c26565b92915050565b600082825260208201905092915050565b7f486173206e6f20726967687420746f20766f7465000000000000000000000000600082015250565b6000610fe8601483610fa1565b9150610ff382610fb2565b602082019050919050565b6000602082019050818103600083015261101781610fdb565b9050919050565b7f416c726561647920766f7465642e000000000000000000000000000000000000600082015250565b6000611054600e83610fa1565b915061105f8261101e565b602082019050919050565b6000602082019050818103600083015261108381611047565b9050919050565b7f4e487b7100000000000000000000000000000000000000000000000000000000600052603260045260246000fd5b7f4e487b7100000000000000000000000000000000000000000000000000000000600052601160045260246000fd5b60006110f382610bb9565b91506110fe83610bb9565b9250828201905080821115611116576111156110b9565b5b92915050565b7f436f6e747261637420697320616c726561647920696e697469616c697a656400600082015250565b6000611152601f83610fa1565b915061115d8261111c565b602082019050919050565b6000602082019050818103600083015261118181611145565b9050919050565b7f596f7520616c726561647920766f7465642e0000000000000000000000000000600082015250565b60006111be601283610fa1565b91506111c982611188565b602082019050919050565b600060208201905081810360008301526111ed816111b1565b9050919050565b7f53656c662d64656c65676174696f6e20697320646973616c6c6f7765642e0000600082015250565b600061122a601e83610fa1565b9150611235826111f4565b602082019050919050565b600060208201905081810360008301526112598161121d565b9050919050565b7f466f756e64206c6f6f7020696e2064656c65676174696f6e2e00000000000000600082015250565b6000611296601983610fa1565b91506112a182611260565b602082019050919050565b600060208201905081810360008301526112c581611289565b9050919050565b7f4f6e6c79206368616972706572736f6e2063616e20676976652072696768742060008201527f746f20766f74652e000000000000000000000000000000000000000000000000602082015250565b6000611328602883610fa1565b9150611333826112cc565b604082019050919050565b600060208201905081810360008301526113578161131b565b9050919050565b7f54686520766f74657220616c726561647920766f7465642e0000000000000000600082015250565b6000611394601883610fa1565b915061139f8261135e565b602082019050919050565b600060208201905081810360008301526113c381611387565b905091905056fea26469706673582212200f93066761960da6ecd018d1ac65168dc61f6dd306c18c2eb9fc7581b004932a64736f6c634300081c0033",
  "linkReferences": {},
  "deployedLinkReferences": {}
}