{
  "_format": "hh-sol-artifact-1",
  "contractName": "Airdrop",
  "sourceName": "contracts/Airdrop.sol",
  "abi": [
    {
      "inputs": [
        {
          "internalType": "address",
          "name": "_token",
          "type": "address"
        }
      ],
      "stateMutability": "nonpayable",
      "type": "constructor"
    },
    {
      "inputs": [],
      "name": "InvalidAmount",
      "type": "error"
    },
    {
      "inputs": [],
      "name": "InvalidRecipient",
      "type": "error"
    },
    {
      "inputs": [
        {
          "internalType": "address",
          "name": "account",
          "type": "address"
        }
      ],
      "name": "NotWhitelisted",
      "type": "error"
    },
    {
      "inputs": [
        {
          "internalType": "address",
          "name": "owner",
          "type": "address"
        }
      ],
      "name": "OwnableInvalidOwner",
      "type": "error"
    },
    {
      "inputs": [
        {
          "internalType": "address",
          "name": "account",
          "type": "address"
        }
      ],
      "name": "OwnableUnauthorizedAccount",
      "type": "error"
    },
    {
      "inputs": [],
      "name": "TransferFailed",
      "type": "error"
    },
    {
      "anonymous": false,
      "inputs": [
        {
          "indexed": true,
          "internalType": "address",
          "name": "recipient",
          "type": "address"
        },
        {
          "indexed": false,
          "internalType": "uint256",
          "name": "amount",
          "type": "uint256"
        }
      ],
      "name": "AirdropSent",
      "type": "event"
    },
    {
      "anonymous": false,
      "inputs": [
        {
          "indexed": true,
          "internalType": "address",
          "name": "previousOwner",
          "type": "address"
        },
        {
          "indexed": true,
          "internalType": "address",
          "name": "newOwner",
          "type": "address"
        }
      ],
      "name": "OwnershipTransferred",
      "type": "event"
    },
    {
      "anonymous": false,
      "inputs": [
        {
          "indexed": true,
          "internalType": "address",
          "name": "account",
          "type": "address"
        },
        {
          "indexed": false,
          "internalType": "bool",
          "name": "status",
          "type": "bool"
        }
      ],
      "name": "Whitelisted",
      "type": "event"
    },
    {
      "inputs": [
        {
          "internalType": "address",
          "name": "_recipient",
          "type": "address"
        },
        {
          "internalType": "uint256",
          "name": "_amount",
          "type": "uint256"
        }
      ],
      "name": "airdrop",
      "outputs": [],
      "stateMutability": "nonpayable",
      "type": "function"
    },
    {
      "inputs": [
        {
          "internalType": "address[]",
          "name": "_recipients",
          "type": "address[]"
        },
        {
          "internalType": "uint256[]",
          "name": "_amounts",
          "type": "uint256[]"
        }
      ],
      "name": "batchAirdrop",
      "outputs": [],
      "stateMutability": "nonpayable",
      "type": "function"
    },
    {
      "inputs": [],
      "name": "owner",
      "outputs": [
        {
          "internalType": "address",
          "name": "",
          "type": "address"
        }
      ],
      "stateMutability": "view",
      "type": "function"
    },
    {
      "inputs": [],
      "name": "renounceOwnership",
      "outputs": [],
      "stateMutability": "nonpayable",
      "type": "function"
    },
    {
      "inputs": [
        {
          "internalType": "address",
          "name": "_account",
          "type": "address"
        },
        {
          "internalType": "bool",
          "name": "_status",
          "type": "bool"
        }
      ],
      "name": "setWhitelist",
      "outputs": [],
      "stateMutability": "nonpayable",
      "type": "function"
    },
    {
      "inputs": [],
      "name": "token",
      "outputs": [
        {
          "internalType": "contract IERC20",
          "name": "",
          "type": "address"
        }
      ],
      "stateMutability": "view",
      "type": "function"
    },
    {
      "inputs": [
        {
          "internalType": "address",
          "name": "newOwner",
          "type": "address"
        }
      ],
      "name": "transferOwnership",
      "outputs": [],
      "stateMutability": "nonpayable",
      "type": "function"
    },
    {
      "inputs": [
        {
          "internalType": "address",
          "name": "",
          "type": "address"
        }
      ],
      "name": "whitelisted",
      "outputs": [
        {
          "internalType": "bool",
          "name": "",
          "type": "bool"
        }
      ],
      "stateMutability": "view",
      "type": "function"
    }
  ],
  "bytecode": "0x60806040523480156200001157600080fd5b506040516200127e3803806200127e833981810160405281019062000037919062000235565b33600073ffffffffffffffffffffffffffffffffffffffff168173ffffffffffffffffffffffffffffffffffffffff1603620000ad5760006040517f1e4fbdf7000000000000000000000000000000000000000000000000000000008152600401620000a4919062000278565b60405180910390fd5b620000be816200010760201b60201c565b5080600160006101000a81548173ffffffffffffffffffffffffffffffffffffffff021916908373ffffffffffffffffffffffffffffffffffffffff1602179055505062000295565b60008060009054906101000a900473ffffffffffffffffffffffffffffffffffffffff169050816000806101000a81548173ffffffffffffffffffffffffffffffffffffffff021916908373ffffffffffffffffffffffffffffffffffffffff1602179055508173ffffffffffffffffffffffffffffffffffffffff168173ffffffffffffffffffffffffffffffffffffffff167f8be0079c531659141344cd1fd0a4f28419497f9722a3daafe3b4186f6b6457e060405160405180910390a35050565b600080fd5b600073ffffffffffffffffffffffffffffffffffffffff82169050919050565b6000620001fd82620001d0565b9050919050565b6200020f81620001f0565b81146200021b57600080fd5b50565b6000815190506200022f8162000204565b92915050565b6000602082840312156200024e576200024d620001cb565b5b60006200025e848285016200021e565b91505092915050565b6200027281620001f0565b82525050565b60006020820190506200028f600083018462000267565b92915050565b610fd980620002a56000396000f3fe608060405234801561001057600080fd5b50600436106100885760003560e01c8063b816d0871161005b578063b816d087146100ed578063d936547e14610109578063f2fde38b14610139578063fc0c546a1461015557610088565b806353d6fd591461008d578063715018a6146100a95780638ba4cc3c146100b35780638da5cb5b146100cf575b600080fd5b6100a760048036038101906100a29190610b09565b610173565b005b6100b1610293565b005b6100cd60048036038101906100c89190610b7f565b6102a7565b005b6100d761050b565b6040516100e49190610bce565b60405180910390f35b61010760048036038101906101029190610ca4565b610534565b005b610123600480360381019061011e9190610d25565b61084a565b6040516101309190610d61565b60405180910390f35b610153600480360381019061014e9190610d25565b61086a565b005b61015d6108f0565b60405161016a9190610ddb565b60405180910390f35b61017b610916565b600073ffffffffffffffffffffffffffffffffffffffff168273ffffffffffffffffffffffffffffffffffffffff16036101ea576040517f08c379a00000000000000000000000000000000000000000000000000000000081526004016101e190610e53565b60405180910390fd5b80600260008473ffffffffffffffffffffffffffffffffffffffff1673ffffffffffffffffffffffffffffffffffffffff16815260200190815260200160002060006101000a81548160ff0219169083151502179055508173ffffffffffffffffffffffffffffffffffffffff167fa54714518c5d275fdcd3d2a461e4858e4e8cb04fb93cd0bca9d6d34115f26440826040516102879190610d61565b60405180910390a25050565b61029b610916565b6102a5600061099d565b565b6102af610916565b600260008373ffffffffffffffffffffffffffffffffffffffff1673ffffffffffffffffffffffffffffffffffffffff16815260200190815260200160002060009054906101000a900460ff1661033d57816040517fdf17e3160000000000000000000000000000000000000000000000000000000081526004016103349190610bce565b60405180910390fd5b600073ffffffffffffffffffffffffffffffffffffffff168273ffffffffffffffffffffffffffffffffffffffff16036103a3576040517f9c8d2cd200000000000000000000000000000000000000000000000000000000815260040160405180910390fd5b600081036103dd576040517f2c5211c600000000000000000000000000000000000000000000000000000000815260040160405180910390fd5b6000600160009054906101000a900473ffffffffffffffffffffffffffffffffffffffff1673ffffffffffffffffffffffffffffffffffffffff1663a9059cbb84846040518363ffffffff1660e01b815260040161043c929190610e82565b6020604051808303816000875af115801561045b573d6000803e3d6000fd5b505050506040513d601f19601f8201168201806040525081019061047f9190610ec0565b9050806104b8576040517f90b8ec1800000000000000000000000000000000000000000000000000000000815260040160405180910390fd5b8273ffffffffffffffffffffffffffffffffffffffff167f90bcf0048b4f2fce00ba208729b9edf192f9ca8c71b84845e2d94f7dffeeddcd836040516104fe9190610eed565b60405180910390a2505050565b60008060009054906101000a900473ffffffffffffffffffffffffffffffffffffffff16905090565b61053c610916565b818190508484905014610584576040517f08c379a000000000000000000000000000000000000000000000000000000000815260040161057b90610f54565b60405180910390fd5b60005b848490508110156108435760008585838181106105a7576105a6610f74565b5b90506020020160208101906105bc9190610d25565b905060008484848181106105d3576105d2610f74565b5b905060200201359050600260008373ffffffffffffffffffffffffffffffffffffffff1673ffffffffffffffffffffffffffffffffffffffff16815260200190815260200160002060009054906101000a900460ff1661066a57816040517fdf17e3160000000000000000000000000000000000000000000000000000000081526004016106619190610bce565b60405180910390fd5b600073ffffffffffffffffffffffffffffffffffffffff168273ffffffffffffffffffffffffffffffffffffffff16036106d0576040517f9c8d2cd200000000000000000000000000000000000000000000000000000000815260040160405180910390fd5b6000810361070a576040517f2c5211c600000000000000000000000000000000000000000000000000000000815260040160405180910390fd5b6000600160009054906101000a900473ffffffffffffffffffffffffffffffffffffffff1673ffffffffffffffffffffffffffffffffffffffff1663a9059cbb84846040518363ffffffff1660e01b8152600401610769929190610e82565b6020604051808303816000875af1158015610788573d6000803e3d6000fd5b505050506040513d601f19601f820116820180604052508101906107ac9190610ec0565b9050806107e5576040517f90b8ec1800000000000000000000000000000000000000000000000000000000815260040160405180910390fd5b8273ffffffffffffffffffffffffffffffffffffffff167f90bcf0048b4f2fce00ba208729b9edf192f9ca8c71b84845e2d94f7dffeeddcd8360405161082b9190610eed565b60405180910390a25050508080600101915050610587565b5050505050565b60026020528060005260406000206000915054906101000a900460ff1681565b610872610916565b600073ffffffffffffffffffffffffffffffffffffffff168173ffffffffffffffffffffffffffffffffffffffff16036108e45760006040517f1e4fbdf70000000000000000000000000000000000000000000000000000000081526004016108db9190610bce565b60405180910390fd5b6108ed8161099d565b50565b600160009054906101000a900473ffffffffffffffffffffffffffffffffffffffff1681565b61091e610a61565b73ffffffffffffffffffffffffffffffffffffffff1661093c61050b565b73ffffffffffffffffffffffffffffffffffffffff161461099b5761095f610a61565b6040517f118cdaa70000000000000000000000000000000000000000000000000000000081526004016109929190610bce565b60405180910390fd5b565b60008060009054906101000a900473ffffffffffffffffffffffffffffffffffffffff169050816000806101000a81548173ffffffffffffffffffffffffffffffffffffffff021916908373ffffffffffffffffffffffffffffffffffffffff1602179055508173ffffffffffffffffffffffffffffffffffffffff168173ffffffffffffffffffffffffffffffffffffffff167f8be0079c531659141344cd1fd0a4f28419497f9722a3daafe3b4186f6b6457e060405160405180910390a35050565b600033905090565b600080fd5b600080fd5b600073ffffffffffffffffffffffffffffffffffffffff82169050919050565b6000610a9e82610a73565b9050919050565b610aae81610a93565b8114610ab957600080fd5b50565b600081359050610acb81610aa5565b92915050565b60008115159050919050565b610ae681610ad1565b8114610af157600080fd5b50565b600081359050610b0381610add565b92915050565b60008060408385031215610b2057610b1f610a69565b5b6000610b2e85828601610abc565b9250506020610b3f85828601610af4565b9150509250929050565b6000819050919050565b610b5c81610b49565b8114610b6757600080fd5b50565b600081359050610b7981610b53565b92915050565b60008060408385031215610b9657610b95610a69565b5b6000610ba485828601610abc565b9250506020610bb585828601610b6a565b9150509250929050565b610bc881610a93565b82525050565b6000602082019050610be36000830184610bbf565b92915050565b600080fd5b600080fd5b600080fd5b60008083601f840112610c0e57610c0d610be9565b5b8235905067ffffffffffffffff811115610c2b57610c2a610bee565b5b602083019150836020820283011115610c4757610c46610bf3565b5b9250929050565b60008083601f840112610c6457610c63610be9565b5b8235905067ffffffffffffffff811115610c8157610c80610bee565b5b602083019150836020820283011115610c9d57610c9c610bf3565b5b9250929050565b60008060008060408587031215610cbe57610cbd610a69565b5b600085013567ffffffffffffffff811115610cdc57610cdb610a6e565b5b610ce887828801610bf8565b9450945050602085013567ffffffffffffffff811115610d0b57610d0a610a6e565b5b610d1787828801610c4e565b925092505092959194509250565b600060208284031215610d3b57610d3a610a69565b5b6000610d4984828501610abc565b91505092915050565b610d5b81610ad1565b82525050565b6000602082019050610d766000830184610d52565b92915050565b6000819050919050565b6000610da1610d9c610d9784610a73565b610d7c565b610a73565b9050919050565b6000610db382610d86565b9050919050565b6000610dc582610da8565b9050919050565b610dd581610dba565b82525050565b6000602082019050610df06000830184610dcc565b92915050565b600082825260208201905092915050565b7f496e76616c696420616464726573730000000000000000000000000000000000600082015250565b6000610e3d600f83610df6565b9150610e4882610e07565b602082019050919050565b60006020820190508181036000830152610e6c81610e30565b9050919050565b610e7c81610b49565b82525050565b6000604082019050610e976000830185610bbf565b610ea46020830184610e73565b9392505050565b600081519050610eba81610add565b92915050565b600060208284031215610ed657610ed5610a69565b5b6000610ee484828501610eab565b91505092915050565b6000602082019050610f026000830184610e73565b92915050565b7f4d69736d61746368656420617272617973000000000000000000000000000000600082015250565b6000610f3e601183610df6565b9150610f4982610f08565b602082019050919050565b60006020820190508181036000830152610f6d81610f31565b9050919050565b7f4e487b7100000000000000000000000000000000000000000000000000000000600052603260045260246000fdfea26469706673582212207c9e953a342a034d87918753086f44d1b6acf5c7f678ba89ce103ef385b2149c64736f6c63430008160033",
  "linkReferences": {},
  "deployedLinkReferences": {}
}