{
    "_format": "hh-sol-artifact-1",
    "contractName": "MultiSigBoard",
    "sourceName": "contracts/Multisig.sol",
    "abi": [
        {
            "inputs": [],
            "name": "AlreadySigned",
            "type": "error"
        },
        {
            "inputs": [],
            "name": "InvalidAmount",
            "type": "error"
        },
        {
            "inputs": [],
            "name": "InvalidRecipient",
            "type": "error"
        },
        {
            "inputs": [],
            "name": "MaxBoardMembersReached",
            "type": "error"
        },
        {
            "inputs": [],
            "name": "MemberAlreadyExists",
            "type": "error"
        },
        {
            "inputs": [],
            "name": "MemberNotFound",
            "type": "error"
        },
        {
            "inputs": [],
            "name": "NotBoardMember",
            "type": "error"
        },
        {
            "inputs": [],
            "name": "NotEnoughSignatures",
            "type": "error"
        },
        {
            "inputs": [],
            "name": "TransferFailed",
            "type": "error"
        },
        {
            "anonymous": false,
            "inputs": [
                {
                    "indexed": true,
                    "internalType": "address",
                    "name": "member",
                    "type": "address"
                }
            ],
            "name": "BoardMemberAdded",
            "type": "event"
        },
        {
            "anonymous": false,
            "inputs": [
                {
                    "indexed": true,
                    "internalType": "address",
                    "name": "member",
                    "type": "address"
                }
            ],
            "name": "BoardMemberRemoved",
            "type": "event"
        },
        {
            "anonymous": false,
            "inputs": [
                {
                    "indexed": true,
                    "internalType": "address",
                    "name": "sender",
                    "type": "address"
                },
                {
                    "indexed": false,
                    "internalType": "uint256",
                    "name": "amount",
                    "type": "uint256"
                }
            ],
            "name": "Deposit",
            "type": "event"
        },
        {
            "anonymous": false,
            "inputs": [
                {
                    "indexed": true,
                    "internalType": "address",
                    "name": "signer",
                    "type": "address"
                },
                {
                    "indexed": false,
                    "internalType": "bytes32",
                    "name": "txHash",
                    "type": "bytes32"
                }
            ],
            "name": "Signed",
            "type": "event"
        },
        {
            "anonymous": false,
            "inputs": [
                {
                    "indexed": true,
                    "internalType": "address",
                    "name": "recipient",
                    "type": "address"
                },
                {
                    "indexed": false,
                    "internalType": "uint256",
                    "name": "amount",
                    "type": "uint256"
                }
            ],
            "name": "Withdrawal",
            "type": "event"
        },
        {
            "inputs": [],
            "name": "MAX_BOARD_MEMBERS",
            "outputs": [
                {
                    "internalType": "uint256",
                    "name": "",
                    "type": "uint256"
                }
            ],
            "stateMutability": "view",
            "type": "function"
        },
        {
            "inputs": [
                {
                    "internalType": "address",
                    "name": "member",
                    "type": "address"
                }
            ],
            "name": "addBoardMember",
            "outputs": [],
            "stateMutability": "nonpayable",
            "type": "function"
        },
        {
            "inputs": [
                {
                    "internalType": "uint256",
                    "name": "",
                    "type": "uint256"
                }
            ],
            "name": "boardMembers",
            "outputs": [
                {
                    "internalType": "address",
                    "name": "",
                    "type": "address"
                }
            ],
            "stateMutability": "view",
            "type": "function"
        },
        {
            "inputs": [],
            "name": "deposit",
            "outputs": [],
            "stateMutability": "payable",
            "type": "function"
        },
        {
            "inputs": [
                {
                    "internalType": "address payable",
                    "name": "recipient",
                    "type": "address"
                },
                {
                    "internalType": "uint256",
                    "name": "amount",
                    "type": "uint256"
                },
                {
                    "internalType": "bytes32",
                    "name": "txHash",
                    "type": "bytes32"
                }
            ],
            "name": "executeWithdrawal",
            "outputs": [],
            "stateMutability": "nonpayable",
            "type": "function"
        },
        {
            "inputs": [
                {
                    "internalType": "address",
                    "name": "",
                    "type": "address"
                }
            ],
            "name": "isBoardMember",
            "outputs": [
                {
                    "internalType": "bool",
                    "name": "",
                    "type": "bool"
                }
            ],
            "stateMutability": "view",
            "type": "function"
        },
        {
            "inputs": [
                {
                    "internalType": "address",
                    "name": "member",
                    "type": "address"
                }
            ],
            "name": "removeBoardMember",
            "outputs": [],
            "stateMutability": "nonpayable",
            "type": "function"
        },
        {
            "inputs": [
                {
                    "internalType": "bytes32",
                    "name": "txHash",
                    "type": "bytes32"
                }
            ],
            "name": "signTransaction",
            "outputs": [],
            "stateMutability": "nonpayable",
            "type": "function"
        },
        {
            "inputs": [
                {
                    "internalType": "bytes32",
                    "name": "",
                    "type": "bytes32"
                },
                {
                    "internalType": "address",
                    "name": "",
                    "type": "address"
                }
            ],
            "name": "signed",
            "outputs": [
                {
                    "internalType": "bool",
                    "name": "",
                    "type": "bool"
                }
            ],
            "stateMutability": "view",
            "type": "function"
        },
        {
            "stateMutability": "payable",
            "type": "receive"
        }
    ],
    "bytecode": "0x6080604052348015600f57600080fd5b5061111c8061001f6000396000f3fe60806040526004361061008a5760003560e01c806371942a011161005957806371942a01146101b0578063955c20b2146101ed578063d0e30db014610216578063f19fd37c14610220578063f5ad59d81461024b576100df565b80630da757fc146100e45780631eac03ae146101215780632a892ea91461014a57806339a169f914610187576100df565b366100df573373ffffffffffffffffffffffffffffffffffffffff167fe1fffcc4923d04b559f4d29a8bfc6cda04eb5b0d3c460751c2402c5c5cc9109c346040516100d59190610cd5565b60405180910390a2005b600080fd5b3480156100f057600080fd5b5061010b60048036038101906101069190610d89565b610274565b6040516101189190610de4565b60405180910390f35b34801561012d57600080fd5b5061014860048036038101906101439190610dff565b6102a3565b005b34801561015657600080fd5b50610171600480360381019061016c9190610e58565b610466565b60405161017e9190610e94565b60405180910390f35b34801561019357600080fd5b506101ae60048036038101906101a99190610dff565b6104a5565b005b3480156101bc57600080fd5b506101d760048036038101906101d29190610dff565b61074d565b6040516101e49190610de4565b60405180910390f35b3480156101f957600080fd5b50610214600480360381019061020f9190610eaf565b61076d565b005b61021e61093f565b005b34801561022c57600080fd5b5061023561098f565b6040516102429190610cd5565b60405180910390f35b34801561025757600080fd5b50610272600480360381019061026d9190610f1a565b610994565b005b60026020528160005260406000206020528060005260406000206000915091509054906101000a900460ff1681565b600160008273ffffffffffffffffffffffffffffffffffffffff1673ffffffffffffffffffffffffffffffffffffffff16815260200190815260200160002060009054906101000a900460ff1615610327576040517fe015095200000000000000000000000000000000000000000000000000000000815260040160405180910390fd5b601460008054905010610366576040517fd0858e5300000000000000000000000000000000000000000000000000000000815260040160405180910390fd5b60018060008373ffffffffffffffffffffffffffffffffffffffff1673ffffffffffffffffffffffffffffffffffffffff16815260200190815260200160002060006101000a81548160ff0219169083151502179055506000819080600181540180825580915050600190039060005260206000200160009091909190916101000a81548173ffffffffffffffffffffffffffffffffffffffff021916908373ffffffffffffffffffffffffffffffffffffffff1602179055508073ffffffffffffffffffffffffffffffffffffffff167f956f4b06f20eda3aa4f6be9e72e8fc77beb3f95f4f2a95a796b2af742583d74360405160405180910390a250565b6000818154811061047657600080fd5b906000526020600020016000915054906101000a900473ffffffffffffffffffffffffffffffffffffffff1681565b600160008273ffffffffffffffffffffffffffffffffffffffff1673ffffffffffffffffffffffffffffffffffffffff16815260200190815260200160002060009054906101000a900460ff16610528576040517f1fdd7d6300000000000000000000000000000000000000000000000000000000815260040160405180910390fd5b6000600160008373ffffffffffffffffffffffffffffffffffffffff1673ffffffffffffffffffffffffffffffffffffffff16815260200190815260200160002060006101000a81548160ff02191690831515021790555060005b600080549050811015610706578173ffffffffffffffffffffffffffffffffffffffff16600082815481106105bb576105ba610f6d565b5b9060005260206000200160009054906101000a900473ffffffffffffffffffffffffffffffffffffffff1673ffffffffffffffffffffffffffffffffffffffff16036106f957600060016000805490506106159190610fcb565b8154811061062657610625610f6d565b5b9060005260206000200160009054906101000a900473ffffffffffffffffffffffffffffffffffffffff166000828154811061066557610664610f6d565b5b9060005260206000200160006101000a81548173ffffffffffffffffffffffffffffffffffffffff021916908373ffffffffffffffffffffffffffffffffffffffff16021790555060008054806106bf576106be610fff565b5b6001900381819060005260206000200160006101000a81549073ffffffffffffffffffffffffffffffffffffffff02191690559055610706565b8080600101915050610583565b508073ffffffffffffffffffffffffffffffffffffffff167f5059b541f12100245fc1e0afc5a897e4f2b2ac151e48752188c24421eeb9750b60405160405180910390a250565b60016020528060005260406000206000915054906101000a900460ff1681565b600160003373ffffffffffffffffffffffffffffffffffffffff1673ffffffffffffffffffffffffffffffffffffffff16815260200190815260200160002060009054906101000a900460ff166107f0576040517fa68161a300000000000000000000000000000000000000000000000000000000815260040160405180910390fd5b6002600082815260200190815260200160002060003373ffffffffffffffffffffffffffffffffffffffff1673ffffffffffffffffffffffffffffffffffffffff16815260200190815260200160002060009054906101000a900460ff1615610885576040517fb0bd6aca00000000000000000000000000000000000000000000000000000000815260040160405180910390fd5b60016002600083815260200190815260200160002060003373ffffffffffffffffffffffffffffffffffffffff1673ffffffffffffffffffffffffffffffffffffffff16815260200190815260200160002060006101000a81548160ff0219169083151502179055503373ffffffffffffffffffffffffffffffffffffffff167f6ce43e3def6c459ff915b7e85f0988330a741ef8b79e90dee95a8a976918672a82604051610934919061103d565b60405180910390a250565b3373ffffffffffffffffffffffffffffffffffffffff167fe1fffcc4923d04b559f4d29a8bfc6cda04eb5b0d3c460751c2402c5c5cc9109c346040516109859190610cd5565b60405180910390a2565b601481565b600160003373ffffffffffffffffffffffffffffffffffffffff1673ffffffffffffffffffffffffffffffffffffffff16815260200190815260200160002060009054906101000a900460ff16610a17576040517fa68161a300000000000000000000000000000000000000000000000000000000815260040160405180910390fd5b600073ffffffffffffffffffffffffffffffffffffffff168373ffffffffffffffffffffffffffffffffffffffff1603610a7d576040517f9c8d2cd200000000000000000000000000000000000000000000000000000000815260040160405180910390fd5b60008203610ab7576040517f2c5211c600000000000000000000000000000000000000000000000000000000815260040160405180910390fd5b6000805b600080549050811015610b8457600260008481526020019081526020016000206000808381548110610af057610aef610f6d565b5b9060005260206000200160009054906101000a900473ffffffffffffffffffffffffffffffffffffffff1673ffffffffffffffffffffffffffffffffffffffff1673ffffffffffffffffffffffffffffffffffffffff16815260200190815260200160002060009054906101000a900460ff1615610b77578180610b7390611058565b9250505b8080600101915050610abb565b50600080549050811015610bc4576040517fe246dc6300000000000000000000000000000000000000000000000000000000815260040160405180910390fd5b60008473ffffffffffffffffffffffffffffffffffffffff1684604051610bea906110d1565b60006040518083038185875af1925050503d8060008114610c27576040519150601f19603f3d011682016040523d82523d6000602084013e610c2c565b606091505b5050905080610c67576040517f90b8ec1800000000000000000000000000000000000000000000000000000000815260040160405180910390fd5b8473ffffffffffffffffffffffffffffffffffffffff167f7fcf532c15f0a6db0bd6d0e038bea71d30d808c7d98cb3bf7268a95bf5081b6585604051610cad9190610cd5565b60405180910390a25050505050565b6000819050919050565b610ccf81610cbc565b82525050565b6000602082019050610cea6000830184610cc6565b92915050565b600080fd5b6000819050919050565b610d0881610cf5565b8114610d1357600080fd5b50565b600081359050610d2581610cff565b92915050565b600073ffffffffffffffffffffffffffffffffffffffff82169050919050565b6000610d5682610d2b565b9050919050565b610d6681610d4b565b8114610d7157600080fd5b50565b600081359050610d8381610d5d565b92915050565b60008060408385031215610da057610d9f610cf0565b5b6000610dae85828601610d16565b9250506020610dbf85828601610d74565b9150509250929050565b60008115159050919050565b610dde81610dc9565b82525050565b6000602082019050610df96000830184610dd5565b92915050565b600060208284031215610e1557610e14610cf0565b5b6000610e2384828501610d74565b91505092915050565b610e3581610cbc565b8114610e4057600080fd5b50565b600081359050610e5281610e2c565b92915050565b600060208284031215610e6e57610e6d610cf0565b5b6000610e7c84828501610e43565b91505092915050565b610e8e81610d4b565b82525050565b6000602082019050610ea96000830184610e85565b92915050565b600060208284031215610ec557610ec4610cf0565b5b6000610ed384828501610d16565b91505092915050565b6000610ee782610d2b565b9050919050565b610ef781610edc565b8114610f0257600080fd5b50565b600081359050610f1481610eee565b92915050565b600080600060608486031215610f3357610f32610cf0565b5b6000610f4186828701610f05565b9350506020610f5286828701610e43565b9250506040610f6386828701610d16565b9150509250925092565b7f4e487b7100000000000000000000000000000000000000000000000000000000600052603260045260246000fd5b7f4e487b7100000000000000000000000000000000000000000000000000000000600052601160045260246000fd5b6000610fd682610cbc565b9150610fe183610cbc565b9250828203905081811115610ff957610ff8610f9c565b5b92915050565b7f4e487b7100000000000000000000000000000000000000000000000000000000600052603160045260246000fd5b61103781610cf5565b82525050565b6000602082019050611052600083018461102e565b92915050565b600061106382610cbc565b91507fffffffffffffffffffffffffffffffffffffffffffffffffffffffffffffffff820361109557611094610f9c565b5b600182019050919050565b600081905092915050565b50565b60006110bb6000836110a0565b91506110c6826110ab565b600082019050919050565b60006110dc826110ae565b915081905091905056fea2646970667358221220425a2fc52029a0a95560998db8ec646be19d1bcec7265b7756c44c7b75cc472964736f6c634300081c0033",
    "linkReferences": {},
    "deployedLinkReferences": {}
}