{
    "_format": "hh-sol-artifact-1",
    "contractName": "ClassRegistration",
    "sourceName": "contracts/Lock.sol",
    "abi": [
        {
            "inputs": [],
            "stateMutability": "nonpayable",
            "type": "constructor"
        },
        {
            "anonymous": false,
            "inputs": [
                {
                    "indexed": false,
                    "internalType": "uint256",
                    "name": "id",
                    "type": "uint256"
                },
                {
                    "indexed": false,
                    "internalType": "string",
                    "name": "name",
                    "type": "string"
                }
            ],
            "name": "StudentRegistered",
            "type": "event"
        },
        {
            "anonymous": false,
            "inputs": [
                {
                    "indexed": false,
                    "internalType": "uint256",
                    "name": "id",
                    "type": "uint256"
                }
            ],
            "name": "StudentRemoved",
            "type": "event"
        },
        {
            "inputs": [],
            "name": "admin",
            "outputs": [
                {
                    "internalType": "address",
                    "name": "",
                    "type": "address"
                }
            ],
            "stateMutability": "view",
            "type": "function"
        },
        {
            "inputs": [],
            "name": "getAllStudents",
            "outputs": [
                {
                    "components": [
                        {
                            "internalType": "uint256",
                            "name": "id",
                            "type": "uint256"
                        },
                        {
                            "internalType": "string",
                            "name": "name",
                            "type": "string"
                        },
                        {
                            "internalType": "bool",
                            "name": "isRegistered",
                            "type": "bool"
                        }
                    ],
                    "internalType": "struct ClassRegistration.Student[]",
                    "name": "",
                    "type": "tuple[]"
                }
            ],
            "stateMutability": "view",
            "type": "function"
        },
        {
            "inputs": [
                {
                    "internalType": "uint256",
                    "name": "_id",
                    "type": "uint256"
                }
            ],
            "name": "getStudentById",
            "outputs": [
                {
                    "internalType": "string",
                    "name": "",
                    "type": "string"
                },
                {
                    "internalType": "bool",
                    "name": "",
                    "type": "bool"
                }
            ],
            "stateMutability": "view",
            "type": "function"
        },
        {
            "inputs": [
                {
                    "internalType": "uint256",
                    "name": "_id",
                    "type": "uint256"
                },
                {
                    "internalType": "string",
                    "name": "_name",
                    "type": "string"
                }
            ],
            "name": "registerStudent",
            "outputs": [],
            "stateMutability": "nonpayable",
            "type": "function"
        },
        {
            "inputs": [
                {
                    "internalType": "uint256",
                    "name": "_id",
                    "type": "uint256"
                }
            ],
            "name": "removeStudent",
            "outputs": [],
            "stateMutability": "nonpayable",
            "type": "function"
        },
        {
            "inputs": [],
            "name": "studentCount",
            "outputs": [
                {
                    "internalType": "uint256",
                    "name": "",
                    "type": "uint256"
                }
            ],
            "stateMutability": "view",
            "type": "function"
        },
        {
            "inputs": [
                {
                    "internalType": "uint256",
                    "name": "",
                    "type": "uint256"
                }
            ],
            "name": "studentIds",
            "outputs": [
                {
                    "internalType": "uint256",
                    "name": "",
                    "type": "uint256"
                }
            ],
            "stateMutability": "view",
            "type": "function"
        },
        {
            "inputs": [
                {
                    "internalType": "uint256",
                    "name": "",
                    "type": "uint256"
                }
            ],
            "name": "students",
            "outputs": [
                {
                    "internalType": "uint256",
                    "name": "id",
                    "type": "uint256"
                },
                {
                    "internalType": "string",
                    "name": "name",
                    "type": "string"
                },
                {
                    "internalType": "bool",
                    "name": "isRegistered",
                    "type": "bool"
                }
            ],
            "stateMutability": "view",
            "type": "function"
        }
    ],
    "bytecode": "0x608060405234801561001057600080fd5b50336000806101000a81548173ffffffffffffffffffffffffffffffffffffffff021916908373ffffffffffffffffffffffffffffffffffffffff160217905550611469806100606000396000f3fe608060405234801561001057600080fd5b50600436106100885760003560e01c8063c8fb07931161005b578063c8fb079314610127578063e581f9ee14610158578063e9e3092714610176578063f851a4401461019457610088565b806306ead22e1461008d5780633f9586d4146100bf5780636af83845146100db5780636f28c355146100f7575b600080fd5b6100a760048036038101906100a291906109f3565b6101b2565b6040516100b693929190610ada565b60405180910390f35b6100d960048036038101906100d49190610c4d565b610271565b005b6100f560048036038101906100f091906109f3565b610455565b005b610111600480360381019061010c91906109f3565b6105da565b60405161011e9190610ca9565b60405180910390f35b610141600480360381019061013c91906109f3565b6105fe565b60405161014f929190610cc4565b60405180910390f35b610160610734565b60405161016d9190610ca9565b60405180910390f35b61017e61073a565b60405161018b9190610e6e565b60405180910390f35b61019c610905565b6040516101a99190610ed1565b60405180910390f35b60026020528060005260406000206000915090508060000154908060010180546101db90610f1b565b80601f016020809104026020016040519081016040528092919081815260200182805461020790610f1b565b80156102545780601f1061022957610100808354040283529160200191610254565b820191906000526020600020905b81548152906001019060200180831161023757829003601f168201915b5050505050908060020160009054906101000a900460ff16905083565b60008054906101000a900473ffffffffffffffffffffffffffffffffffffffff1673ffffffffffffffffffffffffffffffffffffffff163373ffffffffffffffffffffffffffffffffffffffff16146102ff576040517f08c379a00000000000000000000000000000000000000000000000000000000081526004016102f690610fbe565b60405180910390fd5b6002600083815260200190815260200160002060020160009054906101000a900460ff1615610363576040517f08c379a000000000000000000000000000000000000000000000000000000000815260040161035a9061102a565b60405180910390fd5b604051806060016040528083815260200182815260200160011515815250600260008481526020019081526020016000206000820151816000015560208201518160010190816103b391906111f6565b5060408201518160020160006101000a81548160ff021916908315150217905550905050600382908060018154018082558091505060019003906000526020600020016000909190919091505560016000815480929190610413906112f7565b91905055507f82972a188d7a560cf772804ac1cadfb42df2654ff1ded99159259c287ead2630828260405161044992919061133f565b60405180910390a15050565b60008054906101000a900473ffffffffffffffffffffffffffffffffffffffff1673ffffffffffffffffffffffffffffffffffffffff163373ffffffffffffffffffffffffffffffffffffffff16146104e3576040517f08c379a00000000000000000000000000000000000000000000000000000000081526004016104da90610fbe565b60405180910390fd5b6002600082815260200190815260200160002060020160009054906101000a900460ff16610546576040517f08c379a000000000000000000000000000000000000000000000000000000000815260040161053d906113bb565b60405180910390fd5b600260008281526020019081526020016000206000808201600090556001820160006105729190610929565b6002820160006101000a81549060ff021916905550506001600081548092919061059b906113db565b91905055507f59341c48fd0b57ee9c153818be62372ef211cc499da6c2c6d5b8fe49721f36c5816040516105cf9190610ca9565b60405180910390a150565b600381815481106105ea57600080fd5b906000526020600020016000915090505481565b606060006002600084815260200190815260200160002060020160009054906101000a900460ff16610665576040517f08c379a000000000000000000000000000000000000000000000000000000000815260040161065c906113bb565b60405180910390fd5b600260008481526020019081526020016000206001016002600085815260200190815260200160002060020160009054906101000a900460ff168180546106ab90610f1b565b80601f01602080910402602001604051908101604052809291908181526020018280546106d790610f1b565b80156107245780601f106106f957610100808354040283529160200191610724565b820191906000526020600020905b81548152906001019060200180831161070757829003601f168201915b5050505050915091509150915091565b60015481565b6060600060038054905067ffffffffffffffff81111561075d5761075c610b22565b5b60405190808252806020026020018201604052801561079657816020015b610783610969565b81526020019060019003908161077b5790505b50905060005b6003805490508110156108fd576000600382815481106107bf576107be611404565b5b906000526020600020015490506002600082815260200190815260200160002060020160009054906101000a900460ff16156108e957600260008281526020019081526020016000206040518060600160405290816000820154815260200160018201805461082d90610f1b565b80601f016020809104026020016040519081016040528092919081815260200182805461085990610f1b565b80156108a65780601f1061087b576101008083540402835291602001916108a6565b820191906000526020600020905b81548152906001019060200180831161088957829003601f168201915b505050505081526020016002820160009054906101000a900460ff1615151515815250508383815181106108dd576108dc611404565b5b60200260200101819052505b5080806108f5906112f7565b91505061079c565b508091505090565b60008054906101000a900473ffffffffffffffffffffffffffffffffffffffff1681565b50805461093590610f1b565b6000825580601f106109475750610966565b601f016020900490600052602060002090810190610965919061098c565b5b50565b604051806060016040528060008152602001606081526020016000151581525090565b5b808211156109a557600081600090555060010161098d565b5090565b6000604051905090565b600080fd5b600080fd5b6000819050919050565b6109d0816109bd565b81146109db57600080fd5b50565b6000813590506109ed816109c7565b92915050565b600060208284031215610a0957610a086109b3565b5b6000610a17848285016109de565b91505092915050565b610a29816109bd565b82525050565b600081519050919050565b600082825260208201905092915050565b60005b83811015610a69578082015181840152602081019050610a4e565b60008484015250505050565b6000601f19601f8301169050919050565b6000610a9182610a2f565b610a9b8185610a3a565b9350610aab818560208601610a4b565b610ab481610a75565b840191505092915050565b60008115159050919050565b610ad481610abf565b82525050565b6000606082019050610aef6000830186610a20565b8181036020830152610b018185610a86565b9050610b106040830184610acb565b949350505050565b600080fd5b600080fd5b7f4e487b7100000000000000000000000000000000000000000000000000000000600052604160045260246000fd5b610b5a82610a75565b810181811067ffffffffffffffff82111715610b7957610b78610b22565b5b80604052505050565b6000610b8c6109a9565b9050610b988282610b51565b919050565b600067ffffffffffffffff821115610bb857610bb7610b22565b5b610bc182610a75565b9050602081019050919050565b82818337600083830152505050565b6000610bf0610beb84610b9d565b610b82565b905082815260208101848484011115610c0c57610c0b610b1d565b5b610c17848285610bce565b509392505050565b600082601f830112610c3457610c33610b18565b5b8135610c44848260208601610bdd565b91505092915050565b60008060408385031215610c6457610c636109b3565b5b6000610c72858286016109de565b925050602083013567ffffffffffffffff811115610c9357610c926109b8565b5b610c9f85828601610c1f565b9150509250929050565b6000602082019050610cbe6000830184610a20565b92915050565b60006040820190508181036000830152610cde8185610a86565b9050610ced6020830184610acb565b9392505050565b600081519050919050565b600082825260208201905092915050565b6000819050602082019050919050565b610d29816109bd565b82525050565b600082825260208201905092915050565b6000610d4b82610a2f565b610d558185610d2f565b9350610d65818560208601610a4b565b610d6e81610a75565b840191505092915050565b610d8281610abf565b82525050565b6000606083016000830151610da06000860182610d20565b5060208301518482036020860152610db88282610d40565b9150506040830151610dcd6040860182610d79565b508091505092915050565b6000610de48383610d88565b905092915050565b6000602082019050919050565b6000610e0482610cf4565b610e0e8185610cff565b935083602082028501610e2085610d10565b8060005b85811015610e5c5784840389528151610e3d8582610dd8565b9450610e4883610dec565b925060208a01995050600181019050610e24565b50829750879550505050505092915050565b60006020820190508181036000830152610e888184610df9565b905092915050565b600073ffffffffffffffffffffffffffffffffffffffff82169050919050565b6000610ebb82610e90565b9050919050565b610ecb81610eb0565b82525050565b6000602082019050610ee66000830184610ec2565b92915050565b7f4e487b7100000000000000000000000000000000000000000000000000000000600052602260045260246000fd5b60006002820490506001821680610f3357607f821691505b602082108103610f4657610f45610eec565b5b50919050565b7f4f6e6c792061646d696e2063616e20706572666f726d2074686973206163746960008201527f6f6e000000000000000000000000000000000000000000000000000000000000602082015250565b6000610fa8602283610a3a565b9150610fb382610f4c565b604082019050919050565b60006020820190508181036000830152610fd781610f9b565b9050919050565b7f53747564656e7420494420616c72656164792072656769737465726564000000600082015250565b6000611014601d83610a3a565b915061101f82610fde565b602082019050919050565b6000602082019050818103600083015261104381611007565b9050919050565b60008190508160005260206000209050919050565b60006020601f8301049050919050565b600082821b905092915050565b6000600883026110ac7fffffffffffffffffffffffffffffffffffffffffffffffffffffffffffffffff8261106f565b6110b6868361106f565b95508019841693508086168417925050509392505050565b6000819050919050565b60006110f36110ee6110e9846109bd565b6110ce565b6109bd565b9050919050565b6000819050919050565b61110d836110d8565b611121611119826110fa565b84845461107c565b825550505050565b600090565b611136611129565b611141818484611104565b505050565b5b818110156111655761115a60008261112e565b600181019050611147565b5050565b601f8211156111aa5761117b8161104a565b6111848461105f565b81016020851015611193578190505b6111a761119f8561105f565b830182611146565b50505b505050565b600082821c905092915050565b60006111cd600019846008026111af565b1980831691505092915050565b60006111e683836111bc565b9150826002028217905092915050565b6111ff82610a2f565b67ffffffffffffffff81111561121857611217610b22565b5b6112228254610f1b565b61122d828285611169565b600060209050601f831160018114611260576000841561124e578287015190505b61125885826111da565b8655506112c0565b601f19841661126e8661104a565b60005b8281101561129657848901518255600182019150602085019450602081019050611271565b868310156112b357848901516112af601f8916826111bc565b8355505b6001600288020188555050505b505050505050565b7f4e487b7100000000000000000000000000000000000000000000000000000000600052601160045260246000fd5b6000611302826109bd565b91507fffffffffffffffffffffffffffffffffffffffffffffffffffffffffffffffff8203611334576113336112c8565b5b600182019050919050565b60006040820190506113546000830185610a20565b81810360208301526113668184610a86565b90509392505050565b7f53747564656e74204944206e6f7420666f756e64000000000000000000000000600082015250565b60006113a5601483610a3a565b91506113b08261136f565b602082019050919050565b600060208201905081810360008301526113d481611398565b9050919050565b60006113e6826109bd565b9150600082036113f9576113f86112c8565b5b600182039050919050565b7f4e487b7100000000000000000000000000000000000000000000000000000000600052603260045260246000fdfea264697066735822122097ee5378c7ebc3e8fcea31134167bfbabde343e12c34ef9ff67ceebf391c13ae64736f6c63430008140033",
    "linkReferences": {},
    "deployedLinkReferences": {}
}