{
  "_format": "hh-sol-artifact-1",
  "contractName": "VotingSystem",
  "sourceName": "contracts/Votingsystem.sol",
  "abi": [
    {
      "inputs": [],
      "stateMutability": "nonpayable",
      "type": "constructor"
    },
    {
      "anonymous": false,
      "inputs": [
        {
          "indexed": true,
          "internalType": "uint256",
          "name": "candidateId",
          "type": "uint256"
        },
        {
          "indexed": false,
          "internalType": "string",
          "name": "name",
          "type": "string"
        }
      ],
      "name": "CandidateAdded",
      "type": "event"
    },
    {
      "anonymous": false,
      "inputs": [
        {
          "indexed": true,
          "internalType": "address",
          "name": "voter",
          "type": "address"
        },
        {
          "indexed": true,
          "internalType": "uint256",
          "name": "candidateId",
          "type": "uint256"
        }
      ],
      "name": "Voted",
      "type": "event"
    },
    {
      "inputs": [
        {
          "internalType": "string",
          "name": "_name",
          "type": "string"
        }
      ],
      "name": "addCandidate",
      "outputs": [],
      "stateMutability": "nonpayable",
      "type": "function"
    },
    {
      "inputs": [],
      "name": "candidateCount",
      "outputs": [
        {
          "internalType": "uint256",
          "name": "",
          "type": "uint256"
        }
      ],
      "stateMutability": "view",
      "type": "function"
    },
    {
      "inputs": [
        {
          "internalType": "uint256",
          "name": "",
          "type": "uint256"
        }
      ],
      "name": "candidates",
      "outputs": [
        {
          "internalType": "uint256",
          "name": "id",
          "type": "uint256"
        },
        {
          "internalType": "string",
          "name": "name",
          "type": "string"
        },
        {
          "internalType": "uint256",
          "name": "voteCount",
          "type": "uint256"
        }
      ],
      "stateMutability": "view",
      "type": "function"
    },
    {
      "inputs": [],
      "name": "getCandidateCount",
      "outputs": [
        {
          "internalType": "uint256",
          "name": "",
          "type": "uint256"
        }
      ],
      "stateMutability": "view",
      "type": "function"
    },
    {
      "inputs": [
        {
          "internalType": "uint256",
          "name": "_candidateId",
          "type": "uint256"
        }
      ],
      "name": "getCandidateVotes",
      "outputs": [
        {
          "internalType": "uint256",
          "name": "",
          "type": "uint256"
        }
      ],
      "stateMutability": "view",
      "type": "function"
    },
    {
      "inputs": [],
      "name": "getWinner",
      "outputs": [
        {
          "internalType": "uint256",
          "name": "winnerId",
          "type": "uint256"
        },
        {
          "internalType": "string",
          "name": "winnerName",
          "type": "string"
        },
        {
          "internalType": "uint256",
          "name": "voteCount",
          "type": "uint256"
        }
      ],
      "stateMutability": "view",
      "type": "function"
    },
    {
      "inputs": [],
      "name": "owner",
      "outputs": [
        {
          "internalType": "address",
          "name": "",
          "type": "address"
        }
      ],
      "stateMutability": "view",
      "type": "function"
    },
    {
      "inputs": [
        {
          "internalType": "uint256",
          "name": "_candidateId",
          "type": "uint256"
        }
      ],
      "name": "vote",
      "outputs": [],
      "stateMutability": "nonpayable",
      "type": "function"
    },
    {
      "inputs": [
        {
          "internalType": "address",
          "name": "",
          "type": "address"
        }
      ],
      "name": "voters",
      "outputs": [
        {
          "internalType": "bool",
          "name": "",
          "type": "bool"
        }
      ],
      "stateMutability": "view",
      "type": "function"
    }
  ],
  "bytecode": "0x6080604052348015600f57600080fd5b50336000806101000a81548173ffffffffffffffffffffffffffffffffffffffff021916908373ffffffffffffffffffffffffffffffffffffffff16021790555060006001819055506111d3806100676000396000f3fe608060405234801561001057600080fd5b50600436106100935760003560e01c8063866163c011610066578063866163c0146101205780638da5cb5b146101505780638e7ea5b21461016e578063a3ec138d1461018e578063a9a981a3146101be57610093565b80630121b93f1461009857806330a56347146100b45780633477ee2e146100d2578063462e91ec14610104575b600080fd5b6100b260048036038101906100ad9190610822565b6101dc565b005b6100bc610387565b6040516100c9919061085e565b60405180910390f35b6100ec60048036038101906100e79190610822565b610391565b6040516100fb93929190610909565b60405180910390f35b61011e60048036038101906101199190610a7c565b610443565b005b61013a60048036038101906101359190610822565b6105ca565b604051610147919061085e565b60405180910390f35b61015861063a565b6040516101659190610b06565b60405180910390f35b61017661065e565b60405161018593929190610909565b60405180910390f35b6101a860048036038101906101a39190610b4d565b6107b2565b6040516101b59190610b95565b60405180910390f35b6101c66107d2565b6040516101d3919061085e565b60405180910390f35b600360003373ffffffffffffffffffffffffffffffffffffffff1673ffffffffffffffffffffffffffffffffffffffff16815260200190815260200160002060009054906101000a900460ff1615610269576040517f08c379a000000000000000000000000000000000000000000000000000000000815260040161026090610bfc565b60405180910390fd5b60008111801561027b57506001548111155b6102ba576040517f08c379a00000000000000000000000000000000000000000000000000000000081526004016102b190610c68565b60405180910390fd5b60016002600083815260200190815260200160002060020160008282546102e19190610cb7565b925050819055506001600360003373ffffffffffffffffffffffffffffffffffffffff1673ffffffffffffffffffffffffffffffffffffffff16815260200190815260200160002060006101000a81548160ff021916908315150217905550803373ffffffffffffffffffffffffffffffffffffffff167f4d99b957a2bc29a30ebd96a7be8e68fe50a3c701db28a91436490b7d53870ca460405160405180910390a350565b6000600154905090565b60026020528060005260406000206000915090508060000154908060010180546103ba90610d1a565b80601f01602080910402602001604051908101604052809291908181526020018280546103e690610d1a565b80156104335780601f1061040857610100808354040283529160200191610433565b820191906000526020600020905b81548152906001019060200180831161041657829003601f168201915b5050505050908060020154905083565b60008054906101000a900473ffffffffffffffffffffffffffffffffffffffff1673ffffffffffffffffffffffffffffffffffffffff163373ffffffffffffffffffffffffffffffffffffffff16146104d1576040517f08c379a00000000000000000000000000000000000000000000000000000000081526004016104c890610dbd565b60405180910390fd5b6000815111610515576040517f08c379a000000000000000000000000000000000000000000000000000000000815260040161050c90610e29565b60405180910390fd5b6001600081548092919061052890610e49565b919050555060405180606001604052806001548152602001828152602001600081525060026000600154815260200190815260200160002060008201518160000155602082015181600101908161057f919061103d565b50604082015181600201559050506001547fe83b2a43e7e82d975c8a0a6d2f045153c869e111136a34d1889ab7b598e396a3826040516105bf919061110f565b60405180910390a250565b600080821180156105dd57506001548211155b61061c576040517f08c379a000000000000000000000000000000000000000000000000000000000815260040161061390610c68565b60405180910390fd5b60026000838152602001908152602001600020600201549050919050565b60008054906101000a900473ffffffffffffffffffffffffffffffffffffffff1681565b60006060600080600154116106a8576040517f08c379a000000000000000000000000000000000000000000000000000000000815260040161069f9061117d565b60405180910390fd5b600080600190505b60015481116107ab578160026000838152602001908152602001600020600201541115610798578094506002600082815260200190815260200160002060010180546106fb90610d1a565b80601f016020809104026020016040519081016040528092919081815260200182805461072790610d1a565b80156107745780601f1061074957610100808354040283529160200191610774565b820191906000526020600020905b81548152906001019060200180831161075757829003601f168201915b50505050509350600260008281526020019081526020016000206002015492508291505b80806107a390610e49565b9150506106b0565b5050909192565b60036020528060005260406000206000915054906101000a900460ff1681565b60015481565b6000604051905090565b600080fd5b600080fd5b6000819050919050565b6107ff816107ec565b811461080a57600080fd5b50565b60008135905061081c816107f6565b92915050565b600060208284031215610838576108376107e2565b5b60006108468482850161080d565b91505092915050565b610858816107ec565b82525050565b6000602082019050610873600083018461084f565b92915050565b600081519050919050565b600082825260208201905092915050565b60005b838110156108b3578082015181840152602081019050610898565b60008484015250505050565b6000601f19601f8301169050919050565b60006108db82610879565b6108e58185610884565b93506108f5818560208601610895565b6108fe816108bf565b840191505092915050565b600060608201905061091e600083018661084f565b818103602083015261093081856108d0565b905061093f604083018461084f565b949350505050565b600080fd5b600080fd5b7f4e487b7100000000000000000000000000000000000000000000000000000000600052604160045260246000fd5b610989826108bf565b810181811067ffffffffffffffff821117156109a8576109a7610951565b5b80604052505050565b60006109bb6107d8565b90506109c78282610980565b919050565b600067ffffffffffffffff8211156109e7576109e6610951565b5b6109f0826108bf565b9050602081019050919050565b82818337600083830152505050565b6000610a1f610a1a846109cc565b6109b1565b905082815260208101848484011115610a3b57610a3a61094c565b5b610a468482856109fd565b509392505050565b600082601f830112610a6357610a62610947565b5b8135610a73848260208601610a0c565b91505092915050565b600060208284031215610a9257610a916107e2565b5b600082013567ffffffffffffffff811115610ab057610aaf6107e7565b5b610abc84828501610a4e565b91505092915050565b600073ffffffffffffffffffffffffffffffffffffffff82169050919050565b6000610af082610ac5565b9050919050565b610b0081610ae5565b82525050565b6000602082019050610b1b6000830184610af7565b92915050565b610b2a81610ae5565b8114610b3557600080fd5b50565b600081359050610b4781610b21565b92915050565b600060208284031215610b6357610b626107e2565b5b6000610b7184828501610b38565b91505092915050565b60008115159050919050565b610b8f81610b7a565b82525050565b6000602082019050610baa6000830184610b86565b92915050565b7f596f75206861766520616c726561647920766f74656400000000000000000000600082015250565b6000610be6601683610884565b9150610bf182610bb0565b602082019050919050565b60006020820190508181036000830152610c1581610bd9565b9050919050565b7f496e76616c69642063616e646964617465204944000000000000000000000000600082015250565b6000610c52601483610884565b9150610c5d82610c1c565b602082019050919050565b60006020820190508181036000830152610c8181610c45565b9050919050565b7f4e487b7100000000000000000000000000000000000000000000000000000000600052601160045260246000fd5b6000610cc2826107ec565b9150610ccd836107ec565b9250828201905080821115610ce557610ce4610c88565b5b92915050565b7f4e487b7100000000000000000000000000000000000000000000000000000000600052602260045260246000fd5b60006002820490506001821680610d3257607f821691505b602082108103610d4557610d44610ceb565b5b50919050565b7f4f6e6c7920746865206f776e65722063616e2063616c6c20746869732066756e60008201527f6374696f6e000000000000000000000000000000000000000000000000000000602082015250565b6000610da7602583610884565b9150610db282610d4b565b604082019050919050565b60006020820190508181036000830152610dd681610d9a565b9050919050565b7f4e616d652063616e6e6f7420626520656d707479000000000000000000000000600082015250565b6000610e13601483610884565b9150610e1e82610ddd565b602082019050919050565b60006020820190508181036000830152610e4281610e06565b9050919050565b6000610e54826107ec565b91507fffffffffffffffffffffffffffffffffffffffffffffffffffffffffffffffff8203610e8657610e85610c88565b5b600182019050919050565b60008190508160005260206000209050919050565b60006020601f8301049050919050565b600082821b905092915050565b600060088302610ef37fffffffffffffffffffffffffffffffffffffffffffffffffffffffffffffffff82610eb6565b610efd8683610eb6565b95508019841693508086168417925050509392505050565b6000819050919050565b6000610f3a610f35610f30846107ec565b610f15565b6107ec565b9050919050565b6000819050919050565b610f5483610f1f565b610f68610f6082610f41565b848454610ec3565b825550505050565b600090565b610f7d610f70565b610f88818484610f4b565b505050565b5b81811015610fac57610fa1600082610f75565b600181019050610f8e565b5050565b601f821115610ff157610fc281610e91565b610fcb84610ea6565b81016020851015610fda578190505b610fee610fe685610ea6565b830182610f8d565b50505b505050565b600082821c905092915050565b600061101460001984600802610ff6565b1980831691505092915050565b600061102d8383611003565b9150826002028217905092915050565b61104682610879565b67ffffffffffffffff81111561105f5761105e610951565b5b6110698254610d1a565b611074828285610fb0565b600060209050601f8311600181146110a75760008415611095578287015190505b61109f8582611021565b865550611107565b601f1984166110b586610e91565b60005b828110156110dd578489015182556001820191506020850194506020810190506110b8565b868310156110fa57848901516110f6601f891682611003565b8355505b6001600288020188555050505b505050505050565b6000602082019050818103600083015261112981846108d0565b905092915050565b7f4e6f2063616e646964617465732068617665206265656e206164646564000000600082015250565b6000611167601d83610884565b915061117282611131565b602082019050919050565b600060208201905081810360008301526111968161115a565b905091905056fea2646970667358221220e48dc899d6a3a004c03da87fad662c1861c7b3093e42c36c90bb74c3873fc44a64736f6c634300081c0033",
  "linkReferences": {},
  "deployedLinkReferences": {}
}