{
    "_format": "hh-sol-artifact-1",
    "contractName": "SEDLTOKEN",
    "sourceName": "contracts/SEDLTOKEN.sol",
    "abi": [
        {
            "inputs": [],
            "stateMutability": "nonpayable",
            "type": "constructor"
        },
        {
            "inputs": [
                {
                    "internalType": "address",
                    "name": "target",
                    "type": "address"
                }
            ],
            "name": "AddressEmptyCode",
            "type": "error"
        },
        {
            "inputs": [],
            "name": "ECDSAInvalidSignature",
            "type": "error"
        },
        {
            "inputs": [
                {
                    "internalType": "uint256",
                    "name": "length",
                    "type": "uint256"
                }
            ],
            "name": "ECDSAInvalidSignatureLength",
            "type": "error"
        },
        {
            "inputs": [
                {
                    "internalType": "bytes32",
                    "name": "s",
                    "type": "bytes32"
                }
            ],
            "name": "ECDSAInvalidSignatureS",
            "type": "error"
        },
        {
            "inputs": [
                {
                    "internalType": "address",
                    "name": "implementation",
                    "type": "address"
                }
            ],
            "name": "ERC1967InvalidImplementation",
            "type": "error"
        },
        {
            "inputs": [],
            "name": "ERC1967NonPayable",
            "type": "error"
        },
        {
            "inputs": [
                {
                    "internalType": "address",
                    "name": "spender",
                    "type": "address"
                },
                {
                    "internalType": "uint256",
                    "name": "allowance",
                    "type": "uint256"
                },
                {
                    "internalType": "uint256",
                    "name": "needed",
                    "type": "uint256"
                }
            ],
            "name": "ERC20InsufficientAllowance",
            "type": "error"
        },
        {
            "inputs": [
                {
                    "internalType": "address",
                    "name": "sender",
                    "type": "address"
                },
                {
                    "internalType": "uint256",
                    "name": "balance",
                    "type": "uint256"
                },
                {
                    "internalType": "uint256",
                    "name": "needed",
                    "type": "uint256"
                }
            ],
            "name": "ERC20InsufficientBalance",
            "type": "error"
        },
        {
            "inputs": [
                {
                    "internalType": "address",
                    "name": "approver",
                    "type": "address"
                }
            ],
            "name": "ERC20InvalidApprover",
            "type": "error"
        },
        {
            "inputs": [
                {
                    "internalType": "address",
                    "name": "receiver",
                    "type": "address"
                }
            ],
            "name": "ERC20InvalidReceiver",
            "type": "error"
        },
        {
            "inputs": [
                {
                    "internalType": "address",
                    "name": "sender",
                    "type": "address"
                }
            ],
            "name": "ERC20InvalidSender",
            "type": "error"
        },
        {
            "inputs": [
                {
                    "internalType": "address",
                    "name": "spender",
                    "type": "address"
                }
            ],
            "name": "ERC20InvalidSpender",
            "type": "error"
        },
        {
            "inputs": [
                {
                    "internalType": "uint256",
                    "name": "deadline",
                    "type": "uint256"
                }
            ],
            "name": "ERC2612ExpiredSignature",
            "type": "error"
        },
        {
            "inputs": [
                {
                    "internalType": "address",
                    "name": "signer",
                    "type": "address"
                },
                {
                    "internalType": "address",
                    "name": "owner",
                    "type": "address"
                }
            ],
            "name": "ERC2612InvalidSigner",
            "type": "error"
        },
        {
            "inputs": [],
            "name": "EnforcedPause",
            "type": "error"
        },
        {
            "inputs": [],
            "name": "ExpectedPause",
            "type": "error"
        },
        {
            "inputs": [],
            "name": "FailedInnerCall",
            "type": "error"
        },
        {
            "inputs": [
                {
                    "internalType": "address",
                    "name": "account",
                    "type": "address"
                },
                {
                    "internalType": "uint256",
                    "name": "currentNonce",
                    "type": "uint256"
                }
            ],
            "name": "InvalidAccountNonce",
            "type": "error"
        },
        {
            "inputs": [],
            "name": "InvalidInitialization",
            "type": "error"
        },
        {
            "inputs": [],
            "name": "NotInitializing",
            "type": "error"
        },
        {
            "inputs": [
                {
                    "internalType": "address",
                    "name": "owner",
                    "type": "address"
                }
            ],
            "name": "OwnableInvalidOwner",
            "type": "error"
        },
        {
            "inputs": [
                {
                    "internalType": "address",
                    "name": "account",
                    "type": "address"
                }
            ],
            "name": "OwnableUnauthorizedAccount",
            "type": "error"
        },
        {
            "inputs": [],
            "name": "UUPSUnauthorizedCallContext",
            "type": "error"
        },
        {
            "inputs": [
                {
                    "internalType": "bytes32",
                    "name": "slot",
                    "type": "bytes32"
                }
            ],
            "name": "UUPSUnsupportedProxiableUUID",
            "type": "error"
        },
        {
            "anonymous": false,
            "inputs": [
                {
                    "indexed": true,
                    "internalType": "address",
                    "name": "owner",
                    "type": "address"
                },
                {
                    "indexed": true,
                    "internalType": "address",
                    "name": "spender",
                    "type": "address"
                },
                {
                    "indexed": false,
                    "internalType": "uint256",
                    "name": "value",
                    "type": "uint256"
                }
            ],
            "name": "Approval",
            "type": "event"
        },
        {
            "anonymous": false,
            "inputs": [],
            "name": "EIP712DomainChanged",
            "type": "event"
        },
        {
            "anonymous": false,
            "inputs": [
                {
                    "indexed": false,
                    "internalType": "uint64",
                    "name": "version",
                    "type": "uint64"
                }
            ],
            "name": "Initialized",
            "type": "event"
        },
        {
            "anonymous": false,
            "inputs": [
                {
                    "indexed": true,
                    "internalType": "address",
                    "name": "previousOwner",
                    "type": "address"
                },
                {
                    "indexed": true,
                    "internalType": "address",
                    "name": "newOwner",
                    "type": "address"
                }
            ],
            "name": "OwnershipTransferred",
            "type": "event"
        },
        {
            "anonymous": false,
            "inputs": [
                {
                    "indexed": false,
                    "internalType": "address",
                    "name": "account",
                    "type": "address"
                }
            ],
            "name": "Paused",
            "type": "event"
        },
        {
            "anonymous": false,
            "inputs": [
                {
                    "indexed": true,
                    "internalType": "address",
                    "name": "from",
                    "type": "address"
                },
                {
                    "indexed": true,
                    "internalType": "address",
                    "name": "to",
                    "type": "address"
                },
                {
                    "indexed": false,
                    "internalType": "uint256",
                    "name": "value",
                    "type": "uint256"
                }
            ],
            "name": "Transfer",
            "type": "event"
        },
        {
            "anonymous": false,
            "inputs": [
                {
                    "indexed": false,
                    "internalType": "address",
                    "name": "account",
                    "type": "address"
                }
            ],
            "name": "Unpaused",
            "type": "event"
        },
        {
            "anonymous": false,
            "inputs": [
                {
                    "indexed": true,
                    "internalType": "address",
                    "name": "implementation",
                    "type": "address"
                }
            ],
            "name": "Upgraded",
            "type": "event"
        },
        {
            "inputs": [],
            "name": "DOMAIN_SEPARATOR",
            "outputs": [
                {
                    "internalType": "bytes32",
                    "name": "",
                    "type": "bytes32"
                }
            ],
            "stateMutability": "view",
            "type": "function"
        },
        {
            "inputs": [],
            "name": "UPGRADE_INTERFACE_VERSION",
            "outputs": [
                {
                    "internalType": "string",
                    "name": "",
                    "type": "string"
                }
            ],
            "stateMutability": "view",
            "type": "function"
        },
        {
            "inputs": [
                {
                    "internalType": "address",
                    "name": "owner",
                    "type": "address"
                },
                {
                    "internalType": "address",
                    "name": "spender",
                    "type": "address"
                }
            ],
            "name": "allowance",
            "outputs": [
                {
                    "internalType": "uint256",
                    "name": "",
                    "type": "uint256"
                }
            ],
            "stateMutability": "view",
            "type": "function"
        },
        {
            "inputs": [
                {
                    "internalType": "address",
                    "name": "spender",
                    "type": "address"
                },
                {
                    "internalType": "uint256",
                    "name": "value",
                    "type": "uint256"
                }
            ],
            "name": "approve",
            "outputs": [
                {
                    "internalType": "bool",
                    "name": "",
                    "type": "bool"
                }
            ],
            "stateMutability": "nonpayable",
            "type": "function"
        },
        {
            "inputs": [
                {
                    "internalType": "address",
                    "name": "account",
                    "type": "address"
                }
            ],
            "name": "balanceOf",
            "outputs": [
                {
                    "internalType": "uint256",
                    "name": "",
                    "type": "uint256"
                }
            ],
            "stateMutability": "view",
            "type": "function"
        },
        {
            "inputs": [
                {
                    "internalType": "uint256",
                    "name": "value",
                    "type": "uint256"
                }
            ],
            "name": "burn",
            "outputs": [],
            "stateMutability": "nonpayable",
            "type": "function"
        },
        {
            "inputs": [
                {
                    "internalType": "address",
                    "name": "account",
                    "type": "address"
                },
                {
                    "internalType": "uint256",
                    "name": "value",
                    "type": "uint256"
                }
            ],
            "name": "burnFrom",
            "outputs": [],
            "stateMutability": "nonpayable",
            "type": "function"
        },
        {
            "inputs": [],
            "name": "decimals",
            "outputs": [
                {
                    "internalType": "uint8",
                    "name": "",
                    "type": "uint8"
                }
            ],
            "stateMutability": "view",
            "type": "function"
        },
        {
            "inputs": [],
            "name": "eip712Domain",
            "outputs": [
                {
                    "internalType": "bytes1",
                    "name": "fields",
                    "type": "bytes1"
                },
                {
                    "internalType": "string",
                    "name": "name",
                    "type": "string"
                },
                {
                    "internalType": "string",
                    "name": "version",
                    "type": "string"
                },
                {
                    "internalType": "uint256",
                    "name": "chainId",
                    "type": "uint256"
                },
                {
                    "internalType": "address",
                    "name": "verifyingContract",
                    "type": "address"
                },
                {
                    "internalType": "bytes32",
                    "name": "salt",
                    "type": "bytes32"
                },
                {
                    "internalType": "uint256[]",
                    "name": "extensions",
                    "type": "uint256[]"
                }
            ],
            "stateMutability": "view",
            "type": "function"
        },
        {
            "inputs": [
                {
                    "internalType": "address",
                    "name": "initialOwner",
                    "type": "address"
                }
            ],
            "name": "initialize",
            "outputs": [],
            "stateMutability": "nonpayable",
            "type": "function"
        },
        {
            "inputs": [
                {
                    "internalType": "address",
                    "name": "to",
                    "type": "address"
                },
                {
                    "internalType": "uint256",
                    "name": "amount",
                    "type": "uint256"
                }
            ],
            "name": "mint",
            "outputs": [],
            "stateMutability": "nonpayable",
            "type": "function"
        },
        {
            "inputs": [],
            "name": "name",
            "outputs": [
                {
                    "internalType": "string",
                    "name": "",
                    "type": "string"
                }
            ],
            "stateMutability": "view",
            "type": "function"
        },
        {
            "inputs": [
                {
                    "internalType": "address",
                    "name": "owner",
                    "type": "address"
                }
            ],
            "name": "nonces",
            "outputs": [
                {
                    "internalType": "uint256",
                    "name": "",
                    "type": "uint256"
                }
            ],
            "stateMutability": "view",
            "type": "function"
        },
        {
            "inputs": [],
            "name": "owner",
            "outputs": [
                {
                    "internalType": "address",
                    "name": "",
                    "type": "address"
                }
            ],
            "stateMutability": "view",
            "type": "function"
        },
        {
            "inputs": [],
            "name": "pause",
            "outputs": [],
            "stateMutability": "nonpayable",
            "type": "function"
        },
        {
            "inputs": [],
            "name": "paused",
            "outputs": [
                {
                    "internalType": "bool",
                    "name": "",
                    "type": "bool"
                }
            ],
            "stateMutability": "view",
            "type": "function"
        },
        {
            "inputs": [
                {
                    "internalType": "address",
                    "name": "owner",
                    "type": "address"
                },
                {
                    "internalType": "address",
                    "name": "spender",
                    "type": "address"
                },
                {
                    "internalType": "uint256",
                    "name": "value",
                    "type": "uint256"
                },
                {
                    "internalType": "uint256",
                    "name": "deadline",
                    "type": "uint256"
                },
                {
                    "internalType": "uint8",
                    "name": "v",
                    "type": "uint8"
                },
                {
                    "internalType": "bytes32",
                    "name": "r",
                    "type": "bytes32"
                },
                {
                    "internalType": "bytes32",
                    "name": "s",
                    "type": "bytes32"
                }
            ],
            "name": "permit",
            "outputs": [],
            "stateMutability": "nonpayable",
            "type": "function"
        },
        {
            "inputs": [],
            "name": "proxiableUUID",
            "outputs": [
                {
                    "internalType": "bytes32",
                    "name": "",
                    "type": "bytes32"
                }
            ],
            "stateMutability": "view",
            "type": "function"
        },
        {
            "inputs": [],
            "name": "renounceOwnership",
            "outputs": [],
            "stateMutability": "nonpayable",
            "type": "function"
        },
        {
            "inputs": [],
            "name": "symbol",
            "outputs": [
                {
                    "internalType": "string",
                    "name": "",
                    "type": "string"
                }
            ],
            "stateMutability": "view",
            "type": "function"
        },
        {
            "inputs": [],
            "name": "totalSupply",
            "outputs": [
                {
                    "internalType": "uint256",
                    "name": "",
                    "type": "uint256"
                }
            ],
            "stateMutability": "view",
            "type": "function"
        },
        {
            "inputs": [
                {
                    "internalType": "address",
                    "name": "to",
                    "type": "address"
                },
                {
                    "internalType": "uint256",
                    "name": "value",
                    "type": "uint256"
                }
            ],
            "name": "transfer",
            "outputs": [
                {
                    "internalType": "bool",
                    "name": "",
                    "type": "bool"
                }
            ],
            "stateMutability": "nonpayable",
            "type": "function"
        },
        {
            "inputs": [
                {
                    "internalType": "address",
                    "name": "from",
                    "type": "address"
                },
                {
                    "internalType": "address",
                    "name": "to",
                    "type": "address"
                },
                {
                    "internalType": "uint256",
                    "name": "value",
                    "type": "uint256"
                }
            ],
            "name": "transferFrom",
            "outputs": [
                {
                    "internalType": "bool",
                    "name": "",
                    "type": "bool"
                }
            ],
            "stateMutability": "nonpayable",
            "type": "function"
        },
        {
            "inputs": [
                {
                    "internalType": "address",
                    "name": "newOwner",
                    "type": "address"
                }
            ],
            "name": "transferOwnership",
            "outputs": [],
            "stateMutability": "nonpayable",
            "type": "function"
        },
        {
            "inputs": [],
            "name": "unpause",
            "outputs": [],
            "stateMutability": "nonpayable",
            "type": "function"
        },
        {
            "inputs": [
                {
                    "internalType": "address",
                    "name": "newImplementation",
                    "type": "address"
                },
                {
                    "internalType": "bytes",
                    "name": "data",
                    "type": "bytes"
                }
            ],
            "name": "upgradeToAndCall",
            "outputs": [],
            "stateMutability": "payable",
            "type": "function"
        }
    ],
    "bytecode": "0x60a06040523073ffffffffffffffffffffffffffffffffffffffff1660809073ffffffffffffffffffffffffffffffffffffffff168152503480156200004457600080fd5b50620000556200005b60201b60201c565b620001cf565b60006200006d6200016560201b60201c565b90508060000160089054906101000a900460ff1615620000b9576040517ff92ee8a900000000000000000000000000000000000000000000000000000000815260040160405180910390fd5b67ffffffffffffffff80168160000160009054906101000a900467ffffffffffffffff1667ffffffffffffffff1614620001625767ffffffffffffffff8160000160006101000a81548167ffffffffffffffff021916908367ffffffffffffffff1602179055507fc7f505b2f371ae2175ee4913f4499e1f2633a7b5936321eed1cdaeb6115181d267ffffffffffffffff604051620001599190620001b2565b60405180910390a15b50565b60007ff0c57e16840df040f15088dc2f81fe391c3923bec73e23a9662efc9c229c6a00905090565b600067ffffffffffffffff82169050919050565b620001ac816200018d565b82525050565b6000602082019050620001c96000830184620001a1565b92915050565b60805161369c620001f960003960008181611376015281816113cb0152611586015261369c6000f3fe6080604052600436106101815760003560e01c8063715018a6116100d157806395d89b411161008a578063c4d66de811610064578063c4d66de814610547578063d505accf14610570578063dd62ed3e14610599578063f2fde38b146105d657610181565b806395d89b41146104b4578063a9059cbb146104df578063ad3cb1cc1461051c57610181565b8063715018a6146103c457806379cc6790146103db5780637ecebe00146104045780638456cb591461044157806384b0196e146104585780638da5cb5b1461048957610181565b80633f4ba83a1161013e5780634f1ef286116101185780634f1ef2861461031557806352d1902d146103315780635c975abb1461035c57806370a082311461038757610181565b80633f4ba83a146102ac57806340c10f19146102c357806342966c68146102ec57610181565b806306fdde0314610186578063095ea7b3146101b157806318160ddd146101ee57806323b872dd14610219578063313ce567146102565780633644e51514610281575b600080fd5b34801561019257600080fd5b5061019b6105ff565b6040516101a89190612933565b60405180910390f35b3480156101bd57600080fd5b506101d860048036038101906101d391906129fd565b6106a0565b6040516101e59190612a58565b60405180910390f35b3480156101fa57600080fd5b506102036106c3565b6040516102109190612a82565b60405180910390f35b34801561022557600080fd5b50610240600480360381019061023b9190612a9d565b6106db565b60405161024d9190612a58565b60405180910390f35b34801561026257600080fd5b5061026b61070a565b6040516102789190612b0c565b60405180910390f35b34801561028d57600080fd5b50610296610713565b6040516102a39190612b40565b60405180910390f35b3480156102b857600080fd5b506102c1610722565b005b3480156102cf57600080fd5b506102ea60048036038101906102e591906129fd565b610734565b005b3480156102f857600080fd5b50610313600480360381019061030e9190612b5b565b61074a565b005b61032f600480360381019061032a9190612cbd565b61075e565b005b34801561033d57600080fd5b5061034661077d565b6040516103539190612b40565b60405180910390f35b34801561036857600080fd5b506103716107b0565b60405161037e9190612a58565b60405180910390f35b34801561039357600080fd5b506103ae60048036038101906103a99190612d19565b6107d5565b6040516103bb9190612a82565b60405180910390f35b3480156103d057600080fd5b506103d961082c565b005b3480156103e757600080fd5b5061040260048036038101906103fd91906129fd565b610840565b005b34801561041057600080fd5b5061042b60048036038101906104269190612d19565b610860565b6040516104389190612a82565b60405180910390f35b34801561044d57600080fd5b50610456610872565b005b34801561046457600080fd5b5061046d610884565b6040516104809796959493929190612e4e565b60405180910390f35b34801561049557600080fd5b5061049e610996565b6040516104ab9190612ed2565b60405180910390f35b3480156104c057600080fd5b506104c96109ce565b6040516104d69190612933565b60405180910390f35b3480156104eb57600080fd5b50610506600480360381019061050191906129fd565b610a6f565b6040516105139190612a58565b60405180910390f35b34801561052857600080fd5b50610531610a92565b60405161053e9190612933565b60405180910390f35b34801561055357600080fd5b5061056e60048036038101906105699190612d19565b610acb565b005b34801561057c57600080fd5b5061059760048036038101906105929190612f45565b610d3b565b005b3480156105a557600080fd5b506105c060048036038101906105bb9190612fe7565b610e83565b6040516105cd9190612a82565b60405180910390f35b3480156105e257600080fd5b506105fd60048036038101906105f89190612d19565b610f18565b005b6060600061060b610f9e565b905080600301805461061c90613056565b80601f016020809104026020016040519081016040528092919081815260200182805461064890613056565b80156106955780601f1061066a57610100808354040283529160200191610695565b820191906000526020600020905b81548152906001019060200180831161067857829003601f168201915b505050505091505090565b6000806106ab610fc6565b90506106b8818585610fce565b600191505092915050565b6000806106ce610f9e565b9050806002015491505090565b6000806106e6610fc6565b90506106f3858285610fe0565b6106fe858585611074565b60019150509392505050565b60006012905090565b600061071d611168565b905090565b61072a611177565b6107326111fe565b565b61073c611177565b6107468282611270565b5050565b61075b610755610fc6565b826112f2565b50565b610766611374565b61076f8261145a565b6107798282611465565b5050565b6000610787611584565b7f360894a13ba1a3210667c828492db98dca3e2076cc3735a920a3ca505d382bbc60001b905090565b6000806107bb61160b565b90508060000160009054906101000a900460ff1691505090565b6000806107e0610f9e565b90508060000160008473ffffffffffffffffffffffffffffffffffffffff1673ffffffffffffffffffffffffffffffffffffffff16815260200190815260200160002054915050919050565b610834611177565b61083e6000611633565b565b6108528261084c610fc6565b83610fe0565b61085c82826112f2565b5050565b600061086b8261170a565b9050919050565b61087a611177565b610882611761565b565b600060608060008060006060600061089a6117d3565b90506000801b81600001541480156108b857506000801b8160010154145b6108f7576040517f08c379a00000000000000000000000000000000000000000000000000000000081526004016108ee906130d3565b60405180910390fd5b6108ff6117fb565b61090761189c565b46306000801b600067ffffffffffffffff81111561092857610927612b92565b5b6040519080825280602002602001820160405280156109565781602001602082028036833780820191505090505b507f0f0000000000000000000000000000000000000000000000000000000000000095949392919097509750975097509750975097505090919293949596565b6000806109a161193d565b90508060000160009054906101000a900473ffffffffffffffffffffffffffffffffffffffff1691505090565b606060006109da610f9e565b90508060040180546109eb90613056565b80601f0160208091040260200160405190810160405280929190818152602001828054610a1790613056565b8015610a645780601f10610a3957610100808354040283529160200191610a64565b820191906000526020600020905b815481529060010190602001808311610a4757829003601f168201915b505050505091505090565b600080610a7a610fc6565b9050610a87818585611074565b600191505092915050565b6040518060400160405280600581526020017f352e302e3000000000000000000000000000000000000000000000000000000081525081565b6000610ad5611965565b905060008160000160089054906101000a900460ff1615905060008260000160009054906101000a900467ffffffffffffffff1690506000808267ffffffffffffffff16148015610b235750825b9050600060018367ffffffffffffffff16148015610b58575060003073ffffffffffffffffffffffffffffffffffffffff163b145b905081158015610b66575080155b15610b9d576040517ff92ee8a900000000000000000000000000000000000000000000000000000000815260040160405180910390fd5b60018560000160006101000a81548167ffffffffffffffff021916908367ffffffffffffffff1602179055508315610bed5760018560000160086101000a81548160ff0219169083151502179055505b610c616040518060400160405280600a81526020017f5345444c20544f4b454e000000000000000000000000000000000000000000008152506040518060400160405280600481526020017f5345444c0000000000000000000000000000000000000000000000000000000081525061198d565b610c696119a3565b610c716119ad565b610c7a866119bf565b610cb86040518060400160405280600a81526020017f5345444c20544f4b454e000000000000000000000000000000000000000000008152506119d3565b610cc0611a1d565b610cd7336c0c9f2c9cd04674edea40000000611270565b8315610d335760008560000160086101000a81548160ff0219169083151502179055507fc7f505b2f371ae2175ee4913f4499e1f2633a7b5936321eed1cdaeb6115181d26001604051610d2a919061314c565b60405180910390a15b505050505050565b83421115610d8057836040517f62791302000000000000000000000000000000000000000000000000000000008152600401610d779190612a82565b60405180910390fd5b60007f6e71edae12b1b97f4d1f60370fef10105fa2faae0126114a169c64845d6126c9888888610daf8c611a27565b89604051602001610dc596959493929190613167565b6040516020818303038152906040528051906020012090506000610de882611a8c565b90506000610df882878787611aa6565b90508973ffffffffffffffffffffffffffffffffffffffff168173ffffffffffffffffffffffffffffffffffffffff1614610e6c57808a6040517f4b800e46000000000000000000000000000000000000000000000000000000008152600401610e639291906131c8565b60405180910390fd5b610e778a8a8a610fce565b50505050505050505050565b600080610e8e610f9e565b90508060010160008573ffffffffffffffffffffffffffffffffffffffff1673ffffffffffffffffffffffffffffffffffffffff16815260200190815260200160002060008473ffffffffffffffffffffffffffffffffffffffff1673ffffffffffffffffffffffffffffffffffffffff1681526020019081526020016000205491505092915050565b610f20611177565b600073ffffffffffffffffffffffffffffffffffffffff168173ffffffffffffffffffffffffffffffffffffffff1603610f925760006040517f1e4fbdf7000000000000000000000000000000000000000000000000000000008152600401610f899190612ed2565b60405180910390fd5b610f9b81611633565b50565b60007f52c63247e1f47db19d5ce0460030c497f067ca4cebf71ba98eeadabe20bace00905090565b600033905090565b610fdb8383836001611ad6565b505050565b6000610fec8484610e83565b90507fffffffffffffffffffffffffffffffffffffffffffffffffffffffffffffffff811461106e578181101561105e578281836040517ffb8f41b2000000000000000000000000000000000000000000000000000000008152600401611055939291906131f1565b60405180910390fd5b61106d84848484036000611ad6565b5b50505050565b600073ffffffffffffffffffffffffffffffffffffffff168373ffffffffffffffffffffffffffffffffffffffff16036110e65760006040517f96c6fd1e0000000000000000000000000000000000000000000000000000000081526004016110dd9190612ed2565b60405180910390fd5b600073ffffffffffffffffffffffffffffffffffffffff168273ffffffffffffffffffffffffffffffffffffffff16036111585760006040517fec442f0500000000000000000000000000000000000000000000000000000000815260040161114f9190612ed2565b60405180910390fd5b611163838383611cbc565b505050565b6000611172611ccc565b905090565b61117f610fc6565b73ffffffffffffffffffffffffffffffffffffffff1661119d610996565b73ffffffffffffffffffffffffffffffffffffffff16146111fc576111c0610fc6565b6040517f118cdaa70000000000000000000000000000000000000000000000000000000081526004016111f39190612ed2565b60405180910390fd5b565b611206611d30565b600061121061160b565b905060008160000160006101000a81548160ff0219169083151502179055507f5db9ee0a495bf2e6ff9c91a7834c1ba4fdd244a5e8aa4e537bd38aeae4b073aa611258610fc6565b6040516112659190612ed2565b60405180910390a150565b600073ffffffffffffffffffffffffffffffffffffffff168273ffffffffffffffffffffffffffffffffffffffff16036112e25760006040517fec442f050000000000000000000000000000000000000000000000000000000081526004016112d99190612ed2565b60405180910390fd5b6112ee60008383611cbc565b5050565b600073ffffffffffffffffffffffffffffffffffffffff168273ffffffffffffffffffffffffffffffffffffffff16036113645760006040517f96c6fd1e00000000000000000000000000000000000000000000000000000000815260040161135b9190612ed2565b60405180910390fd5b61137082600083611cbc565b5050565b7f000000000000000000000000000000000000000000000000000000000000000073ffffffffffffffffffffffffffffffffffffffff163073ffffffffffffffffffffffffffffffffffffffff16148061142157507f000000000000000000000000000000000000000000000000000000000000000073ffffffffffffffffffffffffffffffffffffffff16611408611d70565b73ffffffffffffffffffffffffffffffffffffffff1614155b15611458576040517fe07c8dba00000000000000000000000000000000000000000000000000000000815260040160405180910390fd5b565b611462611177565b50565b8173ffffffffffffffffffffffffffffffffffffffff166352d1902d6040518163ffffffff1660e01b8152600401602060405180830381865afa9250505080156114cd57506040513d601f19601f820116820180604052508101906114ca919061323d565b60015b61150e57816040517f4c9c8ce30000000000000000000000000000000000000000000000000000000081526004016115059190612ed2565b60405180910390fd5b7f360894a13ba1a3210667c828492db98dca3e2076cc3735a920a3ca505d382bbc60001b811461157557806040517faa1d49a400000000000000000000000000000000000000000000000000000000815260040161156c9190612b40565b60405180910390fd5b61157f8383611dc7565b505050565b7f000000000000000000000000000000000000000000000000000000000000000073ffffffffffffffffffffffffffffffffffffffff163073ffffffffffffffffffffffffffffffffffffffff1614611609576040517fe07c8dba00000000000000000000000000000000000000000000000000000000815260040160405180910390fd5b565b60007fcd5ed15c6e187e77e9aee88184c21f4f2182ab5827cb3b7e07fbedcd63f03300905090565b600061163d61193d565b905060008160000160009054906101000a900473ffffffffffffffffffffffffffffffffffffffff169050828260000160006101000a81548173ffffffffffffffffffffffffffffffffffffffff021916908373ffffffffffffffffffffffffffffffffffffffff1602179055508273ffffffffffffffffffffffffffffffffffffffff168173ffffffffffffffffffffffffffffffffffffffff167f8be0079c531659141344cd1fd0a4f28419497f9722a3daafe3b4186f6b6457e060405160405180910390a3505050565b600080611715611e3a565b90508060000160008473ffffffffffffffffffffffffffffffffffffffff1673ffffffffffffffffffffffffffffffffffffffff16815260200190815260200160002054915050919050565b611769611e62565b600061177361160b565b905060018160000160006101000a81548160ff0219169083151502179055507f62e78cea01bee320cd4e420270b5ea74000d11b0c9f74754ebdbfc544b05a2586117bb610fc6565b6040516117c89190612ed2565b60405180910390a150565b60007fa16a46d94261c7517cc8ff89f61c0ce93598e3c849801011dee649a6a557d100905090565b606060006118076117d3565b905080600201805461181890613056565b80601f016020809104026020016040519081016040528092919081815260200182805461184490613056565b80156118915780601f1061186657610100808354040283529160200191611891565b820191906000526020600020905b81548152906001019060200180831161187457829003601f168201915b505050505091505090565b606060006118a86117d3565b90508060030180546118b990613056565b80601f01602080910402602001604051908101604052809291908181526020018280546118e590613056565b80156119325780601f1061190757610100808354040283529160200191611932565b820191906000526020600020905b81548152906001019060200180831161191557829003601f168201915b505050505091505090565b60007f9016d09d72d40fdae2fd8ceac6b6234c7706214fd39c1cd1e609a0528c199300905090565b60007ff0c57e16840df040f15088dc2f81fe391c3923bec73e23a9662efc9c229c6a00905090565b611995611ea3565b61199f8282611ee3565b5050565b6119ab611ea3565b565b6119b5611ea3565b6119bd611f20565b565b6119c7611ea3565b6119d081611f54565b50565b6119db611ea3565b611a1a816040518060400160405280600181526020017f3100000000000000000000000000000000000000000000000000000000000000815250611fda565b50565b611a25611ea3565b565b600080611a32611e3a565b90508060000160008473ffffffffffffffffffffffffffffffffffffffff1673ffffffffffffffffffffffffffffffffffffffff168152602001908152602001600020600081548092919060010191905055915050919050565b6000611a9f611a99611168565b8361202f565b9050919050565b600080600080611ab888888888612070565b925092509250611ac88282612164565b829350505050949350505050565b6000611ae0610f9e565b9050600073ffffffffffffffffffffffffffffffffffffffff168573ffffffffffffffffffffffffffffffffffffffff1603611b545760006040517fe602df05000000000000000000000000000000000000000000000000000000008152600401611b4b9190612ed2565b60405180910390fd5b600073ffffffffffffffffffffffffffffffffffffffff168473ffffffffffffffffffffffffffffffffffffffff1603611bc65760006040517f94280d62000000000000000000000000000000000000000000000000000000008152600401611bbd9190612ed2565b60405180910390fd5b828160010160008773ffffffffffffffffffffffffffffffffffffffff1673ffffffffffffffffffffffffffffffffffffffff16815260200190815260200160002060008673ffffffffffffffffffffffffffffffffffffffff1673ffffffffffffffffffffffffffffffffffffffff168152602001908152602001600020819055508115611cb5578373ffffffffffffffffffffffffffffffffffffffff168573ffffffffffffffffffffffffffffffffffffffff167f8c5be1e5ebec7d5bd14f71427d1e84f3dd0314c0f7b2291e5b200ac8c7c3b92585604051611cac9190612a82565b60405180910390a35b5050505050565b611cc78383836122c8565b505050565b60007f8b73c3c69bb8fe3d512ecc4cf759cc79239f7b179b0ffacaa9a75d522b39400f611cf76122e0565b611cff61235c565b4630604051602001611d1595949392919061326a565b60405160208183030381529060405280519060200120905090565b611d386107b0565b611d6e576040517f8dfc202b00000000000000000000000000000000000000000000000000000000815260040160405180910390fd5b565b6000611d9e7f360894a13ba1a3210667c828492db98dca3e2076cc3735a920a3ca505d382bbc60001b6123d8565b60000160009054906101000a900473ffffffffffffffffffffffffffffffffffffffff16905090565b611dd0826123e2565b8173ffffffffffffffffffffffffffffffffffffffff167fbc7cd75a20ee27fd9adebab32041f755214dbc6bffa90cc0225b39da2e5c2d3b60405160405180910390a2600081511115611e2d57611e2782826124af565b50611e36565b611e35612533565b5b5050565b60007f5ab42ced628888259c08ac98db1eb0cf702fc1501344311d8b100cd1bfe4bb00905090565b611e6a6107b0565b15611ea1576040517fd93c066500000000000000000000000000000000000000000000000000000000815260040160405180910390fd5b565b611eab612570565b611ee1576040517fd7e6bcf800000000000000000000000000000000000000000000000000000000815260040160405180910390fd5b565b611eeb611ea3565b6000611ef5610f9e565b905082816003019081611f08919061345f565b5081816004019081611f1a919061345f565b50505050565b611f28611ea3565b6000611f3261160b565b905060008160000160006101000a81548160ff02191690831515021790555050565b611f5c611ea3565b600073ffffffffffffffffffffffffffffffffffffffff168173ffffffffffffffffffffffffffffffffffffffff1603611fce5760006040517f1e4fbdf7000000000000000000000000000000000000000000000000000000008152600401611fc59190612ed2565b60405180910390fd5b611fd781611633565b50565b611fe2611ea3565b6000611fec6117d3565b905082816002019081611fff919061345f565b5081816003019081612011919061345f565b506000801b81600001819055506000801b8160010181905550505050565b60006040517f190100000000000000000000000000000000000000000000000000000000000081528360028201528260228201526042812091505092915050565b60008060007f7fffffffffffffffffffffffffffffff5d576e7357a4501ddfe92f46681b20a08460001c11156120b057600060038592509250925061215a565b6000600188888888604051600081526020016040526040516120d59493929190613531565b6020604051602081039080840390855afa1580156120f7573d6000803e3d6000fd5b505050602060405103519050600073ffffffffffffffffffffffffffffffffffffffff168173ffffffffffffffffffffffffffffffffffffffff160361214b57600060016000801b9350935093505061215a565b8060008060001b935093509350505b9450945094915050565b6000600381111561217857612177613576565b5b82600381111561218b5761218a613576565b5b03156122c457600160038111156121a5576121a4613576565b5b8260038111156121b8576121b7613576565b5b036121ef576040517ff645eedf00000000000000000000000000000000000000000000000000000000815260040160405180910390fd5b6002600381111561220357612202613576565b5b82600381111561221657612215613576565b5b0361225b578060001c6040517ffce698f70000000000000000000000000000000000000000000000000000000081526004016122529190612a82565b60405180910390fd5b60038081111561226e5761226d613576565b5b82600381111561228157612280613576565b5b036122c357806040517fd78bce0c0000000000000000000000000000000000000000000000000000000081526004016122ba9190612b40565b60405180910390fd5b5b5050565b6122d0611e62565b6122db838383612590565b505050565b6000806122eb6117d3565b905060006122f76117fb565b905060008151111561231457808051906020012092505050612359565b6000826000015490506000801b811461233257809350505050612359565b7fc5d2460186f7233c927e7db2dcc703c0e500b653ca82273b7bfad8045d85a47093505050505b90565b6000806123676117d3565b9050600061237361189c565b9050600081511115612390578080519060200120925050506123d5565b6000826001015490506000801b81146123ae578093505050506123d5565b7fc5d2460186f7233c927e7db2dcc703c0e500b653ca82273b7bfad8045d85a47093505050505b90565b6000819050919050565b60008173ffffffffffffffffffffffffffffffffffffffff163b0361243e57806040517f4c9c8ce30000000000000000000000000000000000000000000000000000000081526004016124359190612ed2565b60405180910390fd5b8061246b7f360894a13ba1a3210667c828492db98dca3e2076cc3735a920a3ca505d382bbc60001b6123d8565b60000160006101000a81548173ffffffffffffffffffffffffffffffffffffffff021916908373ffffffffffffffffffffffffffffffffffffffff16021790555050565b60606000808473ffffffffffffffffffffffffffffffffffffffff16846040516124d991906135ec565b600060405180830381855af49150503d8060008114612514576040519150601f19603f3d011682016040523d82523d6000602084013e612519565b606091505b50915091506125298583836127cf565b9250505092915050565b600034111561256e576040517fb398979f00000000000000000000000000000000000000000000000000000000815260040160405180910390fd5b565b600061257a611965565b60000160089054906101000a900460ff16905090565b600061259a610f9e565b9050600073ffffffffffffffffffffffffffffffffffffffff168473ffffffffffffffffffffffffffffffffffffffff16036125f057818160020160008282546125e49190613632565b925050819055506126c9565b60008160000160008673ffffffffffffffffffffffffffffffffffffffff1673ffffffffffffffffffffffffffffffffffffffff1681526020019081526020016000205490508281101561267f578481846040517fe450d38c000000000000000000000000000000000000000000000000000000008152600401612676939291906131f1565b60405180910390fd5b8281038260000160008773ffffffffffffffffffffffffffffffffffffffff1673ffffffffffffffffffffffffffffffffffffffff16815260200190815260200160002081905550505b600073ffffffffffffffffffffffffffffffffffffffff168373ffffffffffffffffffffffffffffffffffffffff160361271457818160020160008282540392505081905550612764565b818160000160008573ffffffffffffffffffffffffffffffffffffffff1673ffffffffffffffffffffffffffffffffffffffff168152602001908152602001600020600082825401925050819055505b8273ffffffffffffffffffffffffffffffffffffffff168473ffffffffffffffffffffffffffffffffffffffff167fddf252ad1be2c89b69c2b068fc378daa952ba7f163c4a11628f55a4df523b3ef846040516127c19190612a82565b60405180910390a350505050565b6060826127e4576127df8261285e565b612856565b6000825114801561280c575060008473ffffffffffffffffffffffffffffffffffffffff163b145b1561284e57836040517f9996b3150000000000000000000000000000000000000000000000000000000081526004016128459190612ed2565b60405180910390fd5b819050612857565b5b9392505050565b6000815111156128715780518082602001fd5b6040517f1425ea4200000000000000000000000000000000000000000000000000000000815260040160405180910390fd5b600081519050919050565b600082825260208201905092915050565b60005b838110156128dd5780820151818401526020810190506128c2565b60008484015250505050565b6000601f19601f8301169050919050565b6000612905826128a3565b61290f81856128ae565b935061291f8185602086016128bf565b612928816128e9565b840191505092915050565b6000602082019050818103600083015261294d81846128fa565b905092915050565b6000604051905090565b600080fd5b600080fd5b600073ffffffffffffffffffffffffffffffffffffffff82169050919050565b600061299482612969565b9050919050565b6129a481612989565b81146129af57600080fd5b50565b6000813590506129c18161299b565b92915050565b6000819050919050565b6129da816129c7565b81146129e557600080fd5b50565b6000813590506129f7816129d1565b92915050565b60008060408385031215612a1457612a1361295f565b5b6000612a22858286016129b2565b9250506020612a33858286016129e8565b9150509250929050565b60008115159050919050565b612a5281612a3d565b82525050565b6000602082019050612a6d6000830184612a49565b92915050565b612a7c816129c7565b82525050565b6000602082019050612a976000830184612a73565b92915050565b600080600060608486031215612ab657612ab561295f565b5b6000612ac4868287016129b2565b9350506020612ad5868287016129b2565b9250506040612ae6868287016129e8565b9150509250925092565b600060ff82169050919050565b612b0681612af0565b82525050565b6000602082019050612b216000830184612afd565b92915050565b6000819050919050565b612b3a81612b27565b82525050565b6000602082019050612b556000830184612b31565b92915050565b600060208284031215612b7157612b7061295f565b5b6000612b7f848285016129e8565b91505092915050565b600080fd5b600080fd5b7f4e487b7100000000000000000000000000000000000000000000000000000000600052604160045260246000fd5b612bca826128e9565b810181811067ffffffffffffffff82111715612be957612be8612b92565b5b80604052505050565b6000612bfc612955565b9050612c088282612bc1565b919050565b600067ffffffffffffffff821115612c2857612c27612b92565b5b612c31826128e9565b9050602081019050919050565b82818337600083830152505050565b6000612c60612c5b84612c0d565b612bf2565b905082815260208101848484011115612c7c57612c7b612b8d565b5b612c87848285612c3e565b509392505050565b600082601f830112612ca457612ca3612b88565b5b8135612cb4848260208601612c4d565b91505092915050565b60008060408385031215612cd457612cd361295f565b5b6000612ce2858286016129b2565b925050602083013567ffffffffffffffff811115612d0357612d02612964565b5b612d0f85828601612c8f565b9150509250929050565b600060208284031215612d2f57612d2e61295f565b5b6000612d3d848285016129b2565b91505092915050565b60007fff0000000000000000000000000000000000000000000000000000000000000082169050919050565b612d7b81612d46565b82525050565b612d8a81612989565b82525050565b600081519050919050565b600082825260208201905092915050565b6000819050602082019050919050565b612dc5816129c7565b82525050565b6000612dd78383612dbc565b60208301905092915050565b6000602082019050919050565b6000612dfb82612d90565b612e058185612d9b565b9350612e1083612dac565b8060005b83811015612e41578151612e288882612dcb565b9750612e3383612de3565b925050600181019050612e14565b5085935050505092915050565b600060e082019050612e63600083018a612d72565b8181036020830152612e7581896128fa565b90508181036040830152612e8981886128fa565b9050612e986060830187612a73565b612ea56080830186612d81565b612eb260a0830185612b31565b81810360c0830152612ec48184612df0565b905098975050505050505050565b6000602082019050612ee76000830184612d81565b92915050565b612ef681612af0565b8114612f0157600080fd5b50565b600081359050612f1381612eed565b92915050565b612f2281612b27565b8114612f2d57600080fd5b50565b600081359050612f3f81612f19565b92915050565b600080600080600080600060e0888a031215612f6457612f6361295f565b5b6000612f728a828b016129b2565b9750506020612f838a828b016129b2565b9650506040612f948a828b016129e8565b9550506060612fa58a828b016129e8565b9450506080612fb68a828b01612f04565b93505060a0612fc78a828b01612f30565b92505060c0612fd88a828b01612f30565b91505092959891949750929550565b60008060408385031215612ffe57612ffd61295f565b5b600061300c858286016129b2565b925050602061301d858286016129b2565b9150509250929050565b7f4e487b7100000000000000000000000000000000000000000000000000000000600052602260045260246000fd5b6000600282049050600182168061306e57607f821691505b60208210810361308157613080613027565b5b50919050565b7f4549503731323a20556e696e697469616c697a65640000000000000000000000600082015250565b60006130bd6015836128ae565b91506130c882613087565b602082019050919050565b600060208201905081810360008301526130ec816130b0565b9050919050565b6000819050919050565b600067ffffffffffffffff82169050919050565b6000819050919050565b600061313661313161312c846130f3565b613111565b6130fd565b9050919050565b6131468161311b565b82525050565b6000602082019050613161600083018461313d565b92915050565b600060c08201905061317c6000830189612b31565b6131896020830188612d81565b6131966040830187612d81565b6131a36060830186612a73565b6131b06080830185612a73565b6131bd60a0830184612a73565b979650505050505050565b60006040820190506131dd6000830185612d81565b6131ea6020830184612d81565b9392505050565b60006060820190506132066000830186612d81565b6132136020830185612a73565b6132206040830184612a73565b949350505050565b60008151905061323781612f19565b92915050565b6000602082840312156132535761325261295f565b5b600061326184828501613228565b91505092915050565b600060a08201905061327f6000830188612b31565b61328c6020830187612b31565b6132996040830186612b31565b6132a66060830185612a73565b6132b36080830184612d81565b9695505050505050565b60008190508160005260206000209050919050565b60006020601f8301049050919050565b600082821b905092915050565b60006008830261331f7fffffffffffffffffffffffffffffffffffffffffffffffffffffffffffffffff826132e2565b61332986836132e2565b95508019841693508086168417925050509392505050565b600061335c613357613352846129c7565b613111565b6129c7565b9050919050565b6000819050919050565b61337683613341565b61338a61338282613363565b8484546132ef565b825550505050565b600090565b61339f613392565b6133aa81848461336d565b505050565b5b818110156133ce576133c3600082613397565b6001810190506133b0565b5050565b601f821115613413576133e4816132bd565b6133ed846132d2565b810160208510156133fc578190505b613410613408856132d2565b8301826133af565b50505b505050565b600082821c905092915050565b600061343660001984600802613418565b1980831691505092915050565b600061344f8383613425565b9150826002028217905092915050565b613468826128a3565b67ffffffffffffffff81111561348157613480612b92565b5b61348b8254613056565b6134968282856133d2565b600060209050601f8311600181146134c957600084156134b7578287015190505b6134c18582613443565b865550613529565b601f1984166134d7866132bd565b60005b828110156134ff578489015182556001820191506020850194506020810190506134da565b8683101561351c5784890151613518601f891682613425565b8355505b6001600288020188555050505b505050505050565b60006080820190506135466000830187612b31565b6135536020830186612afd565b6135606040830185612b31565b61356d6060830184612b31565b95945050505050565b7f4e487b7100000000000000000000000000000000000000000000000000000000600052602160045260246000fd5b600081519050919050565b600081905092915050565b60006135c6826135a5565b6135d081856135b0565b93506135e08185602086016128bf565b80840191505092915050565b60006135f882846135bb565b915081905092915050565b7f4e487b7100000000000000000000000000000000000000000000000000000000600052601160045260246000fd5b600061363d826129c7565b9150613648836129c7565b92508282019050808211156136605761365f613603565b5b9291505056fea2646970667358221220d3030154d5413a8029a6b5516439a6853e7a8391db4f6ba0c4f35cfeb71e03bd64736f6c63430008140033",
    "linkReferences": {},
    "deployedLinkReferences": {}
}